{
  "contractName": "IdChain",
  "abi": [
    {
      "inputs": [],
      "stateMutability": "nonpayable",
      "type": "constructor"
    },
    {
      "anonymous": false,
      "inputs": [
        {
          "indexed": false,
          "internalType": "string",
          "name": "message",
          "type": "string"
        }
      ],
      "name": "IdCardScaduta",
      "type": "event"
    },
    {
      "anonymous": false,
      "inputs": [
        {
          "indexed": true,
          "internalType": "bytes32",
          "name": "role",
          "type": "bytes32"
        },
        {
          "indexed": true,
          "internalType": "bytes32",
          "name": "previousAdminRole",
          "type": "bytes32"
        },
        {
          "indexed": true,
          "internalType": "bytes32",
          "name": "newAdminRole",
          "type": "bytes32"
        }
      ],
      "name": "RoleAdminChanged",
      "type": "event"
    },
    {
      "anonymous": false,
      "inputs": [
        {
          "indexed": true,
          "internalType": "bytes32",
          "name": "role",
          "type": "bytes32"
        },
        {
          "indexed": true,
          "internalType": "address",
          "name": "account",
          "type": "address"
        },
        {
          "indexed": true,
          "internalType": "address",
          "name": "sender",
          "type": "address"
        }
      ],
      "name": "RoleGranted",
      "type": "event"
    },
    {
      "anonymous": false,
      "inputs": [
        {
          "indexed": true,
          "internalType": "bytes32",
          "name": "role",
          "type": "bytes32"
        },
        {
          "indexed": true,
          "internalType": "address",
          "name": "account",
          "type": "address"
        },
        {
          "indexed": true,
          "internalType": "address",
          "name": "sender",
          "type": "address"
        }
      ],
      "name": "RoleRevoked",
      "type": "event"
    },
    {
      "anonymous": false,
      "inputs": [
        {
          "indexed": false,
          "internalType": "string",
          "name": "name",
          "type": "string"
        },
        {
          "indexed": false,
          "internalType": "string",
          "name": "surname",
          "type": "string"
        },
        {
          "indexed": false,
          "internalType": "string",
          "name": "fiscalCode",
          "type": "string"
        },
        {
          "indexed": false,
          "internalType": "uint256",
          "name": "dataScadenza",
          "type": "uint256"
        }
      ],
      "name": "createdIdCard",
      "type": "event"
    },
    {
      "anonymous": false,
      "inputs": [
        {
          "indexed": false,
          "internalType": "string",
          "name": "name",
          "type": "string"
        },
        {
          "indexed": false,
          "internalType": "string",
          "name": "surname",
          "type": "string"
        },
        {
          "indexed": false,
          "internalType": "string",
          "name": "fiscalCode",
          "type": "string"
        },
        {
          "indexed": false,
          "internalType": "uint256",
          "name": "dataScadenza",
          "type": "uint256"
        }
      ],
      "name": "renewedIdCard",
      "type": "event"
    },
    {
      "inputs": [],
      "name": "DEFAULT_ADMIN_ROLE",
      "outputs": [
        {
          "internalType": "bytes32",
          "name": "",
          "type": "bytes32"
        }
      ],
      "stateMutability": "view",
      "type": "function",
      "constant": true
    },
    {
      "inputs": [
        {
          "internalType": "bytes32",
          "name": "role",
          "type": "bytes32"
        }
      ],
      "name": "getRoleAdmin",
      "outputs": [
        {
          "internalType": "bytes32",
          "name": "",
          "type": "bytes32"
        }
      ],
      "stateMutability": "view",
      "type": "function",
      "constant": true
    },
    {
      "inputs": [
        {
          "internalType": "bytes32",
          "name": "role",
          "type": "bytes32"
        },
        {
          "internalType": "address",
          "name": "account",
          "type": "address"
        }
      ],
      "name": "grantRole",
      "outputs": [],
      "stateMutability": "nonpayable",
      "type": "function"
    },
    {
      "inputs": [
        {
          "internalType": "bytes32",
          "name": "role",
          "type": "bytes32"
        },
        {
          "internalType": "address",
          "name": "account",
          "type": "address"
        }
      ],
      "name": "hasRole",
      "outputs": [
        {
          "internalType": "bool",
          "name": "",
          "type": "bool"
        }
      ],
      "stateMutability": "view",
      "type": "function",
      "constant": true
    },
    {
      "inputs": [],
      "name": "idCardsCount",
      "outputs": [
        {
          "internalType": "uint256",
          "name": "",
          "type": "uint256"
        }
      ],
      "stateMutability": "view",
      "type": "function",
      "constant": true
    },
    {
      "inputs": [
        {
          "internalType": "bytes32",
          "name": "role",
          "type": "bytes32"
        },
        {
          "internalType": "address",
          "name": "account",
          "type": "address"
        }
      ],
      "name": "renounceRole",
      "outputs": [],
      "stateMutability": "nonpayable",
      "type": "function"
    },
    {
      "inputs": [
        {
          "internalType": "bytes32",
          "name": "role",
          "type": "bytes32"
        },
        {
          "internalType": "address",
          "name": "account",
          "type": "address"
        }
      ],
      "name": "revokeRole",
      "outputs": [],
      "stateMutability": "nonpayable",
      "type": "function"
    },
    {
      "inputs": [
        {
          "internalType": "bytes4",
          "name": "interfaceId",
          "type": "bytes4"
        }
      ],
      "name": "supportsInterface",
      "outputs": [
        {
          "internalType": "bool",
          "name": "",
          "type": "bool"
        }
      ],
      "stateMutability": "view",
      "type": "function",
      "constant": true
    },
    {
      "inputs": [
        {
          "internalType": "string",
          "name": "_name",
          "type": "string"
        },
        {
          "internalType": "string",
          "name": "_surname",
          "type": "string"
        },
        {
          "internalType": "string",
          "name": "_birthDate",
          "type": "string"
        },
        {
          "internalType": "string",
          "name": "_birthPlace",
          "type": "string"
        },
        {
          "internalType": "string",
          "name": "_fiscalCode",
          "type": "string"
        },
        {
          "internalType": "string",
          "name": "_homeAddress",
          "type": "string"
        },
        {
          "internalType": "string",
          "name": "_city",
          "type": "string"
        },
        {
          "internalType": "string",
          "name": "_province",
          "type": "string"
        },
        {
          "internalType": "string",
          "name": "_cap",
          "type": "string"
        },
        {
          "internalType": "string",
          "name": "_phone",
          "type": "string"
        },
        {
          "internalType": "string",
          "name": "_password",
          "type": "string"
        }
      ],
      "name": "createIdCard",
      "outputs": [
        {
          "internalType": "string",
          "name": "",
          "type": "string"
        }
      ],
      "stateMutability": "nonpayable",
      "type": "function"
    },
    {
      "inputs": [
        {
          "internalType": "string",
          "name": "_password",
          "type": "string"
        }
      ],
      "name": "deleteIdCard",
      "outputs": [
        {
          "internalType": "string",
          "name": "",
          "type": "string"
        }
      ],
      "stateMutability": "nonpayable",
      "type": "function"
    },
    {
      "inputs": [
        {
          "internalType": "string",
          "name": "_cf",
          "type": "string"
        },
        {
          "internalType": "string",
          "name": "_password",
          "type": "string"
        }
      ],
      "name": "readIdCard",
      "outputs": [
        {
          "internalType": "string",
          "name": "",
          "type": "string"
        }
      ],
      "stateMutability": "view",
      "type": "function",
      "constant": true
    },
    {
      "inputs": [
        {
          "internalType": "string",
          "name": "_password",
          "type": "string"
        }
      ],
      "name": "authorize",
      "outputs": [
        {
          "internalType": "string",
          "name": "",
          "type": "string"
        }
      ],
      "stateMutability": "view",
      "type": "function",
      "constant": true
    },
    {
      "inputs": [
        {
          "internalType": "string",
          "name": "_password",
          "type": "string"
        }
      ],
      "name": "renewIdCard",
      "outputs": [
        {
          "internalType": "string",
          "name": "",
          "type": "string"
        }
      ],
      "stateMutability": "nonpayable",
      "type": "function"
    },
    {
      "inputs": [],
      "name": "isAdmin",
      "outputs": [
        {
          "internalType": "bool",
          "name": "",
          "type": "bool"
        }
      ],
      "stateMutability": "view",
      "type": "function",
      "constant": true
    }
  ],
  "bytecode": "0x60806040523480156200001157600080fd5b506000600381905550600360008154809291906200002f9062000666565b91905055506040518061018001604052806040518060400160405280600481526020017f546573740000000000000000000000000000000000000000000000000000000081525081526020016040518060400160405280600581526020017f546573743100000000000000000000000000000000000000000000000000000081525081526020016040518060400160405280600a81526020017f32342f30332f323030300000000000000000000000000000000000000000000081525081526020016040518060400160405280600881526020017f4176656c6c696e6f00000000000000000000000000000000000000000000000081525081526020016040518060400160405280600a81526020017f4d52534e4452303032320000000000000000000000000000000000000000000081525081526020016040518060400160405280600b81526020017f566961205669612056696100000000000000000000000000000000000000000081525081526020016040518060400160405280600881526020017f4176656c6c696e6f00000000000000000000000000000000000000000000000081525081526020016040518060400160405280600281526020017f415600000000000000000000000000000000000000000000000000000000000081525081526020016040518060400160405280600581526020017f383331303000000000000000000000000000000000000000000000000000000081525081526020016040518060400160405280600a81526020017f333331313234323333360000000000000000000000000000000000000000000081525081526020016361e9784281526020016040518060800160405280604281526020016200511f604291398152506001600073cd3dae09e94aad0bc8e2bce8d5905384fe838c8e73ffffffffffffffffffffffffffffffffffffffff1673ffffffffffffffffffffffffffffffffffffffff16815260200190815260200160002060008201518160000190816200031f919062000923565b50602082015181600101908162000337919062000923565b5060408201518160020190816200034f919062000923565b50606082015181600301908162000367919062000923565b5060808201518160040190816200037f919062000923565b5060a082015181600501908162000397919062000923565b5060c0820151816006019081620003af919062000923565b5060e0820151816007019081620003c7919062000923565b50610100820151816008019081620003e0919062000923565b50610120820151816009019081620003f9919062000923565b5061014082015181600a015561016082015181600b0190816200041d919062000923565b5090505073cd3dae09e94aad0bc8e2bce8d5905384fe838c8e6002604051620004469062000a65565b908152602001604051809103902060006101000a81548173ffffffffffffffffffffffffffffffffffffffff021916908373ffffffffffffffffffffffffffffffffffffffff160217905550620004c47fa49807205ce4d355092ef5a8a18f56e8913cf4a201fbe287825b095693c2177533620004ca60201b60201c565b62000a7c565b620004dc8282620005bb60201b60201c565b620005b757600160008084815260200190815260200160002060000160008373ffffffffffffffffffffffffffffffffffffffff1673ffffffffffffffffffffffffffffffffffffffff16815260200190815260200160002060006101000a81548160ff0219169083151502179055506200055c6200062560201b60201c565b73ffffffffffffffffffffffffffffffffffffffff168173ffffffffffffffffffffffffffffffffffffffff16837f2f8788117e7eff1d82e926ec794901d17c78024a50270940304540a733656f0d60405160405180910390a45b5050565b600080600084815260200190815260200160002060000160008373ffffffffffffffffffffffffffffffffffffffff1673ffffffffffffffffffffffffffffffffffffffff16815260200190815260200160002060009054906101000a900460ff16905092915050565b600033905090565b7f4e487b7100000000000000000000000000000000000000000000000000000000600052601160045260246000fd5b6000819050919050565b600062000673826200065c565b91507fffffffffffffffffffffffffffffffffffffffffffffffffffffffffffffffff8203620006a857620006a76200062d565b5b600182019050919050565b600081519050919050565b7f4e487b7100000000000000000000000000000000000000000000000000000000600052604160045260246000fd5b7f4e487b7100000000000000000000000000000000000000000000000000000000600052602260045260246000fd5b600060028204905060018216806200073557607f821691505b6020821081036200074b576200074a620006ed565b5b50919050565b60008190508160005260206000209050919050565b60006020601f8301049050919050565b600082821b905092915050565b600060088302620007b57fffffffffffffffffffffffffffffffffffffffffffffffffffffffffffffffff8262000776565b620007c1868362000776565b95508019841693508086168417925050509392505050565b6000819050919050565b600062000804620007fe620007f8846200065c565b620007d9565b6200065c565b9050919050565b6000819050919050565b6200082083620007e3565b620008386200082f826200080b565b84845462000783565b825550505050565b600090565b6200084f62000840565b6200085c81848462000815565b505050565b5b8181101562000884576200087860008262000845565b60018101905062000862565b5050565b601f821115620008d3576200089d8162000751565b620008a88462000766565b81016020851015620008b8578190505b620008d0620008c78562000766565b83018262000861565b50505b505050565b600082821c905092915050565b6000620008f860001984600802620008d8565b1980831691505092915050565b6000620009138383620008e5565b9150826002028217905092915050565b6200092e82620006b3565b67ffffffffffffffff8111156200094a5762000949620006be565b5b6200095682546200071c565b6200096382828562000888565b600060209050601f8311600181146200099b576000841562000986578287015190505b62000992858262000905565b86555062000a02565b601f198416620009ab8662000751565b60005b82811015620009d557848901518255600182019150602085019450602081019050620009ae565b86831015620009f55784890151620009f1601f891682620008e5565b8355505b6001600288020188555050505b505050505050565b600081905092915050565b7f4d52534e44523030323200000000000000000000000000000000000000000000600082015250565b600062000a4d600a8362000a0a565b915062000a5a8262000a15565b600a82019050919050565b600062000a728262000a3e565b9150819050919050565b6146938062000a8c6000396000f3fe608060405234801561001057600080fd5b50600436106100ea5760003560e01c806391d148541161008c578063a6a432f711610066578063a6a432f714610295578063b6db75a0146102b3578063c5836853146102d1578063d547741f14610301576100ea565b806391d1485414610217578063992a22d214610247578063a217fddf14610277576100ea565b806335fb3fd3116100c857806335fb3fd31461016b57806336568abe1461019b5780633c9e293d146101b75780634f5fcb34146101e7576100ea565b806301ffc9a7146100ef578063248a9ca31461011f5780632f2ff15d1461014f575b600080fd5b610109600480360381019061010491906137a9565b61031d565b60405161011691906137f1565b60405180910390f35b61013960048036038101906101349190613842565b610397565b604051610146919061387e565b60405180910390f35b610169600480360381019061016491906138f7565b6103b6565b005b61018560048036038101906101809190613a7d565b6103d7565b6040516101929190613d24565b60405180910390f35b6101b560048036038101906101b091906138f7565b6107b7565b005b6101d160048036038101906101cc9190613d46565b61083a565b6040516101de9190613d24565b60405180910390f35b61020160048036038101906101fc9190613d46565b611193565b60405161020e9190613d24565b60405180910390f35b610231600480360381019061022c91906138f7565b6119d8565b60405161023e91906137f1565b60405180910390f35b610261600480360381019061025c9190613d8f565b611a42565b60405161026e9190613d24565b60405180910390f35b61027f612411565b60405161028c919061387e565b60405180910390f35b61029d612418565b6040516102aa9190613e20565b60405180910390f35b6102bb61241e565b6040516102c891906137f1565b60405180910390f35b6102eb60048036038101906102e69190613d46565b61244f565b6040516102f89190613d24565b60405180910390f35b61031b600480360381019061031691906138f7565b612f69565b005b60007f7965db0b000000000000000000000000000000000000000000000000000000007bffffffffffffffffffffffffffffffffffffffffffffffffffffffff1916827bffffffffffffffffffffffffffffffffffffffffffffffffffffffff19161480610390575061038f82612f8a565b5b9050919050565b6000806000838152602001908152602001600020600101549050919050565b6103bf82610397565b6103c881612ff4565b6103d28383613008565b505050565b606060008c51116103e757600080fd5b60008b51116103f557600080fd5b60008a511161040357600080fd5b600089511161041157600080fd5b600088511161041f57600080fd5b600087511161042d57600080fd5b600086511161043b57600080fd5b600085511161044957600080fd5b600084511161045757600080fd5b600083511161046557600080fd5b600073ffffffffffffffffffffffffffffffffffffffff1660028960405161048d9190613e77565b908152602001604051809103902060009054906101000a900473ffffffffffffffffffffffffffffffffffffffff1673ffffffffffffffffffffffffffffffffffffffff1614610514576040518060400160405280601381526020017f4346416c7265616479526567697374657265640000000000000000000000000081525090506107a8565b6003600081548092919061052790613ebd565b919050555060006312cc03004261053e9190613f05565b90506040518061018001604052808e81526020018d81526020018c81526020018b81526020018a815260200189815260200188815260200187815260200186815260200185815260200182815260200184815250600160003373ffffffffffffffffffffffffffffffffffffffff1673ffffffffffffffffffffffffffffffffffffffff16815260200190815260200160002060008201518160000190816105e69190614145565b5060208201518160010190816105fc9190614145565b5060408201518160020190816106129190614145565b5060608201518160030190816106289190614145565b50608082015181600401908161063e9190614145565b5060a08201518160050190816106549190614145565b5060c082015181600601908161066a9190614145565b5060e08201518160070190816106809190614145565b506101008201518160080190816106979190614145565b506101208201518160090190816106ae9190614145565b5061014082015181600a015561016082015181600b0190816106d09190614145565b509050503360028a6040516106e59190613e77565b908152602001604051809103902060006101000a81548173ffffffffffffffffffffffffffffffffffffffff021916908373ffffffffffffffffffffffffffffffffffffffff1602179055507fea0e21aa925590127eb9530746cf0f19e2b823e70c4186ee283ad7bad6bf7d698d8d8b846040516107669493929190614217565b60405180910390a16040518060400160405280600781526020017f73756363657373000000000000000000000000000000000000000000000000008152509150505b9b9a5050505050505050505050565b6107bf6130e8565b73ffffffffffffffffffffffffffffffffffffffff168173ffffffffffffffffffffffffffffffffffffffff161461082c576040517f08c379a0000000000000000000000000000000000000000000000000000000008152600401610823906142e3565b60405180910390fd5b61083682826130f0565b5050565b6060600073ffffffffffffffffffffffffffffffffffffffff163373ffffffffffffffffffffffffffffffffffffffff160361087557600080fd5b6000600160003373ffffffffffffffffffffffffffffffffffffffff1673ffffffffffffffffffffffffffffffffffffffff168152602001908152602001600020604051806101800160405290816000820180546108d290613f68565b80601f01602080910402602001604051908101604052809291908181526020018280546108fe90613f68565b801561094b5780601f106109205761010080835404028352916020019161094b565b820191906000526020600020905b81548152906001019060200180831161092e57829003601f168201915b5050505050815260200160018201805461096490613f68565b80601f016020809104026020016040519081016040528092919081815260200182805461099090613f68565b80156109dd5780601f106109b2576101008083540402835291602001916109dd565b820191906000526020600020905b8154815290600101906020018083116109c057829003601f168201915b505050505081526020016002820180546109f690613f68565b80601f0160208091040260200160405190810160405280929190818152602001828054610a2290613f68565b8015610a6f5780601f10610a4457610100808354040283529160200191610a6f565b820191906000526020600020905b815481529060010190602001808311610a5257829003601f168201915b50505050508152602001600382018054610a8890613f68565b80601f0160208091040260200160405190810160405280929190818152602001828054610ab490613f68565b8015610b015780601f10610ad657610100808354040283529160200191610b01565b820191906000526020600020905b815481529060010190602001808311610ae457829003601f168201915b50505050508152602001600482018054610b1a90613f68565b80601f0160208091040260200160405190810160405280929190818152602001828054610b4690613f68565b8015610b935780601f10610b6857610100808354040283529160200191610b93565b820191906000526020600020905b815481529060010190602001808311610b7657829003601f168201915b50505050508152602001600582018054610bac90613f68565b80601f0160208091040260200160405190810160405280929190818152602001828054610bd890613f68565b8015610c255780601f10610bfa57610100808354040283529160200191610c25565b820191906000526020600020905b815481529060010190602001808311610c0857829003601f168201915b50505050508152602001600682018054610c3e90613f68565b80601f0160208091040260200160405190810160405280929190818152602001828054610c6a90613f68565b8015610cb75780601f10610c8c57610100808354040283529160200191610cb7565b820191906000526020600020905b815481529060010190602001808311610c9a57829003601f168201915b50505050508152602001600782018054610cd090613f68565b80601f0160208091040260200160405190810160405280929190818152602001828054610cfc90613f68565b8015610d495780601f10610d1e57610100808354040283529160200191610d49565b820191906000526020600020905b815481529060010190602001808311610d2c57829003601f168201915b50505050508152602001600882018054610d6290613f68565b80601f0160208091040260200160405190810160405280929190818152602001828054610d8e90613f68565b8015610ddb5780601f10610db057610100808354040283529160200191610ddb565b820191906000526020600020905b815481529060010190602001808311610dbe57829003601f168201915b50505050508152602001600982018054610df490613f68565b80601f0160208091040260200160405190810160405280929190818152602001828054610e2090613f68565b8015610e6d5780601f10610e4257610100808354040283529160200191610e6d565b820191906000526020600020905b815481529060010190602001808311610e5057829003601f168201915b50505050508152602001600a8201548152602001600b82018054610e9090613f68565b80601f0160208091040260200160405190810160405280929190818152602001828054610ebc90613f68565b8015610f095780601f10610ede57610100808354040283529160200191610f09565b820191906000526020600020905b815481529060010190602001808311610eec57829003601f168201915b5050505050815250509050600081608001519050600082600001515103610f69576040518060400160405280600c81526020017f636172644e6f74466f756e6400000000000000000000000000000000000000008152509250505061118e565b83604051602001610f7a9190613e77565b60405160208183030381529060405280519060200120826101600151604051602001610fa69190613e77565b6040516020818303038152906040528051906020012014611000576040518060400160405280600d81526020017f6572726f7250617373776f7264000000000000000000000000000000000000008152509250505061118e565b600160003373ffffffffffffffffffffffffffffffffffffffff1673ffffffffffffffffffffffffffffffffffffffff1681526020019081526020016000206000808201600061105091906136e0565b60018201600061106091906136e0565b60028201600061107091906136e0565b60038201600061108091906136e0565b60048201600061109091906136e0565b6005820160006110a091906136e0565b6006820160006110b091906136e0565b6007820160006110c091906136e0565b6008820160006110d091906136e0565b6009820160006110e091906136e0565b600a820160009055600b820160006110f891906136e0565b505060028160405161110a9190613e77565b908152602001604051809103902060006101000a81549073ffffffffffffffffffffffffffffffffffffffff02191690556003600081548092919061114e90614303565b91905055506040518060400160405280601181526020017f6361726444656c65746553756363657373000000000000000000000000000000815250925050505b919050565b6060600073ffffffffffffffffffffffffffffffffffffffff163373ffffffffffffffffffffffffffffffffffffffff16036111ce57600080fd5b6000600160003373ffffffffffffffffffffffffffffffffffffffff1673ffffffffffffffffffffffffffffffffffffffff1681526020019081526020016000206040518061018001604052908160008201805461122b90613f68565b80601f016020809104026020016040519081016040528092919081815260200182805461125790613f68565b80156112a45780601f10611279576101008083540402835291602001916112a4565b820191906000526020600020905b81548152906001019060200180831161128757829003601f168201915b505050505081526020016001820180546112bd90613f68565b80601f01602080910402602001604051908101604052809291908181526020018280546112e990613f68565b80156113365780601f1061130b57610100808354040283529160200191611336565b820191906000526020600020905b81548152906001019060200180831161131957829003601f168201915b5050505050815260200160028201805461134f90613f68565b80601f016020809104026020016040519081016040528092919081815260200182805461137b90613f68565b80156113c85780601f1061139d576101008083540402835291602001916113c8565b820191906000526020600020905b8154815290600101906020018083116113ab57829003601f168201915b505050505081526020016003820180546113e190613f68565b80601f016020809104026020016040519081016040528092919081815260200182805461140d90613f68565b801561145a5780601f1061142f5761010080835404028352916020019161145a565b820191906000526020600020905b81548152906001019060200180831161143d57829003601f168201915b5050505050815260200160048201805461147390613f68565b80601f016020809104026020016040519081016040528092919081815260200182805461149f90613f68565b80156114ec5780601f106114c1576101008083540402835291602001916114ec565b820191906000526020600020905b8154815290600101906020018083116114cf57829003601f168201915b5050505050815260200160058201805461150590613f68565b80601f016020809104026020016040519081016040528092919081815260200182805461153190613f68565b801561157e5780601f106115535761010080835404028352916020019161157e565b820191906000526020600020905b81548152906001019060200180831161156157829003601f168201915b5050505050815260200160068201805461159790613f68565b80601f01602080910402602001604051908101604052809291908181526020018280546115c390613f68565b80156116105780601f106115e557610100808354040283529160200191611610565b820191906000526020600020905b8154815290600101906020018083116115f357829003601f168201915b5050505050815260200160078201805461162990613f68565b80601f016020809104026020016040519081016040528092919081815260200182805461165590613f68565b80156116a25780601f10611677576101008083540402835291602001916116a2565b820191906000526020600020905b81548152906001019060200180831161168557829003601f168201915b505050505081526020016008820180546116bb90613f68565b80601f01602080910402602001604051908101604052809291908181526020018280546116e790613f68565b80156117345780601f1061170957610100808354040283529160200191611734565b820191906000526020600020905b81548152906001019060200180831161171757829003601f168201915b5050505050815260200160098201805461174d90613f68565b80601f016020809104026020016040519081016040528092919081815260200182805461177990613f68565b80156117c65780601f1061179b576101008083540402835291602001916117c6565b820191906000526020600020905b8154815290600101906020018083116117a957829003601f168201915b50505050508152602001600a8201548152602001600b820180546117e990613f68565b80601f016020809104026020016040519081016040528092919081815260200182805461181590613f68565b80156118625780601f1061183757610100808354040283529160200191611862565b820191906000526020600020905b81548152906001019060200180831161184557829003601f168201915b50505050508152505090506000816000015151036118b8576040518060400160405280600c81526020017f636172644e6f74466f756e6400000000000000000000000000000000000000008152509150506119d3565b826040516020016118c99190613e77565b604051602081830303815290604052805190602001208161016001516040516020016118f59190613e77565b604051602081830303815290604052805190602001201461194e576040518060400160405280600d81526020017f6572726f7250617373776f7264000000000000000000000000000000000000008152509150506119d3565b806101400151421115611999576040518060400160405280600a81526020017f65787069726543617264000000000000000000000000000000000000000000008152509150506119d3565b6040518060400160405280600b81526020017f4175746f72697a7a61746f0000000000000000000000000000000000000000008152509150505b919050565b600080600084815260200190815260200160002060000160008373ffffffffffffffffffffffffffffffffffffffff1673ffffffffffffffffffffffffffffffffffffffff16815260200190815260200160002060009054906101000a900460ff16905092915050565b60606000611a707fa49807205ce4d355092ef5a8a18f56e8913cf4a201fbe287825b095693c21775336119d8565b15611b3257600073ffffffffffffffffffffffffffffffffffffffff16600285604051611a9d9190613e77565b908152602001604051809103902060009054906101000a900473ffffffffffffffffffffffffffffffffffffffff1673ffffffffffffffffffffffffffffffffffffffff1603611aec57600080fd5b600284604051611afc9190613e77565b908152602001604051809103902060009054906101000a900473ffffffffffffffffffffffffffffffffffffffff169050611b36565b3390505b600073ffffffffffffffffffffffffffffffffffffffff168173ffffffffffffffffffffffffffffffffffffffff1603611b6f57600080fd5b6000600160008373ffffffffffffffffffffffffffffffffffffffff1673ffffffffffffffffffffffffffffffffffffffff16815260200190815260200160002060405180610180016040529081600082018054611bcc90613f68565b80601f0160208091040260200160405190810160405280929190818152602001828054611bf890613f68565b8015611c455780601f10611c1a57610100808354040283529160200191611c45565b820191906000526020600020905b815481529060010190602001808311611c2857829003601f168201915b50505050508152602001600182018054611c5e90613f68565b80601f0160208091040260200160405190810160405280929190818152602001828054611c8a90613f68565b8015611cd75780601f10611cac57610100808354040283529160200191611cd7565b820191906000526020600020905b815481529060010190602001808311611cba57829003601f168201915b50505050508152602001600282018054611cf090613f68565b80601f0160208091040260200160405190810160405280929190818152602001828054611d1c90613f68565b8015611d695780601f10611d3e57610100808354040283529160200191611d69565b820191906000526020600020905b815481529060010190602001808311611d4c57829003601f168201915b50505050508152602001600382018054611d8290613f68565b80601f0160208091040260200160405190810160405280929190818152602001828054611dae90613f68565b8015611dfb5780601f10611dd057610100808354040283529160200191611dfb565b820191906000526020600020905b815481529060010190602001808311611dde57829003601f168201915b50505050508152602001600482018054611e1490613f68565b80601f0160208091040260200160405190810160405280929190818152602001828054611e4090613f68565b8015611e8d5780601f10611e6257610100808354040283529160200191611e8d565b820191906000526020600020905b815481529060010190602001808311611e7057829003601f168201915b50505050508152602001600582018054611ea690613f68565b80601f0160208091040260200160405190810160405280929190818152602001828054611ed290613f68565b8015611f1f5780601f10611ef457610100808354040283529160200191611f1f565b820191906000526020600020905b815481529060010190602001808311611f0257829003601f168201915b50505050508152602001600682018054611f3890613f68565b80601f0160208091040260200160405190810160405280929190818152602001828054611f6490613f68565b8015611fb15780601f10611f8657610100808354040283529160200191611fb1565b820191906000526020600020905b815481529060010190602001808311611f9457829003601f168201915b50505050508152602001600782018054611fca90613f68565b80601f0160208091040260200160405190810160405280929190818152602001828054611ff690613f68565b80156120435780601f1061201857610100808354040283529160200191612043565b820191906000526020600020905b81548152906001019060200180831161202657829003601f168201915b5050505050815260200160088201805461205c90613f68565b80601f016020809104026020016040519081016040528092919081815260200182805461208890613f68565b80156120d55780601f106120aa576101008083540402835291602001916120d5565b820191906000526020600020905b8154815290600101906020018083116120b857829003601f168201915b505050505081526020016009820180546120ee90613f68565b80601f016020809104026020016040519081016040528092919081815260200182805461211a90613f68565b80156121675780601f1061213c57610100808354040283529160200191612167565b820191906000526020600020905b81548152906001019060200180831161214a57829003601f168201915b50505050508152602001600a8201548152602001600b8201805461218a90613f68565b80601f01602080910402602001604051908101604052809291908181526020018280546121b690613f68565b80156122035780601f106121d857610100808354040283529160200191612203565b820191906000526020600020905b8154815290600101906020018083116121e657829003601f168201915b505050505081525050905060008160000151510361225a576040518060400160405280600c81526020017f636172644e6f74466f756e6400000000000000000000000000000000000000008152509250505061240b565b6122847fa49807205ce4d355092ef5a8a18f56e8913cf4a201fbe287825b095693c21775336119d8565b61232057836040516020016122999190613e77565b604051602081830303815290604052805190602001208161016001516040516020016122c59190613e77565b604051602081830303815290604052805190602001201461231f576040518060400160405280600d81526020017f6572726f7250617373776f7264000000000000000000000000000000000000008152509250505061240b565b5b61234a7fa49807205ce4d355092ef5a8a18f56e8913cf4a201fbe287825b095693c21775336119d8565b61239b5780610140015142111561239a576040518060400160405280600a81526020017f65787069726543617264000000000000000000000000000000000000000000008152509250505061240b565b5b806000015181602001518260400151836060015184608001518560a001518660c001518760e001518861010001518961012001516123dd8b61014001516131d1565b6040516020016123f79b9a99989796959493929190614378565b604051602081830303815290604052925050505b92915050565b6000801b81565b60035481565b600061244a7fa49807205ce4d355092ef5a8a18f56e8913cf4a201fbe287825b095693c21775336119d8565b905090565b6060600073ffffffffffffffffffffffffffffffffffffffff163373ffffffffffffffffffffffffffffffffffffffff160361248a57600080fd5b6000600160003373ffffffffffffffffffffffffffffffffffffffff1673ffffffffffffffffffffffffffffffffffffffff168152602001908152602001600020604051806101800160405290816000820180546124e790613f68565b80601f016020809104026020016040519081016040528092919081815260200182805461251390613f68565b80156125605780601f1061253557610100808354040283529160200191612560565b820191906000526020600020905b81548152906001019060200180831161254357829003601f168201915b5050505050815260200160018201805461257990613f68565b80601f01602080910402602001604051908101604052809291908181526020018280546125a590613f68565b80156125f25780601f106125c7576101008083540402835291602001916125f2565b820191906000526020600020905b8154815290600101906020018083116125d557829003601f168201915b5050505050815260200160028201805461260b90613f68565b80601f016020809104026020016040519081016040528092919081815260200182805461263790613f68565b80156126845780601f1061265957610100808354040283529160200191612684565b820191906000526020600020905b81548152906001019060200180831161266757829003601f168201915b5050505050815260200160038201805461269d90613f68565b80601f01602080910402602001604051908101604052809291908181526020018280546126c990613f68565b80156127165780601f106126eb57610100808354040283529160200191612716565b820191906000526020600020905b8154815290600101906020018083116126f957829003601f168201915b5050505050815260200160048201805461272f90613f68565b80601f016020809104026020016040519081016040528092919081815260200182805461275b90613f68565b80156127a85780601f1061277d576101008083540402835291602001916127a8565b820191906000526020600020905b81548152906001019060200180831161278b57829003601f168201915b505050505081526020016005820180546127c190613f68565b80601f01602080910402602001604051908101604052809291908181526020018280546127ed90613f68565b801561283a5780601f1061280f5761010080835404028352916020019161283a565b820191906000526020600020905b81548152906001019060200180831161281d57829003601f168201915b5050505050815260200160068201805461285390613f68565b80601f016020809104026020016040519081016040528092919081815260200182805461287f90613f68565b80156128cc5780601f106128a1576101008083540402835291602001916128cc565b820191906000526020600020905b8154815290600101906020018083116128af57829003601f168201915b505050505081526020016007820180546128e590613f68565b80601f016020809104026020016040519081016040528092919081815260200182805461291190613f68565b801561295e5780601f106129335761010080835404028352916020019161295e565b820191906000526020600020905b81548152906001019060200180831161294157829003601f168201915b5050505050815260200160088201805461297790613f68565b80601f01602080910402602001604051908101604052809291908181526020018280546129a390613f68565b80156129f05780601f106129c5576101008083540402835291602001916129f0565b820191906000526020600020905b8154815290600101906020018083116129d357829003601f168201915b50505050508152602001600982018054612a0990613f68565b80601f0160208091040260200160405190810160405280929190818152602001828054612a3590613f68565b8015612a825780601f10612a5757610100808354040283529160200191612a82565b820191906000526020600020905b815481529060010190602001808311612a6557829003601f168201915b50505050508152602001600a8201548152602001600b82018054612aa590613f68565b80601f0160208091040260200160405190810160405280929190818152602001828054612ad190613f68565b8015612b1e5780601f10612af357610100808354040283529160200191612b1e565b820191906000526020600020905b815481529060010190602001808311612b0157829003601f168201915b5050505050815250509050600081600001515103612b74576040518060400160405280600c81526020017f636172644e6f74466f756e640000000000000000000000000000000000000000815250915050612f64565b82604051602001612b859190613e77565b60405160208183030381529060405280519060200120816101600151604051602001612bb19190613e77565b6040516020818303038152906040528051906020012014612c0a576040518060400160405280600d81526020017f6572726f7250617373776f726400000000000000000000000000000000000000815250915050612f64565b60006312cc030042612c1c9190613f05565b9050600160003373ffffffffffffffffffffffffffffffffffffffff1673ffffffffffffffffffffffffffffffffffffffff16815260200190815260200160002060008082016000612c6e91906136e0565b600182016000612c7e91906136e0565b600282016000612c8e91906136e0565b600382016000612c9e91906136e0565b600482016000612cae91906136e0565b600582016000612cbe91906136e0565b600682016000612cce91906136e0565b600782016000612cde91906136e0565b600882016000612cee91906136e0565b600982016000612cfe91906136e0565b600a820160009055600b82016000612d1691906136e0565b505060405180610180016040528083600001518152602001836020015181526020018360400151815260200183606001518152602001836080015181526020018360a0015181526020018360c0015181526020018360e00151815260200183610100015181526020018361012001518152602001828152602001836101600151815250600160003373ffffffffffffffffffffffffffffffffffffffff1673ffffffffffffffffffffffffffffffffffffffff1681526020019081526020016000206000820151816000019081612ded9190614145565b506020820151816001019081612e039190614145565b506040820151816002019081612e199190614145565b506060820151816003019081612e2f9190614145565b506080820151816004019081612e459190614145565b5060a0820151816005019081612e5b9190614145565b5060c0820151816006019081612e719190614145565b5060e0820151816007019081612e879190614145565b50610100820151816008019081612e9e9190614145565b50610120820151816009019081612eb59190614145565b5061014082015181600a015561016082015181600b019081612ed79190614145565b509050507fd7301a1875e612aa83866dfed9015b7be44e76535dfeafbbd5597a022aba92e8826000015183602001518460800151856101400151604051612f219493929190614217565b60405180910390a16040518060400160405280601081526020017f6361726452656e65775375636365737300000000000000000000000000000000815250925050505b919050565b612f7282610397565b612f7b81612ff4565b612f8583836130f0565b505050565b60007f01ffc9a7000000000000000000000000000000000000000000000000000000007bffffffffffffffffffffffffffffffffffffffffffffffffffffffff1916827bffffffffffffffffffffffffffffffffffffffffffffffffffffffff1916149050919050565b613005816130006130e8565b61329f565b50565b61301282826119d8565b6130e457600160008084815260200190815260200160002060000160008373ffffffffffffffffffffffffffffffffffffffff1673ffffffffffffffffffffffffffffffffffffffff16815260200190815260200160002060006101000a81548160ff0219169083151502179055506130896130e8565b73ffffffffffffffffffffffffffffffffffffffff168173ffffffffffffffffffffffffffffffffffffffff16837f2f8788117e7eff1d82e926ec794901d17c78024a50270940304540a733656f0d60405160405180910390a45b5050565b600033905090565b6130fa82826119d8565b156131cd57600080600084815260200190815260200160002060000160008373ffffffffffffffffffffffffffffffffffffffff1673ffffffffffffffffffffffffffffffffffffffff16815260200190815260200160002060006101000a81548160ff0219169083151502179055506131726130e8565b73ffffffffffffffffffffffffffffffffffffffff168173ffffffffffffffffffffffffffffffffffffffff16837ff6391f5c32d9c69d2a47ea670b442974b53935d1edc7fd64eb21e047a839171b60405160405180910390a45b5050565b6060600060016131e084613324565b01905060008167ffffffffffffffff8111156131ff576131fe613952565b5b6040519080825280601f01601f1916602001820160405280156132315781602001600182028036833780820191505090505b509050600082602001820190505b600115613294578080600190039150507f3031323334353637383961626364656600000000000000000000000000000000600a86061a8153600a85816132885761328761447f565b5b0494506000850361323f575b819350505050919050565b6132a982826119d8565b613320576132b681613477565b6132c48360001c60206134a4565b6040516020016132d5929190614546565b6040516020818303038152906040526040517f08c379a00000000000000000000000000000000000000000000000000000000081526004016133179190613d24565b60405180910390fd5b5050565b600080600090507a184f03e93ff9f4daa797ed6e38ed64bf6a1f0100000000000000008310613382577a184f03e93ff9f4daa797ed6e38ed64bf6a1f01000000000000000083816133785761337761447f565b5b0492506040810190505b6d04ee2d6d415b85acef810000000083106133bf576d04ee2d6d415b85acef810000000083816133b5576133b461447f565b5b0492506020810190505b662386f26fc1000083106133ee57662386f26fc1000083816133e4576133e361447f565b5b0492506010810190505b6305f5e1008310613417576305f5e100838161340d5761340c61447f565b5b0492506008810190505b612710831061343c5761271083816134325761343161447f565b5b0492506004810190505b6064831061345f57606483816134555761345461447f565b5b0492506002810190505b600a831061346e576001810190505b80915050919050565b606061349d8273ffffffffffffffffffffffffffffffffffffffff16601460ff166134a4565b9050919050565b6060600060028360026134b79190614580565b6134c19190613f05565b67ffffffffffffffff8111156134da576134d9613952565b5b6040519080825280601f01601f19166020018201604052801561350c5781602001600182028036833780820191505090505b5090507f300000000000000000000000000000000000000000000000000000000000000081600081518110613544576135436145c2565b5b60200101907effffffffffffffffffffffffffffffffffffffffffffffffffffffffffffff1916908160001a9053507f7800000000000000000000000000000000000000000000000000000000000000816001815181106135a8576135a76145c2565b5b60200101907effffffffffffffffffffffffffffffffffffffffffffffffffffffffffffff1916908160001a905350600060018460026135e89190614580565b6135f29190613f05565b90505b6001811115613692577f3031323334353637383961626364656600000000000000000000000000000000600f861660108110613634576136336145c2565b5b1a60f81b82828151811061364b5761364a6145c2565b5b60200101907effffffffffffffffffffffffffffffffffffffffffffffffffffffffffffff1916908160001a905350600485901c94508061368b90614303565b90506135f5565b50600084146136d6576040517f08c379a00000000000000000000000000000000000000000000000000000000081526004016136cd9061463d565b60405180910390fd5b8091505092915050565b5080546136ec90613f68565b6000825580601f106136fe575061371d565b601f01602090049060005260206000209081019061371c9190613720565b5b50565b5b80821115613739576000816000905550600101613721565b5090565b6000604051905090565b600080fd5b600080fd5b60007fffffffff0000000000000000000000000000000000000000000000000000000082169050919050565b61378681613751565b811461379157600080fd5b50565b6000813590506137a38161377d565b92915050565b6000602082840312156137bf576137be613747565b5b60006137cd84828501613794565b91505092915050565b60008115159050919050565b6137eb816137d6565b82525050565b600060208201905061380660008301846137e2565b92915050565b6000819050919050565b61381f8161380c565b811461382a57600080fd5b50565b60008135905061383c81613816565b92915050565b60006020828403121561385857613857613747565b5b60006138668482850161382d565b91505092915050565b6138788161380c565b82525050565b6000602082019050613893600083018461386f565b92915050565b600073ffffffffffffffffffffffffffffffffffffffff82169050919050565b60006138c482613899565b9050919050565b6138d4816138b9565b81146138df57600080fd5b50565b6000813590506138f1816138cb565b92915050565b6000806040838503121561390e5761390d613747565b5b600061391c8582860161382d565b925050602061392d858286016138e2565b9150509250929050565b600080fd5b600080fd5b6000601f19601f8301169050919050565b7f4e487b7100000000000000000000000000000000000000000000000000000000600052604160045260246000fd5b61398a82613941565b810181811067ffffffffffffffff821117156139a9576139a8613952565b5b80604052505050565b60006139bc61373d565b90506139c88282613981565b919050565b600067ffffffffffffffff8211156139e8576139e7613952565b5b6139f182613941565b9050602081019050919050565b82818337600083830152505050565b6000613a20613a1b846139cd565b6139b2565b905082815260208101848484011115613a3c57613a3b61393c565b5b613a478482856139fe565b509392505050565b600082601f830112613a6457613a63613937565b5b8135613a74848260208601613a0d565b91505092915050565b60008060008060008060008060008060006101608c8e031215613aa357613aa2613747565b5b60008c013567ffffffffffffffff811115613ac157613ac061374c565b5b613acd8e828f01613a4f565b9b505060208c013567ffffffffffffffff811115613aee57613aed61374c565b5b613afa8e828f01613a4f565b9a505060408c013567ffffffffffffffff811115613b1b57613b1a61374c565b5b613b278e828f01613a4f565b99505060608c013567ffffffffffffffff811115613b4857613b4761374c565b5b613b548e828f01613a4f565b98505060808c013567ffffffffffffffff811115613b7557613b7461374c565b5b613b818e828f01613a4f565b97505060a08c013567ffffffffffffffff811115613ba257613ba161374c565b5b613bae8e828f01613a4f565b96505060c08c013567ffffffffffffffff811115613bcf57613bce61374c565b5b613bdb8e828f01613a4f565b95505060e08c013567ffffffffffffffff811115613bfc57613bfb61374c565b5b613c088e828f01613a4f565b9450506101008c013567ffffffffffffffff811115613c2a57613c2961374c565b5b613c368e828f01613a4f565b9350506101208c013567ffffffffffffffff811115613c5857613c5761374c565b5b613c648e828f01613a4f565b9250506101408c013567ffffffffffffffff811115613c8657613c8561374c565b5b613c928e828f01613a4f565b9150509295989b509295989b9093969950565b600081519050919050565b600082825260208201905092915050565b60005b83811015613cdf578082015181840152602081019050613cc4565b60008484015250505050565b6000613cf682613ca5565b613d008185613cb0565b9350613d10818560208601613cc1565b613d1981613941565b840191505092915050565b60006020820190508181036000830152613d3e8184613ceb565b905092915050565b600060208284031215613d5c57613d5b613747565b5b600082013567ffffffffffffffff811115613d7a57613d7961374c565b5b613d8684828501613a4f565b91505092915050565b60008060408385031215613da657613da5613747565b5b600083013567ffffffffffffffff811115613dc457613dc361374c565b5b613dd085828601613a4f565b925050602083013567ffffffffffffffff811115613df157613df061374c565b5b613dfd85828601613a4f565b9150509250929050565b6000819050919050565b613e1a81613e07565b82525050565b6000602082019050613e356000830184613e11565b92915050565b600081905092915050565b6000613e5182613ca5565b613e5b8185613e3b565b9350613e6b818560208601613cc1565b80840191505092915050565b6000613e838284613e46565b915081905092915050565b7f4e487b7100000000000000000000000000000000000000000000000000000000600052601160045260246000fd5b6000613ec882613e07565b91507fffffffffffffffffffffffffffffffffffffffffffffffffffffffffffffffff8203613efa57613ef9613e8e565b5b600182019050919050565b6000613f1082613e07565b9150613f1b83613e07565b9250828201905080821115613f3357613f32613e8e565b5b92915050565b7f4e487b7100000000000000000000000000000000000000000000000000000000600052602260045260246000fd5b60006002820490506001821680613f8057607f821691505b602082108103613f9357613f92613f39565b5b50919050565b60008190508160005260206000209050919050565b60006020601f8301049050919050565b600082821b905092915050565b600060088302613ffb7fffffffffffffffffffffffffffffffffffffffffffffffffffffffffffffffff82613fbe565b6140058683613fbe565b95508019841693508086168417925050509392505050565b6000819050919050565b600061404261403d61403884613e07565b61401d565b613e07565b9050919050565b6000819050919050565b61405c83614027565b61407061406882614049565b848454613fcb565b825550505050565b600090565b614085614078565b614090818484614053565b505050565b5b818110156140b4576140a960008261407d565b600181019050614096565b5050565b601f8211156140f9576140ca81613f99565b6140d384613fae565b810160208510156140e2578190505b6140f66140ee85613fae565b830182614095565b50505b505050565b600082821c905092915050565b600061411c600019846008026140fe565b1980831691505092915050565b6000614135838361410b565b9150826002028217905092915050565b61414e82613ca5565b67ffffffffffffffff81111561416757614166613952565b5b6141718254613f68565b61417c8282856140b8565b600060209050601f8311600181146141af576000841561419d578287015190505b6141a78582614129565b86555061420f565b601f1984166141bd86613f99565b60005b828110156141e5578489015182556001820191506020850194506020810190506141c0565b8683101561420257848901516141fe601f89168261410b565b8355505b6001600288020188555050505b505050505050565b600060808201905081810360008301526142318187613ceb565b905081810360208301526142458186613ceb565b905081810360408301526142598185613ceb565b90506142686060830184613e11565b95945050505050565b7f416363657373436f6e74726f6c3a2063616e206f6e6c792072656e6f756e636560008201527f20726f6c657320666f722073656c660000000000000000000000000000000000602082015250565b60006142cd602f83613cb0565b91506142d882614271565b604082019050919050565b600060208201905081810360008301526142fc816142c0565b9050919050565b600061430e82613e07565b91506000820361432157614320613e8e565b5b600182039050919050565b7f2f2f000000000000000000000000000000000000000000000000000000000000600082015250565b6000614362600283613e3b565b915061436d8261432c565b600282019050919050565b6000614384828e613e46565b915061438f82614355565b915061439b828d613e46565b91506143a682614355565b91506143b2828c613e46565b91506143bd82614355565b91506143c9828b613e46565b91506143d482614355565b91506143e0828a613e46565b91506143eb82614355565b91506143f78289613e46565b915061440282614355565b915061440e8288613e46565b915061441982614355565b91506144258287613e46565b915061443082614355565b915061443c8286613e46565b915061444782614355565b91506144538285613e46565b915061445e82614355565b915061446a8284613e46565b91508190509c9b505050505050505050505050565b7f4e487b7100000000000000000000000000000000000000000000000000000000600052601260045260246000fd5b7f416363657373436f6e74726f6c3a206163636f756e7420000000000000000000600082015250565b60006144e4601783613e3b565b91506144ef826144ae565b601782019050919050565b7f206973206d697373696e6720726f6c6520000000000000000000000000000000600082015250565b6000614530601183613e3b565b915061453b826144fa565b601182019050919050565b6000614551826144d7565b915061455d8285613e46565b915061456882614523565b91506145748284613e46565b91508190509392505050565b600061458b82613e07565b915061459683613e07565b92508282026145a481613e07565b915082820484148315176145bb576145ba613e8e565b5b5092915050565b7f4e487b7100000000000000000000000000000000000000000000000000000000600052603260045260246000fd5b7f537472696e67733a20686578206c656e67746820696e73756666696369656e74600082015250565b6000614627602083613cb0565b9150614632826145f1565b602082019050919050565b600060208201905081810360008301526146568161461a565b905091905056fea2646970667358221220eea409114bc5e75b25cf5449de0c8e916c5cb5b993d0d8235c665f53f125100364736f6c63430008120033307862363866653433663064316130643761656631323337323236373062653530323638653135333635343031633434326638383036656638336236313239373662",
  "immutableReferences": {},
  "source": "// SPDX-License-Identifier: MIT\npragma solidity >=0.4.2;\n\nimport \"@openzeppelin/contracts/utils/Strings.sol\";\nimport \"@openzeppelin/contracts/access/AccessControl.sol\";\n\n\ncontract IdChain is AccessControl {\n\n    //address admin\n    bytes32 private constant ADMIN_ROLE = keccak256(\"ADMIN_ROLE\");\n\n    //Model a IdCard\n    struct IdCard{\n        string name;\n        string surname;\n        string birthDate;\n        string birthPlace;\n        string fiscalCode;\n        string homeAddress;\n        string city;\n        string province;\n        string cap;\n        string phone;\n        uint dataScadenza;\n        string password;\n    }\n\n    event IdCardScaduta(\n        string message\n    );\n\n    event createdIdCard(\n        string name,\n        string surname,\n        string fiscalCode,\n        uint dataScadenza\n    );\n\n    event renewedIdCard(\n        string name,\n        string surname,\n        string fiscalCode,\n        uint dataScadenza\n    );\n\n    \n\n    //Store the IdCards\n    //Utilizza gli address come chiave\n    //non public per evitare che si possano vedere tutte le IdCards di altre persone\n    mapping(address => IdCard) private idCards;\n\n    //mapping che contiene tutti codici fiscali registrati associati all'address che l'hanno registrato1\n    mapping(string => address) private registeredCF;\n\n    //Store IdCards Count\n    uint public idCardsCount;\n\n    constructor(){\n        idCardsCount = 0;\n        idCardsCount++;\n        //Crea una IdCard gi scaduta per testare il controllo sulla data di scadenza\n        idCards[0xCd3dAE09E94aad0bc8e2Bce8d5905384FE838c8E] = IdCard(\"Test\", \"Test1\", \"24/03/2000\", \"Avellino\", \"MRSNDR0022\", \"Via Via Via\",\n         \"Avellino\", \"AV\", \"83100\", \"3311242336\", 1642690626, \"0xb68fe43f0d1a0d7aef123722670be50268e15365401c442f8806ef83b612976b\");\n        registeredCF[\"MRSNDR0022\"] = 0xCd3dAE09E94aad0bc8e2Bce8d5905384FE838c8E;\n        //aggiunge l'address che ha creato il contratto come admin\n        _grantRole(ADMIN_ROLE, msg.sender);\n    }\n\n    //crea una nuova IdCard\n    function createIdCard(string memory _name, string memory _surname,\n     string memory _birthDate, string memory _birthPlace, string memory _fiscalCode,\n      string memory _homeAddress, string memory _city, string memory _province,\n       string memory _cap, string memory _phone, string memory _password) public returns (string memory){\n        //Require a valid name\n        require(bytes(_name).length > 0);\n        //Require a valid surname\n        require(bytes(_surname).length > 0);\n        //Require a valid birthDate\n        require(bytes(_birthDate).length > 0);\n        //Require a valid birthPlace\n        require(bytes(_birthPlace).length > 0);\n        //Require a valid fiscalCode\n        require(bytes(_fiscalCode).length > 0);\n        //Require a valid homeAddress\n        require(bytes(_homeAddress).length > 0);\n        //Require a valid city\n        require(bytes(_city).length > 0);\n        //Require a valid province\n        require(bytes(_province).length > 0);\n        //Require a valid cap\n        require(bytes(_cap).length > 0);\n        //Require a valid phone\n        require(bytes(_phone).length > 0);\n\n        //require that the fiscalCode is not already registered\n        if(registeredCF[_fiscalCode] != address(0)){\n            return \"CFAlreadyRegistered\";\n        }\n\n        //require(registeredCF[_fiscalCode] == address(0));\n\n\n        //Increment IdCards Count\n        idCardsCount ++;\n\n        //calcola la data di scadenza\n        uint dataScadenzaInt = block.timestamp + (10 * 365 days);\n\n        //Create the IdCard\n        idCards[msg.sender] = IdCard(_name, _surname, _birthDate, _birthPlace, _fiscalCode, _homeAddress,\n         _city, _province, _cap, _phone, dataScadenzaInt, _password);\n\n        //Aggiunge il codice fiscale alla lista dei codici fiscali registrati\n        registeredCF[_fiscalCode] = msg.sender;\n\n        //Trigger an event\n        emit createdIdCard(_name, _surname, _fiscalCode, dataScadenzaInt);\n        return \"success\";\n    }\n\n    //Delete an IdCard\n    function deleteIdCard(string memory _password) public returns (string memory) {\n        //Require a valid address\n        require(msg.sender != address(0));\n\n        IdCard memory idCard = idCards[msg.sender];\n        string memory cf = idCard.fiscalCode;\n\n        if(bytes(idCard.name).length == 0){\n            return \"cardNotFound\";\n        }\n\n\n        if(keccak256(abi.encodePacked(idCard.password)) != keccak256(abi.encodePacked(_password))){\n            return \"errorPassword\";\n        }\n\n        //Delete the IdCard\n        delete idCards[msg.sender];\n        delete registeredCF[cf];\n        //Decrement IdCards Count\n        idCardsCount --;\n\n        return \"cardDeleteSuccess\";\n    }\n\n    //Read an IdCard\n    function readIdCard(string memory _cf, string memory _password) public view returns (string memory){\n\n        //address da leggere\n        address addressToRead;\n\n        //controllo su address admin\n        if(hasRole(ADMIN_ROLE, msg.sender)){\n            //controllo se il codice fiscale  registrato\n            require(registeredCF[_cf] != address(0));\n            addressToRead = registeredCF[_cf];\n        }else{\n            addressToRead = msg.sender;\n        }\n\n        //Require a valid address\n        require(addressToRead != address(0));\n        \n        //Return the IdCard\n        IdCard memory idCard = idCards[addressToRead];\n\n        if(bytes(idCard.name).length == 0){\n            return \"cardNotFound\";\n        }\n\n        //controllo sulla password\n        if(!hasRole(ADMIN_ROLE, msg.sender)){\n            if(keccak256(abi.encodePacked(idCard.password)) != keccak256(abi.encodePacked(_password))){\n                return \"errorPassword\";\n            }\n        }\n\n        //controllo sulla data di scadenza\n        if(!hasRole(ADMIN_ROLE, msg.sender)){\n            if(block.timestamp > idCard.dataScadenza){\n                return \"expireCard\";\n            }\n        }\n        \n        return (string(abi.encodePacked(idCard.name,\"//\",idCard.surname ,\"//\" ,idCard.birthDate ,\"//\" ,idCard.birthPlace ,\"//\"\n          ,idCard.fiscalCode ,\"//\" ,idCard.homeAddress ,\"//\" ,idCard.city ,\"//\" ,idCard.province ,\"//\"\n           ,idCard.cap ,\"//\" ,idCard.phone ,\"//\" ,Strings.toString(idCard.dataScadenza)))) ;\n    }\n\n    //Authorize with IdCard\n    //Metodo a cui viene passato l'address e che va a verificare la scadenza della card e restituisce un messaggio\n    function authorize(string memory _password) public view returns (string memory){\n        //Require a valid address\n        require(msg.sender != address(0));\n        \n        IdCard memory idCard = idCards[msg.sender];\n\n        if(bytes(idCard.name).length == 0){\n            return \"cardNotFound\";\n        }\n\n\n        if(keccak256(abi.encodePacked(idCard.password)) != keccak256(abi.encodePacked(_password))){\n            return \"errorPassword\";\n        }\n\n\n        if(block.timestamp > idCard.dataScadenza){\n            return \"expireCard\";\n        }else{\n            return \"Autorizzato\";\n        }\n\n    }\n\n    //funzione per rinnovare la carta (rigenera la data di scadenza)\n    function renewIdCard(string memory _password) public returns (string memory){\n        //Require a valid address\n        require(msg.sender != address(0));\n        \n        IdCard memory idCard = idCards[msg.sender];\n\n        if(bytes(idCard.name).length == 0){\n            return \"cardNotFound\";\n        }\n\n        if(keccak256(abi.encodePacked(idCard.password)) != keccak256(abi.encodePacked(_password))){\n            return \"errorPassword\";\n        }\n\n        //calcola la data di scadenza\n        uint dataScadenzaInt = block.timestamp + (10 * 365 days);\n\n        delete idCards[msg.sender];\n\n        idCards[msg.sender] = IdCard(idCard.name, idCard.surname, idCard.birthDate, idCard.birthPlace, idCard.fiscalCode, idCard.homeAddress,\n         idCard.city, idCard.province, idCard.cap, idCard.phone, dataScadenzaInt, idCard.password);\n\n        //Trigger an event\n        emit renewedIdCard(idCard.name, idCard.surname, idCard.fiscalCode, idCard.dataScadenza);\n\n        return \"cardRenewSuccess\";\n    }\n\n    function isAdmin() public view returns (bool){\n        return hasRole(ADMIN_ROLE, msg.sender);\n    }\n\n\n\n\n\n}\n",
  "sourcePath": "/Users/ater/Documents/Progetti/Web3/idChain/contracts/IdChain.sol",
  "compiler": {
    "name": "solc",
    "version": "0.8.18+commit.87f61d96.Emscripten.clang"
  },
  "schemaVersion": "3.4.11",
  "updatedAt": "2023-02-03T10:26:48.712Z",
  "networkType": "ethereum",
  "devdoc": {
    "events": {
      "RoleAdminChanged(bytes32,bytes32,bytes32)": {
        "details": "Emitted when `newAdminRole` is set as ``role``'s admin role, replacing `previousAdminRole` `DEFAULT_ADMIN_ROLE` is the starting admin for all roles, despite {RoleAdminChanged} not being emitted signaling this. _Available since v3.1._"
      },
      "RoleGranted(bytes32,address,address)": {
        "details": "Emitted when `account` is granted `role`. `sender` is the account that originated the contract call, an admin role bearer except when using {AccessControl-_setupRole}."
      },
      "RoleRevoked(bytes32,address,address)": {
        "details": "Emitted when `account` is revoked `role`. `sender` is the account that originated the contract call:   - if using `revokeRole`, it is the admin role bearer   - if using `renounceRole`, it is the role bearer (i.e. `account`)"
      }
    },
    "kind": "dev",
    "methods": {
      "getRoleAdmin(bytes32)": {
        "details": "Returns the admin role that controls `role`. See {grantRole} and {revokeRole}. To change a role's admin, use {_setRoleAdmin}."
      },
      "grantRole(bytes32,address)": {
        "details": "Grants `role` to `account`. If `account` had not been already granted `role`, emits a {RoleGranted} event. Requirements: - the caller must have ``role``'s admin role. May emit a {RoleGranted} event."
      },
      "hasRole(bytes32,address)": {
        "details": "Returns `true` if `account` has been granted `role`."
      },
      "renounceRole(bytes32,address)": {
        "details": "Revokes `role` from the calling account. Roles are often managed via {grantRole} and {revokeRole}: this function's purpose is to provide a mechanism for accounts to lose their privileges if they are compromised (such as when a trusted device is misplaced). If the calling account had been revoked `role`, emits a {RoleRevoked} event. Requirements: - the caller must be `account`. May emit a {RoleRevoked} event."
      },
      "revokeRole(bytes32,address)": {
        "details": "Revokes `role` from `account`. If `account` had been granted `role`, emits a {RoleRevoked} event. Requirements: - the caller must have ``role``'s admin role. May emit a {RoleRevoked} event."
      },
      "supportsInterface(bytes4)": {
        "details": "See {IERC165-supportsInterface}."
      }
    },
    "version": 1
  },
  "userdoc": {
    "kind": "user",
    "methods": {},
    "version": 1
  }
}