{
  "contractName": "IdChain",
  "abi": [
    {
      "inputs": [],
      "stateMutability": "nonpayable",
      "type": "constructor"
    },
    {
      "anonymous": false,
      "inputs": [
        {
          "indexed": false,
          "internalType": "string",
          "name": "message",
          "type": "string"
        }
      ],
      "name": "IdCardScaduta",
      "type": "event"
    },
    {
      "anonymous": false,
      "inputs": [
        {
          "indexed": true,
          "internalType": "bytes32",
          "name": "role",
          "type": "bytes32"
        },
        {
          "indexed": true,
          "internalType": "bytes32",
          "name": "previousAdminRole",
          "type": "bytes32"
        },
        {
          "indexed": true,
          "internalType": "bytes32",
          "name": "newAdminRole",
          "type": "bytes32"
        }
      ],
      "name": "RoleAdminChanged",
      "type": "event"
    },
    {
      "anonymous": false,
      "inputs": [
        {
          "indexed": true,
          "internalType": "bytes32",
          "name": "role",
          "type": "bytes32"
        },
        {
          "indexed": true,
          "internalType": "address",
          "name": "account",
          "type": "address"
        },
        {
          "indexed": true,
          "internalType": "address",
          "name": "sender",
          "type": "address"
        }
      ],
      "name": "RoleGranted",
      "type": "event"
    },
    {
      "anonymous": false,
      "inputs": [
        {
          "indexed": true,
          "internalType": "bytes32",
          "name": "role",
          "type": "bytes32"
        },
        {
          "indexed": true,
          "internalType": "address",
          "name": "account",
          "type": "address"
        },
        {
          "indexed": true,
          "internalType": "address",
          "name": "sender",
          "type": "address"
        }
      ],
      "name": "RoleRevoked",
      "type": "event"
    },
    {
      "anonymous": false,
      "inputs": [
        {
          "indexed": false,
          "internalType": "string",
          "name": "name",
          "type": "string"
        },
        {
          "indexed": false,
          "internalType": "string",
          "name": "surname",
          "type": "string"
        },
        {
          "indexed": false,
          "internalType": "string",
          "name": "fiscalCode",
          "type": "string"
        },
        {
          "indexed": false,
          "internalType": "uint256",
          "name": "dataScadenza",
          "type": "uint256"
        }
      ],
      "name": "createdIdCard",
      "type": "event"
    },
    {
      "anonymous": false,
      "inputs": [
        {
          "indexed": false,
          "internalType": "string",
          "name": "name",
          "type": "string"
        },
        {
          "indexed": false,
          "internalType": "string",
          "name": "surname",
          "type": "string"
        },
        {
          "indexed": false,
          "internalType": "string",
          "name": "fiscalCode",
          "type": "string"
        },
        {
          "indexed": false,
          "internalType": "uint256",
          "name": "dataScadenza",
          "type": "uint256"
        }
      ],
      "name": "renewedIdCard",
      "type": "event"
    },
    {
      "inputs": [],
      "name": "DEFAULT_ADMIN_ROLE",
      "outputs": [
        {
          "internalType": "bytes32",
          "name": "",
          "type": "bytes32"
        }
      ],
      "stateMutability": "view",
      "type": "function",
      "constant": true
    },
    {
      "inputs": [
        {
          "internalType": "bytes32",
          "name": "role",
          "type": "bytes32"
        }
      ],
      "name": "getRoleAdmin",
      "outputs": [
        {
          "internalType": "bytes32",
          "name": "",
          "type": "bytes32"
        }
      ],
      "stateMutability": "view",
      "type": "function",
      "constant": true
    },
    {
      "inputs": [
        {
          "internalType": "bytes32",
          "name": "role",
          "type": "bytes32"
        },
        {
          "internalType": "address",
          "name": "account",
          "type": "address"
        }
      ],
      "name": "grantRole",
      "outputs": [],
      "stateMutability": "nonpayable",
      "type": "function"
    },
    {
      "inputs": [
        {
          "internalType": "bytes32",
          "name": "role",
          "type": "bytes32"
        },
        {
          "internalType": "address",
          "name": "account",
          "type": "address"
        }
      ],
      "name": "hasRole",
      "outputs": [
        {
          "internalType": "bool",
          "name": "",
          "type": "bool"
        }
      ],
      "stateMutability": "view",
      "type": "function",
      "constant": true
    },
    {
      "inputs": [],
      "name": "idCardsCount",
      "outputs": [
        {
          "internalType": "uint256",
          "name": "",
          "type": "uint256"
        }
      ],
      "stateMutability": "view",
      "type": "function",
      "constant": true
    },
    {
      "inputs": [
        {
          "internalType": "bytes32",
          "name": "role",
          "type": "bytes32"
        },
        {
          "internalType": "address",
          "name": "account",
          "type": "address"
        }
      ],
      "name": "renounceRole",
      "outputs": [],
      "stateMutability": "nonpayable",
      "type": "function"
    },
    {
      "inputs": [
        {
          "internalType": "bytes32",
          "name": "role",
          "type": "bytes32"
        },
        {
          "internalType": "address",
          "name": "account",
          "type": "address"
        }
      ],
      "name": "revokeRole",
      "outputs": [],
      "stateMutability": "nonpayable",
      "type": "function"
    },
    {
      "inputs": [
        {
          "internalType": "bytes4",
          "name": "interfaceId",
          "type": "bytes4"
        }
      ],
      "name": "supportsInterface",
      "outputs": [
        {
          "internalType": "bool",
          "name": "",
          "type": "bool"
        }
      ],
      "stateMutability": "view",
      "type": "function",
      "constant": true
    },
    {
      "inputs": [
        {
          "internalType": "string",
          "name": "_name",
          "type": "string"
        },
        {
          "internalType": "string",
          "name": "_surname",
          "type": "string"
        },
        {
          "internalType": "string",
          "name": "_birthDate",
          "type": "string"
        },
        {
          "internalType": "string",
          "name": "_birthPlace",
          "type": "string"
        },
        {
          "internalType": "string",
          "name": "_fiscalCode",
          "type": "string"
        },
        {
          "internalType": "string",
          "name": "_homeAddress",
          "type": "string"
        },
        {
          "internalType": "string",
          "name": "_city",
          "type": "string"
        },
        {
          "internalType": "string",
          "name": "_province",
          "type": "string"
        },
        {
          "internalType": "string",
          "name": "_cap",
          "type": "string"
        },
        {
          "internalType": "string",
          "name": "_phone",
          "type": "string"
        },
        {
          "internalType": "string",
          "name": "_password",
          "type": "string"
        }
      ],
      "name": "createIdCard",
      "outputs": [],
      "stateMutability": "nonpayable",
      "type": "function"
    },
    {
      "inputs": [
        {
          "internalType": "string",
          "name": "_password",
          "type": "string"
        }
      ],
      "name": "deleteIdCard",
      "outputs": [
        {
          "internalType": "string",
          "name": "",
          "type": "string"
        }
      ],
      "stateMutability": "nonpayable",
      "type": "function"
    },
    {
      "inputs": [
        {
          "internalType": "string",
          "name": "_cf",
          "type": "string"
        },
        {
          "internalType": "string",
          "name": "_password",
          "type": "string"
        }
      ],
      "name": "readIdCard",
      "outputs": [
        {
          "internalType": "string",
          "name": "",
          "type": "string"
        }
      ],
      "stateMutability": "view",
      "type": "function",
      "constant": true
    },
    {
      "inputs": [
        {
          "internalType": "string",
          "name": "_password",
          "type": "string"
        }
      ],
      "name": "authorize",
      "outputs": [
        {
          "internalType": "string",
          "name": "",
          "type": "string"
        }
      ],
      "stateMutability": "view",
      "type": "function",
      "constant": true
    },
    {
      "inputs": [
        {
          "internalType": "string",
          "name": "_password",
          "type": "string"
        }
      ],
      "name": "renewIdCard",
      "outputs": [
        {
          "internalType": "string",
          "name": "",
          "type": "string"
        }
      ],
      "stateMutability": "nonpayable",
      "type": "function"
    }
  ],
  "bytecode": "0x60806040523480156200001157600080fd5b5060006003819055506040518061018001604052806040518060400160405280600481526020017f546573740000000000000000000000000000000000000000000000000000000081525081526020016040518060400160405280600581526020017f546573743100000000000000000000000000000000000000000000000000000081525081526020016040518060400160405280600a81526020017f32342f30332f323030300000000000000000000000000000000000000000000081525081526020016040518060400160405280600881526020017f4176656c6c696e6f00000000000000000000000000000000000000000000000081525081526020016040518060400160405280600a81526020017f4d52534e4452303032320000000000000000000000000000000000000000000081525081526020016040518060400160405280600b81526020017f566961205669612056696100000000000000000000000000000000000000000081525081526020016040518060400160405280600881526020017f4176656c6c696e6f00000000000000000000000000000000000000000000000081525081526020016040518060400160405280600281526020017f415600000000000000000000000000000000000000000000000000000000000081525081526020016040518060400160405280600581526020017f383331303000000000000000000000000000000000000000000000000000000081525081526020016040518060400160405280600a81526020017f333331313234323333360000000000000000000000000000000000000000000081525081526020016361e97842815260200160405180606001604052806040815260200162004f1a604091398152506001600073cd3dae09e94aad0bc8e2bce8d5905384fe838c8e73ffffffffffffffffffffffffffffffffffffffff1673ffffffffffffffffffffffffffffffffffffffff16815260200190815260200160002060008201518160000190816200030591906200088d565b5060208201518160010190816200031d91906200088d565b5060408201518160020190816200033591906200088d565b5060608201518160030190816200034d91906200088d565b5060808201518160040190816200036591906200088d565b5060a08201518160050190816200037d91906200088d565b5060c08201518160060190816200039591906200088d565b5060e0820151816007019081620003ad91906200088d565b50610100820151816008019081620003c691906200088d565b50610120820151816009019081620003df91906200088d565b5061014082015181600a015561016082015181600b0190816200040391906200088d565b5090505073cd3dae09e94aad0bc8e2bce8d5905384fe838c8e60026040516200042c90620009cf565b908152602001604051809103902060006101000a81548173ffffffffffffffffffffffffffffffffffffffff021916908373ffffffffffffffffffffffffffffffffffffffff160217905550620004aa7fa49807205ce4d355092ef5a8a18f56e8913cf4a201fbe287825b095693c2177533620004b060201b60201c565b620009e6565b620004c28282620005a160201b60201c565b6200059d57600160008084815260200190815260200160002060000160008373ffffffffffffffffffffffffffffffffffffffff1673ffffffffffffffffffffffffffffffffffffffff16815260200190815260200160002060006101000a81548160ff021916908315150217905550620005426200060b60201b60201c565b73ffffffffffffffffffffffffffffffffffffffff168173ffffffffffffffffffffffffffffffffffffffff16837f2f8788117e7eff1d82e926ec794901d17c78024a50270940304540a733656f0d60405160405180910390a45b5050565b600080600084815260200190815260200160002060000160008373ffffffffffffffffffffffffffffffffffffffff1673ffffffffffffffffffffffffffffffffffffffff16815260200190815260200160002060009054906101000a900460ff16905092915050565b600033905090565b600081519050919050565b7f4e487b7100000000000000000000000000000000000000000000000000000000600052604160045260246000fd5b7f4e487b7100000000000000000000000000000000000000000000000000000000600052602260045260246000fd5b600060028204905060018216806200069557607f821691505b602082108103620006ab57620006aa6200064d565b5b50919050565b60008190508160005260206000209050919050565b60006020601f8301049050919050565b600082821b905092915050565b600060088302620007157fffffffffffffffffffffffffffffffffffffffffffffffffffffffffffffffff82620006d6565b620007218683620006d6565b95508019841693508086168417925050509392505050565b6000819050919050565b6000819050919050565b60006200076e62000768620007628462000739565b62000743565b62000739565b9050919050565b6000819050919050565b6200078a836200074d565b620007a2620007998262000775565b848454620006e3565b825550505050565b600090565b620007b9620007aa565b620007c68184846200077f565b505050565b5b81811015620007ee57620007e2600082620007af565b600181019050620007cc565b5050565b601f8211156200083d576200080781620006b1565b6200081284620006c6565b8101602085101562000822578190505b6200083a6200083185620006c6565b830182620007cb565b50505b505050565b600082821c905092915050565b6000620008626000198460080262000842565b1980831691505092915050565b60006200087d83836200084f565b9150826002028217905092915050565b620008988262000613565b67ffffffffffffffff811115620008b457620008b36200061e565b5b620008c082546200067c565b620008cd828285620007f2565b600060209050601f831160018114620009055760008415620008f0578287015190505b620008fc85826200086f565b8655506200096c565b601f1984166200091586620006b1565b60005b828110156200093f5784890151825560018201915060208501945060208101905062000918565b868310156200095f57848901516200095b601f8916826200084f565b8355505b6001600288020188555050505b505050505050565b600081905092915050565b7f4d52534e44523030323200000000000000000000000000000000000000000000600082015250565b6000620009b7600a8362000974565b9150620009c4826200097f565b600a82019050919050565b6000620009dc82620009a8565b9150819050919050565b61452480620009f66000396000f3fe608060405234801561001057600080fd5b50600436106100cf5760003560e01c80634f5fcb341161008c578063a217fddf11610066578063a217fddf14610248578063a6a432f714610266578063c583685314610284578063d547741f146102b4576100cf565b80634f5fcb34146101b857806391d14854146101e8578063992a22d214610218576100cf565b806301ffc9a7146100d4578063248a9ca3146101045780632f2ff15d1461013457806335fb3fd31461015057806336568abe1461016c5780633c9e293d14610188575b600080fd5b6100ee60048036038101906100e9919061363a565b6102d0565b6040516100fb9190613682565b60405180910390f35b61011e600480360381019061011991906136d3565b61034a565b60405161012b919061370f565b60405180910390f35b61014e60048036038101906101499190613788565b610369565b005b61016a6004803603810190610165919061390e565b61038a565b005b61018660048036038101906101819190613788565b6106f5565b005b6101a2600480360381019061019d9190613b36565b610778565b6040516101af9190613bfe565b60405180910390f35b6101d260048036038101906101cd9190613b36565b611084565b6040516101df9190613bfe565b60405180910390f35b61020260048036038101906101fd9190613788565b6118c9565b60405161020f9190613682565b60405180910390f35b610232600480360381019061022d9190613c20565b611933565b60405161023f9190613bfe565b60405180910390f35b6102506122d3565b60405161025d919061370f565b60405180910390f35b61026e6122da565b60405161027b9190613cb1565b60405180910390f35b61029e60048036038101906102999190613b36565b6122e0565b6040516102ab9190613bfe565b60405180910390f35b6102ce60048036038101906102c99190613788565b612dfa565b005b60007f7965db0b000000000000000000000000000000000000000000000000000000007bffffffffffffffffffffffffffffffffffffffffffffffffffffffff1916827bffffffffffffffffffffffffffffffffffffffffffffffffffffffff19161480610343575061034282612e1b565b5b9050919050565b6000806000838152602001908152602001600020600101549050919050565b6103728261034a565b61037b81612e85565b6103858383612e99565b505050565b600073ffffffffffffffffffffffffffffffffffffffff166002886040516103b29190613d08565b908152602001604051809103902060009054906101000a900473ffffffffffffffffffffffffffffffffffffffff1673ffffffffffffffffffffffffffffffffffffffff161461040157600080fd5b60008b511161040f57600080fd5b60008a511161041d57600080fd5b600089511161042b57600080fd5b600088511161043957600080fd5b600087511161044757600080fd5b600086511161045557600080fd5b600085511161046357600080fd5b600084511161047157600080fd5b600083511161047f57600080fd5b600082511161048d57600080fd5b600360008154809291906104a090613d4e565b919050555060006312cc0300426104b79190613d96565b90506040518061018001604052808d81526020018c81526020018b81526020018a815260200189815260200188815260200187815260200186815260200185815260200184815260200182815260200183815250600160003373ffffffffffffffffffffffffffffffffffffffff1673ffffffffffffffffffffffffffffffffffffffff168152602001908152602001600020600082015181600001908161055f9190613fd6565b5060208201518160010190816105759190613fd6565b50604082015181600201908161058b9190613fd6565b5060608201518160030190816105a19190613fd6565b5060808201518160040190816105b79190613fd6565b5060a08201518160050190816105cd9190613fd6565b5060c08201518160060190816105e39190613fd6565b5060e08201518160070190816105f99190613fd6565b506101008201518160080190816106109190613fd6565b506101208201518160090190816106279190613fd6565b5061014082015181600a015561016082015181600b0190816106499190613fd6565b509050503360028960405161065e9190613d08565b908152602001604051809103902060006101000a81548173ffffffffffffffffffffffffffffffffffffffff021916908373ffffffffffffffffffffffffffffffffffffffff1602179055507fea0e21aa925590127eb9530746cf0f19e2b823e70c4186ee283ad7bad6bf7d698c8c8a846040516106df94939291906140a8565b60405180910390a1505050505050505050505050565b6106fd612f79565b73ffffffffffffffffffffffffffffffffffffffff168173ffffffffffffffffffffffffffffffffffffffff161461076a576040517f08c379a000000000000000000000000000000000000000000000000000000000815260040161076190614174565b60405180910390fd5b6107748282612f81565b5050565b6060600073ffffffffffffffffffffffffffffffffffffffff163373ffffffffffffffffffffffffffffffffffffffff16036107b357600080fd5b6000600160003373ffffffffffffffffffffffffffffffffffffffff1673ffffffffffffffffffffffffffffffffffffffff1681526020019081526020016000206040518061018001604052908160008201805461081090613df9565b80601f016020809104026020016040519081016040528092919081815260200182805461083c90613df9565b80156108895780601f1061085e57610100808354040283529160200191610889565b820191906000526020600020905b81548152906001019060200180831161086c57829003601f168201915b505050505081526020016001820180546108a290613df9565b80601f01602080910402602001604051908101604052809291908181526020018280546108ce90613df9565b801561091b5780601f106108f05761010080835404028352916020019161091b565b820191906000526020600020905b8154815290600101906020018083116108fe57829003601f168201915b5050505050815260200160028201805461093490613df9565b80601f016020809104026020016040519081016040528092919081815260200182805461096090613df9565b80156109ad5780601f10610982576101008083540402835291602001916109ad565b820191906000526020600020905b81548152906001019060200180831161099057829003601f168201915b505050505081526020016003820180546109c690613df9565b80601f01602080910402602001604051908101604052809291908181526020018280546109f290613df9565b8015610a3f5780601f10610a1457610100808354040283529160200191610a3f565b820191906000526020600020905b815481529060010190602001808311610a2257829003601f168201915b50505050508152602001600482018054610a5890613df9565b80601f0160208091040260200160405190810160405280929190818152602001828054610a8490613df9565b8015610ad15780601f10610aa657610100808354040283529160200191610ad1565b820191906000526020600020905b815481529060010190602001808311610ab457829003601f168201915b50505050508152602001600582018054610aea90613df9565b80601f0160208091040260200160405190810160405280929190818152602001828054610b1690613df9565b8015610b635780601f10610b3857610100808354040283529160200191610b63565b820191906000526020600020905b815481529060010190602001808311610b4657829003601f168201915b50505050508152602001600682018054610b7c90613df9565b80601f0160208091040260200160405190810160405280929190818152602001828054610ba890613df9565b8015610bf55780601f10610bca57610100808354040283529160200191610bf5565b820191906000526020600020905b815481529060010190602001808311610bd857829003601f168201915b50505050508152602001600782018054610c0e90613df9565b80601f0160208091040260200160405190810160405280929190818152602001828054610c3a90613df9565b8015610c875780601f10610c5c57610100808354040283529160200191610c87565b820191906000526020600020905b815481529060010190602001808311610c6a57829003601f168201915b50505050508152602001600882018054610ca090613df9565b80601f0160208091040260200160405190810160405280929190818152602001828054610ccc90613df9565b8015610d195780601f10610cee57610100808354040283529160200191610d19565b820191906000526020600020905b815481529060010190602001808311610cfc57829003601f168201915b50505050508152602001600982018054610d3290613df9565b80601f0160208091040260200160405190810160405280929190818152602001828054610d5e90613df9565b8015610dab5780601f10610d8057610100808354040283529160200191610dab565b820191906000526020600020905b815481529060010190602001808311610d8e57829003601f168201915b50505050508152602001600a8201548152602001600b82018054610dce90613df9565b80601f0160208091040260200160405190810160405280929190818152602001828054610dfa90613df9565b8015610e475780601f10610e1c57610100808354040283529160200191610e47565b820191906000526020600020905b815481529060010190602001808311610e2a57829003601f168201915b5050505050815250509050600081600001515103610e9d576040518060400160405280600c81526020017f636172644e6f74466f756e64000000000000000000000000000000000000000081525091505061107f565b82604051602001610eae9190613d08565b60405160208183030381529060405280519060200120816101600151604051602001610eda9190613d08565b6040516020818303038152906040528051906020012014610f33576040518060400160405280600d81526020017f6572726f7250617373776f72640000000000000000000000000000000000000081525091505061107f565b600160003373ffffffffffffffffffffffffffffffffffffffff1673ffffffffffffffffffffffffffffffffffffffff16815260200190815260200160002060008082016000610f839190613571565b600182016000610f939190613571565b600282016000610fa39190613571565b600382016000610fb39190613571565b600482016000610fc39190613571565b600582016000610fd39190613571565b600682016000610fe39190613571565b600782016000610ff39190613571565b6008820160006110039190613571565b6009820160006110139190613571565b600a820160009055600b8201600061102b9190613571565b50506003600081548092919061104090614194565b91905055506040518060400160405280601181526020017f6361726444656c657465537563636573730000000000000000000000000000008152509150505b919050565b6060600073ffffffffffffffffffffffffffffffffffffffff163373ffffffffffffffffffffffffffffffffffffffff16036110bf57600080fd5b6000600160003373ffffffffffffffffffffffffffffffffffffffff1673ffffffffffffffffffffffffffffffffffffffff1681526020019081526020016000206040518061018001604052908160008201805461111c90613df9565b80601f016020809104026020016040519081016040528092919081815260200182805461114890613df9565b80156111955780601f1061116a57610100808354040283529160200191611195565b820191906000526020600020905b81548152906001019060200180831161117857829003601f168201915b505050505081526020016001820180546111ae90613df9565b80601f01602080910402602001604051908101604052809291908181526020018280546111da90613df9565b80156112275780601f106111fc57610100808354040283529160200191611227565b820191906000526020600020905b81548152906001019060200180831161120a57829003601f168201915b5050505050815260200160028201805461124090613df9565b80601f016020809104026020016040519081016040528092919081815260200182805461126c90613df9565b80156112b95780601f1061128e576101008083540402835291602001916112b9565b820191906000526020600020905b81548152906001019060200180831161129c57829003601f168201915b505050505081526020016003820180546112d290613df9565b80601f01602080910402602001604051908101604052809291908181526020018280546112fe90613df9565b801561134b5780601f106113205761010080835404028352916020019161134b565b820191906000526020600020905b81548152906001019060200180831161132e57829003601f168201915b5050505050815260200160048201805461136490613df9565b80601f016020809104026020016040519081016040528092919081815260200182805461139090613df9565b80156113dd5780601f106113b2576101008083540402835291602001916113dd565b820191906000526020600020905b8154815290600101906020018083116113c057829003601f168201915b505050505081526020016005820180546113f690613df9565b80601f016020809104026020016040519081016040528092919081815260200182805461142290613df9565b801561146f5780601f106114445761010080835404028352916020019161146f565b820191906000526020600020905b81548152906001019060200180831161145257829003601f168201915b5050505050815260200160068201805461148890613df9565b80601f01602080910402602001604051908101604052809291908181526020018280546114b490613df9565b80156115015780601f106114d657610100808354040283529160200191611501565b820191906000526020600020905b8154815290600101906020018083116114e457829003601f168201915b5050505050815260200160078201805461151a90613df9565b80601f016020809104026020016040519081016040528092919081815260200182805461154690613df9565b80156115935780601f1061156857610100808354040283529160200191611593565b820191906000526020600020905b81548152906001019060200180831161157657829003601f168201915b505050505081526020016008820180546115ac90613df9565b80601f01602080910402602001604051908101604052809291908181526020018280546115d890613df9565b80156116255780601f106115fa57610100808354040283529160200191611625565b820191906000526020600020905b81548152906001019060200180831161160857829003601f168201915b5050505050815260200160098201805461163e90613df9565b80601f016020809104026020016040519081016040528092919081815260200182805461166a90613df9565b80156116b75780601f1061168c576101008083540402835291602001916116b7565b820191906000526020600020905b81548152906001019060200180831161169a57829003601f168201915b50505050508152602001600a8201548152602001600b820180546116da90613df9565b80601f016020809104026020016040519081016040528092919081815260200182805461170690613df9565b80156117535780601f1061172857610100808354040283529160200191611753565b820191906000526020600020905b81548152906001019060200180831161173657829003601f168201915b50505050508152505090506000816000015151036117a9576040518060400160405280600c81526020017f636172644e6f74466f756e6400000000000000000000000000000000000000008152509150506118c4565b826040516020016117ba9190613d08565b604051602081830303815290604052805190602001208161016001516040516020016117e69190613d08565b604051602081830303815290604052805190602001201461183f576040518060400160405280600d81526020017f6572726f7250617373776f7264000000000000000000000000000000000000008152509150506118c4565b80610140015142111561188a576040518060400160405280600a81526020017f65787069726543617264000000000000000000000000000000000000000000008152509150506118c4565b6040518060400160405280600b81526020017f4175746f72697a7a61746f0000000000000000000000000000000000000000008152509150505b919050565b600080600084815260200190815260200160002060000160008373ffffffffffffffffffffffffffffffffffffffff1673ffffffffffffffffffffffffffffffffffffffff16815260200190815260200160002060009054906101000a900460ff16905092915050565b606060006119617fa49807205ce4d355092ef5a8a18f56e8913cf4a201fbe287825b095693c21775336118c9565b15611a2357600073ffffffffffffffffffffffffffffffffffffffff1660028560405161198e9190613d08565b908152602001604051809103902060009054906101000a900473ffffffffffffffffffffffffffffffffffffffff1673ffffffffffffffffffffffffffffffffffffffff16036119dd57600080fd5b6002846040516119ed9190613d08565b908152602001604051809103902060009054906101000a900473ffffffffffffffffffffffffffffffffffffffff169050611a27565b3390505b600073ffffffffffffffffffffffffffffffffffffffff168173ffffffffffffffffffffffffffffffffffffffff1603611a6057600080fd5b6000600160008373ffffffffffffffffffffffffffffffffffffffff1673ffffffffffffffffffffffffffffffffffffffff16815260200190815260200160002060405180610180016040529081600082018054611abd90613df9565b80601f0160208091040260200160405190810160405280929190818152602001828054611ae990613df9565b8015611b365780601f10611b0b57610100808354040283529160200191611b36565b820191906000526020600020905b815481529060010190602001808311611b1957829003601f168201915b50505050508152602001600182018054611b4f90613df9565b80601f0160208091040260200160405190810160405280929190818152602001828054611b7b90613df9565b8015611bc85780601f10611b9d57610100808354040283529160200191611bc8565b820191906000526020600020905b815481529060010190602001808311611bab57829003601f168201915b50505050508152602001600282018054611be190613df9565b80601f0160208091040260200160405190810160405280929190818152602001828054611c0d90613df9565b8015611c5a5780601f10611c2f57610100808354040283529160200191611c5a565b820191906000526020600020905b815481529060010190602001808311611c3d57829003601f168201915b50505050508152602001600382018054611c7390613df9565b80601f0160208091040260200160405190810160405280929190818152602001828054611c9f90613df9565b8015611cec5780601f10611cc157610100808354040283529160200191611cec565b820191906000526020600020905b815481529060010190602001808311611ccf57829003601f168201915b50505050508152602001600482018054611d0590613df9565b80601f0160208091040260200160405190810160405280929190818152602001828054611d3190613df9565b8015611d7e5780601f10611d5357610100808354040283529160200191611d7e565b820191906000526020600020905b815481529060010190602001808311611d6157829003601f168201915b50505050508152602001600582018054611d9790613df9565b80601f0160208091040260200160405190810160405280929190818152602001828054611dc390613df9565b8015611e105780601f10611de557610100808354040283529160200191611e10565b820191906000526020600020905b815481529060010190602001808311611df357829003601f168201915b50505050508152602001600682018054611e2990613df9565b80601f0160208091040260200160405190810160405280929190818152602001828054611e5590613df9565b8015611ea25780601f10611e7757610100808354040283529160200191611ea2565b820191906000526020600020905b815481529060010190602001808311611e8557829003601f168201915b50505050508152602001600782018054611ebb90613df9565b80601f0160208091040260200160405190810160405280929190818152602001828054611ee790613df9565b8015611f345780601f10611f0957610100808354040283529160200191611f34565b820191906000526020600020905b815481529060010190602001808311611f1757829003601f168201915b50505050508152602001600882018054611f4d90613df9565b80601f0160208091040260200160405190810160405280929190818152602001828054611f7990613df9565b8015611fc65780601f10611f9b57610100808354040283529160200191611fc6565b820191906000526020600020905b815481529060010190602001808311611fa957829003601f168201915b50505050508152602001600982018054611fdf90613df9565b80601f016020809104026020016040519081016040528092919081815260200182805461200b90613df9565b80156120585780601f1061202d57610100808354040283529160200191612058565b820191906000526020600020905b81548152906001019060200180831161203b57829003601f168201915b50505050508152602001600a8201548152602001600b8201805461207b90613df9565b80601f01602080910402602001604051908101604052809291908181526020018280546120a790613df9565b80156120f45780601f106120c9576101008083540402835291602001916120f4565b820191906000526020600020905b8154815290600101906020018083116120d757829003601f168201915b505050505081525050905060008160000151510361214b576040518060400160405280600c81526020017f636172644e6f74466f756e640000000000000000000000000000000000000000815250925050506122cd565b6121757fa49807205ce4d355092ef5a8a18f56e8913cf4a201fbe287825b095693c21775336118c9565b612211578360405160200161218a9190613d08565b604051602081830303815290604052805190602001208161016001516040516020016121b69190613d08565b6040516020818303038152906040528051906020012014612210576040518060400160405280600d81526020017f6572726f7250617373776f726400000000000000000000000000000000000000815250925050506122cd565b5b80610140015142111561225d576040518060400160405280600a81526020017f6578706972654361726400000000000000000000000000000000000000000000815250925050506122cd565b806000015181602001518260400151836060015184608001518560a001518660c001518760e0015188610100015189610120015161229f8b6101400151613062565b6040516020016122b99b9a99989796959493929190614209565b604051602081830303815290604052925050505b92915050565b6000801b81565b60035481565b6060600073ffffffffffffffffffffffffffffffffffffffff163373ffffffffffffffffffffffffffffffffffffffff160361231b57600080fd5b6000600160003373ffffffffffffffffffffffffffffffffffffffff1673ffffffffffffffffffffffffffffffffffffffff1681526020019081526020016000206040518061018001604052908160008201805461237890613df9565b80601f01602080910402602001604051908101604052809291908181526020018280546123a490613df9565b80156123f15780601f106123c6576101008083540402835291602001916123f1565b820191906000526020600020905b8154815290600101906020018083116123d457829003601f168201915b5050505050815260200160018201805461240a90613df9565b80601f016020809104026020016040519081016040528092919081815260200182805461243690613df9565b80156124835780601f1061245857610100808354040283529160200191612483565b820191906000526020600020905b81548152906001019060200180831161246657829003601f168201915b5050505050815260200160028201805461249c90613df9565b80601f01602080910402602001604051908101604052809291908181526020018280546124c890613df9565b80156125155780601f106124ea57610100808354040283529160200191612515565b820191906000526020600020905b8154815290600101906020018083116124f857829003601f168201915b5050505050815260200160038201805461252e90613df9565b80601f016020809104026020016040519081016040528092919081815260200182805461255a90613df9565b80156125a75780601f1061257c576101008083540402835291602001916125a7565b820191906000526020600020905b81548152906001019060200180831161258a57829003601f168201915b505050505081526020016004820180546125c090613df9565b80601f01602080910402602001604051908101604052809291908181526020018280546125ec90613df9565b80156126395780601f1061260e57610100808354040283529160200191612639565b820191906000526020600020905b81548152906001019060200180831161261c57829003601f168201915b5050505050815260200160058201805461265290613df9565b80601f016020809104026020016040519081016040528092919081815260200182805461267e90613df9565b80156126cb5780601f106126a0576101008083540402835291602001916126cb565b820191906000526020600020905b8154815290600101906020018083116126ae57829003601f168201915b505050505081526020016006820180546126e490613df9565b80601f016020809104026020016040519081016040528092919081815260200182805461271090613df9565b801561275d5780601f106127325761010080835404028352916020019161275d565b820191906000526020600020905b81548152906001019060200180831161274057829003601f168201915b5050505050815260200160078201805461277690613df9565b80601f01602080910402602001604051908101604052809291908181526020018280546127a290613df9565b80156127ef5780601f106127c4576101008083540402835291602001916127ef565b820191906000526020600020905b8154815290600101906020018083116127d257829003601f168201915b5050505050815260200160088201805461280890613df9565b80601f016020809104026020016040519081016040528092919081815260200182805461283490613df9565b80156128815780601f1061285657610100808354040283529160200191612881565b820191906000526020600020905b81548152906001019060200180831161286457829003601f168201915b5050505050815260200160098201805461289a90613df9565b80601f01602080910402602001604051908101604052809291908181526020018280546128c690613df9565b80156129135780601f106128e857610100808354040283529160200191612913565b820191906000526020600020905b8154815290600101906020018083116128f657829003601f168201915b50505050508152602001600a8201548152602001600b8201805461293690613df9565b80601f016020809104026020016040519081016040528092919081815260200182805461296290613df9565b80156129af5780601f10612984576101008083540402835291602001916129af565b820191906000526020600020905b81548152906001019060200180831161299257829003601f168201915b5050505050815250509050600081600001515103612a05576040518060400160405280600c81526020017f636172644e6f74466f756e640000000000000000000000000000000000000000815250915050612df5565b82604051602001612a169190613d08565b60405160208183030381529060405280519060200120816101600151604051602001612a429190613d08565b6040516020818303038152906040528051906020012014612a9b576040518060400160405280600d81526020017f6572726f7250617373776f726400000000000000000000000000000000000000815250915050612df5565b60006312cc030042612aad9190613d96565b9050600160003373ffffffffffffffffffffffffffffffffffffffff1673ffffffffffffffffffffffffffffffffffffffff16815260200190815260200160002060008082016000612aff9190613571565b600182016000612b0f9190613571565b600282016000612b1f9190613571565b600382016000612b2f9190613571565b600482016000612b3f9190613571565b600582016000612b4f9190613571565b600682016000612b5f9190613571565b600782016000612b6f9190613571565b600882016000612b7f9190613571565b600982016000612b8f9190613571565b600a820160009055600b82016000612ba79190613571565b505060405180610180016040528083600001518152602001836020015181526020018360400151815260200183606001518152602001836080015181526020018360a0015181526020018360c0015181526020018360e00151815260200183610100015181526020018361012001518152602001828152602001836101600151815250600160003373ffffffffffffffffffffffffffffffffffffffff1673ffffffffffffffffffffffffffffffffffffffff1681526020019081526020016000206000820151816000019081612c7e9190613fd6565b506020820151816001019081612c949190613fd6565b506040820151816002019081612caa9190613fd6565b506060820151816003019081612cc09190613fd6565b506080820151816004019081612cd69190613fd6565b5060a0820151816005019081612cec9190613fd6565b5060c0820151816006019081612d029190613fd6565b5060e0820151816007019081612d189190613fd6565b50610100820151816008019081612d2f9190613fd6565b50610120820151816009019081612d469190613fd6565b5061014082015181600a015561016082015181600b019081612d689190613fd6565b509050507fd7301a1875e612aa83866dfed9015b7be44e76535dfeafbbd5597a022aba92e8826000015183602001518460800151856101400151604051612db294939291906140a8565b60405180910390a16040518060400160405280601081526020017f6361726452656e65775375636365737300000000000000000000000000000000815250925050505b919050565b612e038261034a565b612e0c81612e85565b612e168383612f81565b505050565b60007f01ffc9a7000000000000000000000000000000000000000000000000000000007bffffffffffffffffffffffffffffffffffffffffffffffffffffffff1916827bffffffffffffffffffffffffffffffffffffffffffffffffffffffff1916149050919050565b612e9681612e91612f79565b613130565b50565b612ea382826118c9565b612f7557600160008084815260200190815260200160002060000160008373ffffffffffffffffffffffffffffffffffffffff1673ffffffffffffffffffffffffffffffffffffffff16815260200190815260200160002060006101000a81548160ff021916908315150217905550612f1a612f79565b73ffffffffffffffffffffffffffffffffffffffff168173ffffffffffffffffffffffffffffffffffffffff16837f2f8788117e7eff1d82e926ec794901d17c78024a50270940304540a733656f0d60405160405180910390a45b5050565b600033905090565b612f8b82826118c9565b1561305e57600080600084815260200190815260200160002060000160008373ffffffffffffffffffffffffffffffffffffffff1673ffffffffffffffffffffffffffffffffffffffff16815260200190815260200160002060006101000a81548160ff021916908315150217905550613003612f79565b73ffffffffffffffffffffffffffffffffffffffff168173ffffffffffffffffffffffffffffffffffffffff16837ff6391f5c32d9c69d2a47ea670b442974b53935d1edc7fd64eb21e047a839171b60405160405180910390a45b5050565b606060006001613071846131b5565b01905060008167ffffffffffffffff8111156130905761308f6137e3565b5b6040519080825280601f01601f1916602001820160405280156130c25781602001600182028036833780820191505090505b509050600082602001820190505b600115613125578080600190039150507f3031323334353637383961626364656600000000000000000000000000000000600a86061a8153600a858161311957613118614310565b5b049450600085036130d0575b819350505050919050565b61313a82826118c9565b6131b15761314781613308565b6131558360001c6020613335565b6040516020016131669291906143d7565b6040516020818303038152906040526040517f08c379a00000000000000000000000000000000000000000000000000000000081526004016131a89190613bfe565b60405180910390fd5b5050565b600080600090507a184f03e93ff9f4daa797ed6e38ed64bf6a1f0100000000000000008310613213577a184f03e93ff9f4daa797ed6e38ed64bf6a1f010000000000000000838161320957613208614310565b5b0492506040810190505b6d04ee2d6d415b85acef81000000008310613250576d04ee2d6d415b85acef8100000000838161324657613245614310565b5b0492506020810190505b662386f26fc10000831061327f57662386f26fc10000838161327557613274614310565b5b0492506010810190505b6305f5e10083106132a8576305f5e100838161329e5761329d614310565b5b0492506008810190505b61271083106132cd5761271083816132c3576132c2614310565b5b0492506004810190505b606483106132f057606483816132e6576132e5614310565b5b0492506002810190505b600a83106132ff576001810190505b80915050919050565b606061332e8273ffffffffffffffffffffffffffffffffffffffff16601460ff16613335565b9050919050565b6060600060028360026133489190614411565b6133529190613d96565b67ffffffffffffffff81111561336b5761336a6137e3565b5b6040519080825280601f01601f19166020018201604052801561339d5781602001600182028036833780820191505090505b5090507f3000000000000000000000000000000000000000000000000000000000000000816000815181106133d5576133d4614453565b5b60200101907effffffffffffffffffffffffffffffffffffffffffffffffffffffffffffff1916908160001a9053507f78000000000000000000000000000000000000000000000000000000000000008160018151811061343957613438614453565b5b60200101907effffffffffffffffffffffffffffffffffffffffffffffffffffffffffffff1916908160001a905350600060018460026134799190614411565b6134839190613d96565b90505b6001811115613523577f3031323334353637383961626364656600000000000000000000000000000000600f8616601081106134c5576134c4614453565b5b1a60f81b8282815181106134dc576134db614453565b5b60200101907effffffffffffffffffffffffffffffffffffffffffffffffffffffffffffff1916908160001a905350600485901c94508061351c90614194565b9050613486565b5060008414613567576040517f08c379a000000000000000000000000000000000000000000000000000000000815260040161355e906144ce565b60405180910390fd5b8091505092915050565b50805461357d90613df9565b6000825580601f1061358f57506135ae565b601f0160209004906000526020600020908101906135ad91906135b1565b5b50565b5b808211156135ca5760008160009055506001016135b2565b5090565b6000604051905090565b600080fd5b600080fd5b60007fffffffff0000000000000000000000000000000000000000000000000000000082169050919050565b613617816135e2565b811461362257600080fd5b50565b6000813590506136348161360e565b92915050565b6000602082840312156136505761364f6135d8565b5b600061365e84828501613625565b91505092915050565b60008115159050919050565b61367c81613667565b82525050565b60006020820190506136976000830184613673565b92915050565b6000819050919050565b6136b08161369d565b81146136bb57600080fd5b50565b6000813590506136cd816136a7565b92915050565b6000602082840312156136e9576136e86135d8565b5b60006136f7848285016136be565b91505092915050565b6137098161369d565b82525050565b60006020820190506137246000830184613700565b92915050565b600073ffffffffffffffffffffffffffffffffffffffff82169050919050565b60006137558261372a565b9050919050565b6137658161374a565b811461377057600080fd5b50565b6000813590506137828161375c565b92915050565b6000806040838503121561379f5761379e6135d8565b5b60006137ad858286016136be565b92505060206137be85828601613773565b9150509250929050565b600080fd5b600080fd5b6000601f19601f8301169050919050565b7f4e487b7100000000000000000000000000000000000000000000000000000000600052604160045260246000fd5b61381b826137d2565b810181811067ffffffffffffffff8211171561383a576138396137e3565b5b80604052505050565b600061384d6135ce565b90506138598282613812565b919050565b600067ffffffffffffffff821115613879576138786137e3565b5b613882826137d2565b9050602081019050919050565b82818337600083830152505050565b60006138b16138ac8461385e565b613843565b9050828152602081018484840111156138cd576138cc6137cd565b5b6138d884828561388f565b509392505050565b600082601f8301126138f5576138f46137c8565b5b813561390584826020860161389e565b91505092915050565b60008060008060008060008060008060006101608c8e031215613934576139336135d8565b5b60008c013567ffffffffffffffff811115613952576139516135dd565b5b61395e8e828f016138e0565b9b505060208c013567ffffffffffffffff81111561397f5761397e6135dd565b5b61398b8e828f016138e0565b9a505060408c013567ffffffffffffffff8111156139ac576139ab6135dd565b5b6139b88e828f016138e0565b99505060608c013567ffffffffffffffff8111156139d9576139d86135dd565b5b6139e58e828f016138e0565b98505060808c013567ffffffffffffffff811115613a0657613a056135dd565b5b613a128e828f016138e0565b97505060a08c013567ffffffffffffffff811115613a3357613a326135dd565b5b613a3f8e828f016138e0565b96505060c08c013567ffffffffffffffff811115613a6057613a5f6135dd565b5b613a6c8e828f016138e0565b95505060e08c013567ffffffffffffffff811115613a8d57613a8c6135dd565b5b613a998e828f016138e0565b9450506101008c013567ffffffffffffffff811115613abb57613aba6135dd565b5b613ac78e828f016138e0565b9350506101208c013567ffffffffffffffff811115613ae957613ae86135dd565b5b613af58e828f016138e0565b9250506101408c013567ffffffffffffffff811115613b1757613b166135dd565b5b613b238e828f016138e0565b9150509295989b509295989b9093969950565b600060208284031215613b4c57613b4b6135d8565b5b600082013567ffffffffffffffff811115613b6a57613b696135dd565b5b613b76848285016138e0565b91505092915050565b600081519050919050565b600082825260208201905092915050565b60005b83811015613bb9578082015181840152602081019050613b9e565b60008484015250505050565b6000613bd082613b7f565b613bda8185613b8a565b9350613bea818560208601613b9b565b613bf3816137d2565b840191505092915050565b60006020820190508181036000830152613c188184613bc5565b905092915050565b60008060408385031215613c3757613c366135d8565b5b600083013567ffffffffffffffff811115613c5557613c546135dd565b5b613c61858286016138e0565b925050602083013567ffffffffffffffff811115613c8257613c816135dd565b5b613c8e858286016138e0565b9150509250929050565b6000819050919050565b613cab81613c98565b82525050565b6000602082019050613cc66000830184613ca2565b92915050565b600081905092915050565b6000613ce282613b7f565b613cec8185613ccc565b9350613cfc818560208601613b9b565b80840191505092915050565b6000613d148284613cd7565b915081905092915050565b7f4e487b7100000000000000000000000000000000000000000000000000000000600052601160045260246000fd5b6000613d5982613c98565b91507fffffffffffffffffffffffffffffffffffffffffffffffffffffffffffffffff8203613d8b57613d8a613d1f565b5b600182019050919050565b6000613da182613c98565b9150613dac83613c98565b9250828201905080821115613dc457613dc3613d1f565b5b92915050565b7f4e487b7100000000000000000000000000000000000000000000000000000000600052602260045260246000fd5b60006002820490506001821680613e1157607f821691505b602082108103613e2457613e23613dca565b5b50919050565b60008190508160005260206000209050919050565b60006020601f8301049050919050565b600082821b905092915050565b600060088302613e8c7fffffffffffffffffffffffffffffffffffffffffffffffffffffffffffffffff82613e4f565b613e968683613e4f565b95508019841693508086168417925050509392505050565b6000819050919050565b6000613ed3613ece613ec984613c98565b613eae565b613c98565b9050919050565b6000819050919050565b613eed83613eb8565b613f01613ef982613eda565b848454613e5c565b825550505050565b600090565b613f16613f09565b613f21818484613ee4565b505050565b5b81811015613f4557613f3a600082613f0e565b600181019050613f27565b5050565b601f821115613f8a57613f5b81613e2a565b613f6484613e3f565b81016020851015613f73578190505b613f87613f7f85613e3f565b830182613f26565b50505b505050565b600082821c905092915050565b6000613fad60001984600802613f8f565b1980831691505092915050565b6000613fc68383613f9c565b9150826002028217905092915050565b613fdf82613b7f565b67ffffffffffffffff811115613ff857613ff76137e3565b5b6140028254613df9565b61400d828285613f49565b600060209050601f831160018114614040576000841561402e578287015190505b6140388582613fba565b8655506140a0565b601f19841661404e86613e2a565b60005b8281101561407657848901518255600182019150602085019450602081019050614051565b86831015614093578489015161408f601f891682613f9c565b8355505b6001600288020188555050505b505050505050565b600060808201905081810360008301526140c28187613bc5565b905081810360208301526140d68186613bc5565b905081810360408301526140ea8185613bc5565b90506140f96060830184613ca2565b95945050505050565b7f416363657373436f6e74726f6c3a2063616e206f6e6c792072656e6f756e636560008201527f20726f6c657320666f722073656c660000000000000000000000000000000000602082015250565b600061415e602f83613b8a565b915061416982614102565b604082019050919050565b6000602082019050818103600083015261418d81614151565b9050919050565b600061419f82613c98565b9150600082036141b2576141b1613d1f565b5b600182039050919050565b7f2f2f000000000000000000000000000000000000000000000000000000000000600082015250565b60006141f3600283613ccc565b91506141fe826141bd565b600282019050919050565b6000614215828e613cd7565b9150614220826141e6565b915061422c828d613cd7565b9150614237826141e6565b9150614243828c613cd7565b915061424e826141e6565b915061425a828b613cd7565b9150614265826141e6565b9150614271828a613cd7565b915061427c826141e6565b91506142888289613cd7565b9150614293826141e6565b915061429f8288613cd7565b91506142aa826141e6565b91506142b68287613cd7565b91506142c1826141e6565b91506142cd8286613cd7565b91506142d8826141e6565b91506142e48285613cd7565b91506142ef826141e6565b91506142fb8284613cd7565b91508190509c9b505050505050505050505050565b7f4e487b7100000000000000000000000000000000000000000000000000000000600052601260045260246000fd5b7f416363657373436f6e74726f6c3a206163636f756e7420000000000000000000600082015250565b6000614375601783613ccc565b91506143808261433f565b601782019050919050565b7f206973206d697373696e6720726f6c6520000000000000000000000000000000600082015250565b60006143c1601183613ccc565b91506143cc8261438b565b601182019050919050565b60006143e282614368565b91506143ee8285613cd7565b91506143f9826143b4565b91506144058284613cd7565b91508190509392505050565b600061441c82613c98565b915061442783613c98565b925082820261443581613c98565b9150828204841483151761444c5761444b613d1f565b5b5092915050565b7f4e487b7100000000000000000000000000000000000000000000000000000000600052603260045260246000fd5b7f537472696e67733a20686578206c656e67746820696e73756666696369656e74600082015250565b60006144b8602083613b8a565b91506144c382614482565b602082019050919050565b600060208201905081810360008301526144e7816144ab565b905091905056fea26469706673582212209d989dc1bff81602d9ca70e1437268071328e988a62dc4d632ff58facc1e7acf64736f6c6343000811003335653838343839386461323830343731353164306535366638646336323932373733363033643064366161626264643632613131656637323164313534326438",
  "immutableReferences": {},
  "source": "// SPDX-License-Identifier: MIT\npragma solidity >=0.4.2;\n\nimport \"@openzeppelin/contracts/utils/Strings.sol\";\nimport \"@openzeppelin/contracts/access/AccessControl.sol\";\n\n\ncontract IdChain is AccessControl {\n\n    //address admin\n    bytes32 private constant ADMIN_ROLE = keccak256(\"ADMIN_ROLE\");\n\n    //Model a IdCard\n    struct IdCard{\n        string name;\n        string surname;\n        string birthDate;\n        string birthPlace;\n        string fiscalCode;\n        string homeAddress;\n        string city;\n        string province;\n        string cap;\n        string phone;\n        //string email;\n        uint dataScadenza;\n        string password;\n    }\n\n    event IdCardScaduta(\n        string message\n    );\n\n    event createdIdCard(\n        string name,\n        string surname,\n        string fiscalCode,\n        uint dataScadenza\n    );\n\n    event renewedIdCard(\n        string name,\n        string surname,\n        string fiscalCode,\n        uint dataScadenza\n    );\n\n    \n\n    //Store the IdCards\n    //Utilizza gli address come chiave ma potrebbe non essere ottimale\n    //bisogna prevedere un sistema per evitare che una stessa IdCard venga associata a due address diversi\n    //non public per evitare che si possano vedere tutte le IdCards di altre persone\n    //un ID potrebbe essere il codice fiscale ma allo stesso tempo bisogna collegare all'address la struct\n    mapping(address => IdCard) private idCards;\n\n    //mapping che contiene tutti codici fiscali registrati associati all'address che l'hanno registrato1\n    mapping(string => address) private registeredCF;\n\n    //Store IdCards Count\n    uint public idCardsCount;\n\n    constructor(){\n        idCardsCount = 0;\n        idCards[0xCd3dAE09E94aad0bc8e2Bce8d5905384FE838c8E] = IdCard(\"Test\", \"Test1\", \"24/03/2000\", \"Avellino\", \"MRSNDR0022\", \"Via Via Via\",\n         \"Avellino\", \"AV\", \"83100\", \"3311242336\", 1642690626, \"5e884898da28047151d0e56f8dc6292773603d0d6aabbdd62a11ef721d1542d8\");\n        registeredCF[\"MRSNDR0022\"] = 0xCd3dAE09E94aad0bc8e2Bce8d5905384FE838c8E;\n        _grantRole(ADMIN_ROLE, msg.sender);\n    }\n\n    //crea una nuova IdCard\n    //dobbiamo idearci una verifica dell'identit o qualcosa del genere sen ci dir che non  sicuro\n    function createIdCard(string memory _name, string memory _surname,\n     string memory _birthDate, string memory _birthPlace, string memory _fiscalCode,\n      string memory _homeAddress, string memory _city, string memory _province,\n       string memory _cap, string memory _phone, string memory _password) public {\n        //require that the fiscalCode is not already registered\n        require(registeredCF[_fiscalCode] == address(0));\n        //Require a valid name\n        require(bytes(_name).length > 0);\n        //Require a valid surname\n        require(bytes(_surname).length > 0);\n        //Require a valid birthDate\n        require(bytes(_birthDate).length > 0);\n        //Require a valid birthPlace\n        require(bytes(_birthPlace).length > 0);\n        //Require a valid fiscalCode\n        require(bytes(_fiscalCode).length > 0);\n        //Require a valid homeAddress\n        require(bytes(_homeAddress).length > 0);\n        //Require a valid city\n        require(bytes(_city).length > 0);\n        //Require a valid province\n        require(bytes(_province).length > 0);\n        //Require a valid cap\n        require(bytes(_cap).length > 0);\n        //Require a valid phone\n        require(bytes(_phone).length > 0);\n        //Require a valid email\n        //require(bytes(_email).length > 0);\n\n        //Increment IdCards Count\n        idCardsCount ++;\n\n        //calcola la data di scadenza\n        uint dataScadenzaInt = block.timestamp + (10 * 365 days);\n\n        //Create the IdCard\n        idCards[msg.sender] = IdCard(_name, _surname, _birthDate, _birthPlace, _fiscalCode, _homeAddress,\n         _city, _province, _cap, _phone, dataScadenzaInt, _password);\n\n        //Aggiunge il codice fiscale alla lista dei codici fiscali registrati\n        registeredCF[_fiscalCode] = msg.sender;\n\n        //Trigger an event\n        emit createdIdCard(_name, _surname, _fiscalCode, dataScadenzaInt);\n    }\n\n    //Delete an IdCard\n    //pure qui credo vadano messe delle misure di sicurezza ulteriori\n    function deleteIdCard(string memory _password) public returns (string memory) {\n        //Require a valid address\n        require(msg.sender != address(0));\n\n        IdCard memory idCard = idCards[msg.sender];\n\n        if(bytes(idCard.name).length == 0){\n            return \"cardNotFound\";\n        }\n\n\n        if(keccak256(abi.encodePacked(idCard.password)) != keccak256(abi.encodePacked(_password))){\n            return \"errorPassword\";\n        }\n\n        //Delete the IdCard\n        delete idCards[msg.sender];\n        //Decrement IdCards Count\n        idCardsCount --;\n\n        return \"cardDeleteSuccess\";\n    }\n\n    //Read an IdCard\n    //Non credo possa essere public per motivi di sicurezza e quindi andrebbe implementata un nuovo metodo che sfrutti l'autenticazione tramite spring\n    function readIdCard(string memory _cf, string memory _password) public view returns (string memory){\n\n        //address da leggere\n        address addressToRead;\n\n        //controllo su address admin\n        if(hasRole(ADMIN_ROLE, msg.sender)){\n            //controllo se il codice fiscale  registrato\n            require(registeredCF[_cf] != address(0));\n            addressToRead = registeredCF[_cf];\n        }else{\n            addressToRead = msg.sender;\n        }\n\n        //Require a valid address\n        require(addressToRead != address(0));\n        \n        //Return the IdCard\n        IdCard memory idCard = idCards[addressToRead];\n\n        if(bytes(idCard.name).length == 0){\n            return \"cardNotFound\";\n        }\n\n        //require(keccak256(abi.encodePacked(idCard.password)) == keccak256(abi.encodePacked(_password)));\n\n        if(!hasRole(ADMIN_ROLE, msg.sender)){\n            if(keccak256(abi.encodePacked(idCard.password)) != keccak256(abi.encodePacked(_password))){\n                return \"errorPassword\";\n            }\n        }\n\n        //controllo sulla data di scadenza\n        if(block.timestamp > idCard.dataScadenza){\n            return \"expireCard\";\n        }\n        \n        //se ti stai chiedendo perch ho fatto una cosa del genere  perch solidity  stupido e non permetter di ritornare pi di 5 valori,\n        //quindi ho dovuto concatenare tutto in una stringa e poi ritornarla e poi lato web si fa lo spacchettamento della stringa nei dati che ci servcono\n        return (string(abi.encodePacked(idCard.name,\"//\",idCard.surname ,\"//\" ,idCard.birthDate ,\"//\" ,idCard.birthPlace ,\"//\"\n          ,idCard.fiscalCode ,\"//\" ,idCard.homeAddress ,\"//\" ,idCard.city ,\"//\" ,idCard.province ,\"//\"\n           ,idCard.cap ,\"//\" ,idCard.phone ,\"//\" ,Strings.toString(idCard.dataScadenza)))) ;\n    }\n\n    //Authorize with IdCard\n    //Metodo a cui viene passato l'address e che va a verificare la scadenza della card e restituisce un boolean\n    function authorize(string memory _password) public view returns (string memory){\n        //Require a valid address\n        require(msg.sender != address(0));\n        \n        IdCard memory idCard = idCards[msg.sender];\n\n        if(bytes(idCard.name).length == 0){\n            return \"cardNotFound\";\n        }\n\n\n        if(keccak256(abi.encodePacked(idCard.password)) != keccak256(abi.encodePacked(_password))){\n            return \"errorPassword\";\n        }\n\n\n        if(block.timestamp > idCard.dataScadenza){\n            return \"expireCard\";\n        }else{\n            return \"Autorizzato\";\n        }\n\n    }\n\n    //funzione per rinnovare la carta (rigenera la data di scadenza)\n    function renewIdCard(string memory _password) public returns (string memory){\n        //Require a valid address\n        require(msg.sender != address(0));\n        \n        IdCard memory idCard = idCards[msg.sender];\n\n        if(bytes(idCard.name).length == 0){\n            return \"cardNotFound\";\n        }\n\n        if(keccak256(abi.encodePacked(idCard.password)) != keccak256(abi.encodePacked(_password))){\n            return \"errorPassword\";\n        }\n\n        //calcola la data di scadenza\n        uint dataScadenzaInt = block.timestamp + (10 * 365 days);\n\n        delete idCards[msg.sender];\n\n        idCards[msg.sender] = IdCard(idCard.name, idCard.surname, idCard.birthDate, idCard.birthPlace, idCard.fiscalCode, idCard.homeAddress,\n         idCard.city, idCard.province, idCard.cap, idCard.phone, dataScadenzaInt, idCard.password);\n\n        //Trigger an event\n        emit renewedIdCard(idCard.name, idCard.surname, idCard.fiscalCode, idCard.dataScadenza);\n\n        return \"cardRenewSuccess\";\n    }\n\n\n\n\n\n}\n",
  "sourcePath": "/Users/ater/Documents/Progetti/Web3/idChain/contracts/IdChain.sol",
  "compiler": {
    "name": "solc",
    "version": "0.8.17+commit.8df45f5f.Emscripten.clang"
  },
  "schemaVersion": "3.4.11",
  "updatedAt": "2023-01-23T12:14:12.330Z",
  "networkType": "ethereum",
  "devdoc": {
    "kind": "dev",
    "methods": {
      "getRoleAdmin(bytes32)": {
        "details": "Returns the admin role that controls `role`. See {grantRole} and {revokeRole}. To change a role's admin, use {_setRoleAdmin}."
      },
      "grantRole(bytes32,address)": {
        "details": "Grants `role` to `account`. If `account` had not been already granted `role`, emits a {RoleGranted} event. Requirements: - the caller must have ``role``'s admin role. May emit a {RoleGranted} event."
      },
      "hasRole(bytes32,address)": {
        "details": "Returns `true` if `account` has been granted `role`."
      },
      "renounceRole(bytes32,address)": {
        "details": "Revokes `role` from the calling account. Roles are often managed via {grantRole} and {revokeRole}: this function's purpose is to provide a mechanism for accounts to lose their privileges if they are compromised (such as when a trusted device is misplaced). If the calling account had been revoked `role`, emits a {RoleRevoked} event. Requirements: - the caller must be `account`. May emit a {RoleRevoked} event."
      },
      "revokeRole(bytes32,address)": {
        "details": "Revokes `role` from `account`. If `account` had been granted `role`, emits a {RoleRevoked} event. Requirements: - the caller must have ``role``'s admin role. May emit a {RoleRevoked} event."
      },
      "supportsInterface(bytes4)": {
        "details": "See {IERC165-supportsInterface}."
      }
    },
    "version": 1
  },
  "userdoc": {
    "kind": "user",
    "methods": {},
    "version": 1
  }
}