{
  "contractName": "IdChain",
  "abi": [
    {
      "inputs": [],
      "payable": false,
      "stateMutability": "nonpayable",
      "type": "constructor"
    },
    {
      "anonymous": false,
      "inputs": [
        {
          "indexed": false,
          "internalType": "string",
          "name": "message",
          "type": "string"
        }
      ],
      "name": "IdCardScaduta",
      "type": "event"
    },
    {
      "anonymous": false,
      "inputs": [
        {
          "indexed": false,
          "internalType": "string",
          "name": "name",
          "type": "string"
        },
        {
          "indexed": false,
          "internalType": "string",
          "name": "surname",
          "type": "string"
        },
        {
          "indexed": false,
          "internalType": "string",
          "name": "fiscalCode",
          "type": "string"
        },
        {
          "indexed": false,
          "internalType": "string",
          "name": "dataScadenza",
          "type": "string"
        }
      ],
      "name": "createdIdCard",
      "type": "event"
    },
    {
      "constant": true,
      "inputs": [],
      "name": "idCardsCount",
      "outputs": [
        {
          "internalType": "uint256",
          "name": "",
          "type": "uint256"
        }
      ],
      "payable": false,
      "stateMutability": "view",
      "type": "function"
    },
    {
      "constant": false,
      "inputs": [
        {
          "internalType": "string",
          "name": "_name",
          "type": "string"
        },
        {
          "internalType": "string",
          "name": "_surname",
          "type": "string"
        },
        {
          "internalType": "string",
          "name": "_birthDate",
          "type": "string"
        },
        {
          "internalType": "string",
          "name": "_birthPlace",
          "type": "string"
        },
        {
          "internalType": "string",
          "name": "_fiscalCode",
          "type": "string"
        },
        {
          "internalType": "string",
          "name": "_homeAddress",
          "type": "string"
        },
        {
          "internalType": "string",
          "name": "_city",
          "type": "string"
        },
        {
          "internalType": "string",
          "name": "_province",
          "type": "string"
        },
        {
          "internalType": "uint256",
          "name": "_cap",
          "type": "uint256"
        },
        {
          "internalType": "uint256",
          "name": "_phone",
          "type": "uint256"
        },
        {
          "internalType": "string",
          "name": "_email",
          "type": "string"
        },
        {
          "internalType": "string",
          "name": "_dataScadenza",
          "type": "string"
        }
      ],
      "name": "createIdCard",
      "outputs": [],
      "payable": false,
      "stateMutability": "nonpayable",
      "type": "function"
    },
    {
      "constant": false,
      "inputs": [
        {
          "internalType": "address",
          "name": "_address",
          "type": "address"
        }
      ],
      "name": "deleteIdCard",
      "outputs": [],
      "payable": false,
      "stateMutability": "nonpayable",
      "type": "function"
    },
    {
      "constant": true,
      "inputs": [
        {
          "internalType": "address",
          "name": "_address",
          "type": "address"
        }
      ],
      "name": "authorize",
      "outputs": [
        {
          "internalType": "bool",
          "name": "",
          "type": "bool"
        }
      ],
      "payable": false,
      "stateMutability": "view",
      "type": "function"
    }
  ],
  "bytecode": "0x608060405234801561001057600080fd5b50600060028190555061109b806100286000396000f3fe608060405234801561001057600080fd5b506004361061004c5760003560e01c80637e1ca2fe14610051578063a6a432f714610095578063b6a5d7de146100b3578063d532206d1461010f575b600080fd5b6100936004803603602081101561006757600080fd5b81019080803573ffffffffffffffffffffffffffffffffffffffff16906020019092919050505061072e565b005b61009d61086f565b6040518082815260200191505060405180910390f35b6100f5600480360360208110156100c957600080fd5b81019080803573ffffffffffffffffffffffffffffffffffffffff169060200190929190505050610875565b604051808215151515815260200191505060405180910390f35b61072c600480360361018081101561012657600080fd5b810190808035906020019064010000000081111561014357600080fd5b82018360208201111561015557600080fd5b8035906020019184600183028401116401000000008311171561017757600080fd5b91908080601f016020809104026020016040519081016040528093929190818152602001838380828437600081840152601f19601f820116905080830192505050505050509192919290803590602001906401000000008111156101da57600080fd5b8201836020820111156101ec57600080fd5b8035906020019184600183028401116401000000008311171561020e57600080fd5b91908080601f016020809104026020016040519081016040528093929190818152602001838380828437600081840152601f19601f8201169050808301925050505050505091929192908035906020019064010000000081111561027157600080fd5b82018360208201111561028357600080fd5b803590602001918460018302840111640100000000831117156102a557600080fd5b91908080601f016020809104026020016040519081016040528093929190818152602001838380828437600081840152601f19601f8201169050808301925050505050505091929192908035906020019064010000000081111561030857600080fd5b82018360208201111561031a57600080fd5b8035906020019184600183028401116401000000008311171561033c57600080fd5b91908080601f016020809104026020016040519081016040528093929190818152602001838380828437600081840152601f19601f8201169050808301925050505050505091929192908035906020019064010000000081111561039f57600080fd5b8201836020820111156103b157600080fd5b803590602001918460018302840111640100000000831117156103d357600080fd5b91908080601f016020809104026020016040519081016040528093929190818152602001838380828437600081840152601f19601f8201169050808301925050505050505091929192908035906020019064010000000081111561043657600080fd5b82018360208201111561044857600080fd5b8035906020019184600183028401116401000000008311171561046a57600080fd5b91908080601f016020809104026020016040519081016040528093929190818152602001838380828437600081840152601f19601f820116905080830192505050505050509192919290803590602001906401000000008111156104cd57600080fd5b8201836020820111156104df57600080fd5b8035906020019184600183028401116401000000008311171561050157600080fd5b91908080601f016020809104026020016040519081016040528093929190818152602001838380828437600081840152601f19601f8201169050808301925050505050505091929192908035906020019064010000000081111561056457600080fd5b82018360208201111561057657600080fd5b8035906020019184600183028401116401000000008311171561059857600080fd5b91908080601f016020809104026020016040519081016040528093929190818152602001838380828437600081840152601f19601f82011690508083019250505050505050919291929080359060200190929190803590602001909291908035906020019064010000000081111561060f57600080fd5b82018360208201111561062157600080fd5b8035906020019184600183028401116401000000008311171561064357600080fd5b91908080601f016020809104026020016040519081016040528093929190818152602001838380828437600081840152601f19601f820116905080830192505050505050509192919290803590602001906401000000008111156106a657600080fd5b8201836020820111156106b857600080fd5b803590602001918460018302840111640100000000831117156106da57600080fd5b91908080601f016020809104026020016040519081016040528093929190818152602001838380828437600081840152601f19601f820116905080830192505050505050509192919290505050610999565b005b600073ffffffffffffffffffffffffffffffffffffffff168173ffffffffffffffffffffffffffffffffffffffff16141561076857600080fd5b6000808273ffffffffffffffffffffffffffffffffffffffff1673ffffffffffffffffffffffffffffffffffffffff168152602001908152602001600020600080820160006107b79190610f79565b6001820160006107c79190610f79565b6002820160006107d79190610f79565b6003820160006107e79190610f79565b6004820160006107f79190610f79565b6005820160006108079190610f79565b6006820160006108179190610f79565b6007820160006108279190610f79565b60088201600090556009820160009055600a820160006108479190610f79565b600b820160006108579190610f79565b50506002600081548092919060019003919050555050565b60025481565b60008073ffffffffffffffffffffffffffffffffffffffff168273ffffffffffffffffffffffffffffffffffffffff1614156108b057600080fd5b4260405160200180828152602001915050604051602081830303815290604052805190602001206000808473ffffffffffffffffffffffffffffffffffffffff1673ffffffffffffffffffffffffffffffffffffffff168152602001908152602001600020600b0160405160200180828054600181600116156101000203166002900480156109765780601f10610954576101008083540402835291820191610976565b820191906000526020600020905b815481529060010190602001808311610962575b505091505060405160208183030381529060405280519060200120119050919050565b600073ffffffffffffffffffffffffffffffffffffffff166001896040518082805190602001908083835b602083106109e757805182526020820191506020810190506020830392506109c4565b6001836020036101000a038019825116818451168082178552505050505050905001915050908152602001604051809103902060009054906101000a900473ffffffffffffffffffffffffffffffffffffffff1673ffffffffffffffffffffffffffffffffffffffff1614610a5b57600080fd5b60008c5111610a6957600080fd5b60008b5111610a7757600080fd5b60008a5111610a8557600080fd5b6000895111610a9357600080fd5b6000885111610aa157600080fd5b6000875111610aaf57600080fd5b6000865111610abd57600080fd5b6000855111610acb57600080fd5b60008411610ad857600080fd5b60008311610ae557600080fd5b6000825111610af357600080fd5b6000815111610b0157600080fd5b6002600081548092919060010191905055506040518061018001604052808d81526020018c81526020018b81526020018a8152602001898152602001888152602001878152602001868152602001858152602001848152602001838152602001828152506000803373ffffffffffffffffffffffffffffffffffffffff1673ffffffffffffffffffffffffffffffffffffffff1681526020019081526020016000206000820151816000019080519060200190610bbf929190610fc1565b506020820151816001019080519060200190610bdc929190610fc1565b506040820151816002019080519060200190610bf9929190610fc1565b506060820151816003019080519060200190610c16929190610fc1565b506080820151816004019080519060200190610c33929190610fc1565b5060a0820151816005019080519060200190610c50929190610fc1565b5060c0820151816006019080519060200190610c6d929190610fc1565b5060e0820151816007019080519060200190610c8a929190610fc1565b506101008201518160080155610120820151816009015561014082015181600a019080519060200190610cbe929190610fc1565b5061016082015181600b019080519060200190610cdc929190610fc1565b50905050336001896040518082805190602001908083835b60208310610d175780518252602082019150602081019050602083039250610cf4565b6001836020036101000a038019825116818451168082178552505050505050905001915050908152602001604051809103902060006101000a81548173ffffffffffffffffffffffffffffffffffffffff021916908373ffffffffffffffffffffffffffffffffffffffff1602179055507f0c102721fc55cfbc7fca91db8edb44f84d13af61ab9f0768779a4c1794e774538c8c8a846040518080602001806020018060200180602001858103855289818151815260200191508051906020019080838360005b83811015610df9578082015181840152602081019050610dde565b50505050905090810190601f168015610e265780820380516001836020036101000a031916815260200191505b50858103845288818151815260200191508051906020019080838360005b83811015610e5f578082015181840152602081019050610e44565b50505050905090810190601f168015610e8c5780820380516001836020036101000a031916815260200191505b50858103835287818151815260200191508051906020019080838360005b83811015610ec5578082015181840152602081019050610eaa565b50505050905090810190601f168015610ef25780820380516001836020036101000a031916815260200191505b50858103825286818151815260200191508051906020019080838360005b83811015610f2b578082015181840152602081019050610f10565b50505050905090810190601f168015610f585780820380516001836020036101000a031916815260200191505b509850505050505050505060405180910390a1505050505050505050505050565b50805460018160011615610100020316600290046000825580601f10610f9f5750610fbe565b601f016020900490600052602060002090810190610fbd9190611041565b5b50565b828054600181600116156101000203166002900490600052602060002090601f016020900481019282601f1061100257805160ff1916838001178555611030565b82800160010185558215611030579182015b8281111561102f578251825591602001919060010190611014565b5b50905061103d9190611041565b5090565b61106391905b8082111561105f576000816000905550600101611047565b5090565b9056fea265627a7a72315820ed5470d445a4185f14b3a22d2cdfeee634a05d6a8900a44298a018142135f17a64736f6c63430005100032",
  "source": "// SPDX-License-Identifier: MIT\npragma solidity >=0.4.2;\n\ncontract IdChain{\n\n    //Model a IdCard\n    struct IdCard{\n        string name;\n        string surname;\n        string birthDate;\n        string birthPlace;\n        string fiscalCode;\n        string homeAddress;\n        string city;\n        string province;\n        uint cap;\n        uint phone;\n        string email;\n        string dataScadenza;\n    }\n\n    event IdCardScaduta(\n        string message\n    );\n\n    event createdIdCard(\n        string name,\n        string surname,\n        string fiscalCode,\n        string dataScadenza\n    );\n\n    \n\n    //Store the IdCards\n    //Utilizza gli address come chiave ma potrebbe non essere ottimale\n    //bisogna prevedere un sistema per evitare che una stessa IdCard venga associata a due address diversi\n    //non public per evitare che si possano vedere tutte le IdCards di altre persone\n    //un ID potrebbe essere il codice fiscale ma allo stesso tempo bisogna collegare all'address la struct\n    mapping(address => IdCard) idCards;\n\n    //mapping che contiene tutti codici fiscali registrati associati all'address che l'hanno registrato\n    mapping(string => address) registeredCF;\n\n    //Store IdCards Count\n    uint public idCardsCount;\n\n    constructor() public {\n        idCardsCount = 0;\n    }\n\n    //crea una nuova IdCard\n    //dobbiamo idearci una verifica dell'identità o qualcosa del genere senò ci dirà che non è sicuro\n    function createIdCard(string memory _name, string memory _surname,\n     string memory _birthDate, string memory _birthPlace, string memory _fiscalCode,\n      string memory _homeAddress, string memory _city, string memory _province,\n       uint _cap, uint _phone, string memory _email, string memory _dataScadenza) public {\n        //require that the fiscalCode is not already registered\n        require(registeredCF[_fiscalCode] == address(0));\n        //Require a valid name\n        require(bytes(_name).length > 0);\n        //Require a valid surname\n        require(bytes(_surname).length > 0);\n        //Require a valid birthDate\n        require(bytes(_birthDate).length > 0);\n        //Require a valid birthPlace\n        require(bytes(_birthPlace).length > 0);\n        //Require a valid fiscalCode\n        require(bytes(_fiscalCode).length > 0);\n        //Require a valid homeAddress\n        require(bytes(_homeAddress).length > 0);\n        //Require a valid city\n        require(bytes(_city).length > 0);\n        //Require a valid province\n        require(bytes(_province).length > 0);\n        //Require a valid cap\n        require(_cap > 0);\n        //Require a valid phone\n        require(_phone > 0);\n        //Require a valid email\n        require(bytes(_email).length > 0);\n        //Require a valid dataScadenza\n        require(bytes(_dataScadenza).length > 0);\n\n        //Increment IdCards Count\n        idCardsCount ++;\n\n        //Create the IdCard\n        idCards[msg.sender] = IdCard(_name, _surname, _birthDate, _birthPlace, _fiscalCode, _homeAddress, _city, _province, _cap, _phone, _email, _dataScadenza);\n\n        //Aggiunge il codice fiscale alla lista dei codici fiscali registrati\n        registeredCF[_fiscalCode] = msg.sender;\n\n        //Trigger an event\n        emit createdIdCard(_name, _surname, _fiscalCode,_dataScadenza);\n    }\n\n    //Delete an IdCard\n    //pure qui credo vadano messe delle misure di sicurezza ulteriori\n    function deleteIdCard(address _address) public {\n        //Require a valid address\n        require(_address != address(0));\n        //Delete the IdCard\n        delete idCards[_address];\n        //Decrement IdCards Count\n        idCardsCount --;\n    }\n\n    //Read an IdCard\n    //Non credo possa essere public per motivi di sicurezza e quindi andrebbe implementata un nuovo metodo che sfrutti l'autenticazione tramite spring\n    function readIdCard(address _address) private view returns (string memory){\n        //Require a valid address\n        require(_address != address(0));\n        require(keccak256(abi.encodePacked(idCards[_address].dataScadenza)) > keccak256(abi.encodePacked(block.timestamp)));\n        //Return the IdCard\n        IdCard memory idCard = idCards[_address];\n        return (string(abi.encodePacked(idCard.name,\"/\",idCard.surname ,\"/\" ,idCard.birthDate ,\"/\" ,idCard.birthPlace ,\"/\"\n          ,idCard.fiscalCode ,\"/\" ,idCard.homeAddress ,\"/\" ,idCard.city ,\"/\" ,idCard.province ,\"/\"\n           ,idCard.cap ,\"/\" ,idCard.phone ,\"/\" ,idCard.email ,\"/\" ,idCard.dataScadenza))) ;\n    }\n\n    //Authorize with IdCard\n    //Metodo a cui viene passato l'address e che va a verificare la scadenza della card e restituisce un boolean\n    function authorize(address _address) public view returns (bool){\n        //Require a valid address\n        require(_address != address(0));\n        //Return the IdCard\n        //non sono pienamente sicuro su questo che l'ho trovato online, poi va testato per bene\n        return (keccak256(abi.encodePacked(idCards[_address].dataScadenza)) > keccak256(abi.encodePacked(block.timestamp)));\n    }\n\n\n\n\n\n}\n",
  "sourcePath": "/Users/ater/Documents/Progetti/Web3/idChain/contracts/IdChain.sol",
  "compiler": {
    "name": "solc",
    "version": "0.5.16+commit.9c3226ce.Emscripten.clang"
  },
  "schemaVersion": "3.4.11",
  "updatedAt": "2023-01-07T17:19:32.124Z",
  "devdoc": {
    "methods": {}
  },
  "userdoc": {
    "methods": {}
  }
}