{
  "contractName": "IdChain",
  "abi": [
    {
      "inputs": [],
      "stateMutability": "nonpayable",
      "type": "constructor"
    },
    {
      "anonymous": false,
      "inputs": [
        {
          "indexed": false,
          "internalType": "string",
          "name": "message",
          "type": "string"
        }
      ],
      "name": "IdCardScaduta",
      "type": "event"
    },
    {
      "anonymous": false,
      "inputs": [
        {
          "indexed": false,
          "internalType": "uint256",
          "name": "dataScadenza",
          "type": "uint256"
        },
        {
          "indexed": false,
          "internalType": "uint256",
          "name": "dataAttuale",
          "type": "uint256"
        }
      ],
      "name": "controlloDataScadenza",
      "type": "event"
    },
    {
      "anonymous": false,
      "inputs": [
        {
          "indexed": false,
          "internalType": "string",
          "name": "name",
          "type": "string"
        },
        {
          "indexed": false,
          "internalType": "string",
          "name": "surname",
          "type": "string"
        },
        {
          "indexed": false,
          "internalType": "string",
          "name": "fiscalCode",
          "type": "string"
        },
        {
          "indexed": false,
          "internalType": "uint256",
          "name": "dataScadenza",
          "type": "uint256"
        }
      ],
      "name": "createdIdCard",
      "type": "event"
    },
    {
      "inputs": [],
      "name": "idCardsCount",
      "outputs": [
        {
          "internalType": "uint256",
          "name": "",
          "type": "uint256"
        }
      ],
      "stateMutability": "view",
      "type": "function",
      "constant": true
    },
    {
      "inputs": [
        {
          "internalType": "string",
          "name": "_name",
          "type": "string"
        },
        {
          "internalType": "string",
          "name": "_surname",
          "type": "string"
        },
        {
          "internalType": "string",
          "name": "_birthDate",
          "type": "string"
        },
        {
          "internalType": "string",
          "name": "_birthPlace",
          "type": "string"
        },
        {
          "internalType": "string",
          "name": "_fiscalCode",
          "type": "string"
        },
        {
          "internalType": "string",
          "name": "_homeAddress",
          "type": "string"
        },
        {
          "internalType": "string",
          "name": "_city",
          "type": "string"
        },
        {
          "internalType": "string",
          "name": "_province",
          "type": "string"
        },
        {
          "internalType": "string",
          "name": "_cap",
          "type": "string"
        },
        {
          "internalType": "string",
          "name": "_phone",
          "type": "string"
        },
        {
          "internalType": "string",
          "name": "_email",
          "type": "string"
        }
      ],
      "name": "createIdCard",
      "outputs": [],
      "stateMutability": "nonpayable",
      "type": "function"
    },
    {
      "inputs": [
        {
          "internalType": "address",
          "name": "_address",
          "type": "address"
        }
      ],
      "name": "deleteIdCard",
      "outputs": [],
      "stateMutability": "nonpayable",
      "type": "function"
    },
    {
      "inputs": [
        {
          "internalType": "address",
          "name": "_address",
          "type": "address"
        }
      ],
      "name": "readIdCard",
      "outputs": [
        {
          "internalType": "string",
          "name": "",
          "type": "string"
        }
      ],
      "stateMutability": "view",
      "type": "function",
      "constant": true
    },
    {
      "inputs": [
        {
          "internalType": "address",
          "name": "_address",
          "type": "address"
        }
      ],
      "name": "authorize",
      "outputs": [
        {
          "internalType": "bool",
          "name": "",
          "type": "bool"
        }
      ],
      "stateMutability": "view",
      "type": "function",
      "constant": true
    }
  ],
  "bytecode": "0x608060405234801561001057600080fd5b506000600281905550612286806100286000396000f3fe608060405234801561001057600080fd5b50600436106100575760003560e01c806335fb3fd31461005c5780637e1ca2fe14610078578063a6a432f714610094578063b6a5d7de146100b2578063cec4f21c146100e2575b600080fd5b61007660048036038101906100719190611899565b610112565b005b610092600480360381019061008d9190611b1f565b61048a565b005b61009c6105d7565b6040516100a99190611b65565b60405180910390f35b6100cc60048036038101906100c79190611b1f565b6105dd565b6040516100d99190611b9b565b60405180910390f35b6100fc60048036038101906100f79190611b1f565b610cd7565b6040516101099190611c35565b60405180910390f35b600073ffffffffffffffffffffffffffffffffffffffff1660018860405161013a9190611c93565b908152602001604051809103902060009054906101000a900473ffffffffffffffffffffffffffffffffffffffff1673ffffffffffffffffffffffffffffffffffffffff161461018957600080fd5b60008b511161019757600080fd5b60008a51116101a557600080fd5b60008951116101b357600080fd5b60008851116101c157600080fd5b60008751116101cf57600080fd5b60008651116101dd57600080fd5b60008551116101eb57600080fd5b60008451116101f957600080fd5b600083511161020757600080fd5b600082511161021557600080fd5b600081511161022357600080fd5b6002600081548092919061023690611cd9565b919050555060006312cc03004261024d9190611d21565b90506040518061018001604052808d81526020018c81526020018b81526020018a8152602001898152602001888152602001878152602001868152602001858152602001848152602001838152602001828152506000803373ffffffffffffffffffffffffffffffffffffffff1673ffffffffffffffffffffffffffffffffffffffff16815260200190815260200160002060008201518160000190816102f49190611f61565b50602082015181600101908161030a9190611f61565b5060408201518160020190816103209190611f61565b5060608201518160030190816103369190611f61565b50608082015181600401908161034c9190611f61565b5060a08201518160050190816103629190611f61565b5060c08201518160060190816103789190611f61565b5060e082015181600701908161038e9190611f61565b506101008201518160080190816103a59190611f61565b506101208201518160090190816103bc9190611f61565b5061014082015181600a0190816103d39190611f61565b5061016082015181600b0155905050336001896040516103f39190611c93565b908152602001604051809103902060006101000a81548173ffffffffffffffffffffffffffffffffffffffff021916908373ffffffffffffffffffffffffffffffffffffffff1602179055507fea0e21aa925590127eb9530746cf0f19e2b823e70c4186ee283ad7bad6bf7d698c8c8a846040516104749493929190612033565b60405180910390a1505050505050505050505050565b600073ffffffffffffffffffffffffffffffffffffffff168173ffffffffffffffffffffffffffffffffffffffff16036104c357600080fd5b6000808273ffffffffffffffffffffffffffffffffffffffff1673ffffffffffffffffffffffffffffffffffffffff1681526020019081526020016000206000808201600061051291906116e2565b60018201600061052291906116e2565b60028201600061053291906116e2565b60038201600061054291906116e2565b60048201600061055291906116e2565b60058201600061056291906116e2565b60068201600061057291906116e2565b60078201600061058291906116e2565b60088201600061059291906116e2565b6009820160006105a291906116e2565b600a820160006105b291906116e2565b600b8201600090555050600260008154809291906105cf9061208d565b919050555050565b60025481565b60008073ffffffffffffffffffffffffffffffffffffffff168273ffffffffffffffffffffffffffffffffffffffff160361061757600080fd5b60008060008473ffffffffffffffffffffffffffffffffffffffff1673ffffffffffffffffffffffffffffffffffffffff1681526020019081526020016000206040518061018001604052908160008201805461067390611d84565b80601f016020809104026020016040519081016040528092919081815260200182805461069f90611d84565b80156106ec5780601f106106c1576101008083540402835291602001916106ec565b820191906000526020600020905b8154815290600101906020018083116106cf57829003601f168201915b5050505050815260200160018201805461070590611d84565b80601f016020809104026020016040519081016040528092919081815260200182805461073190611d84565b801561077e5780601f106107535761010080835404028352916020019161077e565b820191906000526020600020905b81548152906001019060200180831161076157829003601f168201915b5050505050815260200160028201805461079790611d84565b80601f01602080910402602001604051908101604052809291908181526020018280546107c390611d84565b80156108105780601f106107e557610100808354040283529160200191610810565b820191906000526020600020905b8154815290600101906020018083116107f357829003601f168201915b5050505050815260200160038201805461082990611d84565b80601f016020809104026020016040519081016040528092919081815260200182805461085590611d84565b80156108a25780601f10610877576101008083540402835291602001916108a2565b820191906000526020600020905b81548152906001019060200180831161088557829003601f168201915b505050505081526020016004820180546108bb90611d84565b80601f01602080910402602001604051908101604052809291908181526020018280546108e790611d84565b80156109345780601f1061090957610100808354040283529160200191610934565b820191906000526020600020905b81548152906001019060200180831161091757829003601f168201915b5050505050815260200160058201805461094d90611d84565b80601f016020809104026020016040519081016040528092919081815260200182805461097990611d84565b80156109c65780601f1061099b576101008083540402835291602001916109c6565b820191906000526020600020905b8154815290600101906020018083116109a957829003601f168201915b505050505081526020016006820180546109df90611d84565b80601f0160208091040260200160405190810160405280929190818152602001828054610a0b90611d84565b8015610a585780601f10610a2d57610100808354040283529160200191610a58565b820191906000526020600020905b815481529060010190602001808311610a3b57829003601f168201915b50505050508152602001600782018054610a7190611d84565b80601f0160208091040260200160405190810160405280929190818152602001828054610a9d90611d84565b8015610aea5780601f10610abf57610100808354040283529160200191610aea565b820191906000526020600020905b815481529060010190602001808311610acd57829003601f168201915b50505050508152602001600882018054610b0390611d84565b80601f0160208091040260200160405190810160405280929190818152602001828054610b2f90611d84565b8015610b7c5780601f10610b5157610100808354040283529160200191610b7c565b820191906000526020600020905b815481529060010190602001808311610b5f57829003601f168201915b50505050508152602001600982018054610b9590611d84565b80601f0160208091040260200160405190810160405280929190818152602001828054610bc190611d84565b8015610c0e5780601f10610be357610100808354040283529160200191610c0e565b820191906000526020600020905b815481529060010190602001808311610bf157829003601f168201915b50505050508152602001600a82018054610c2790611d84565b80601f0160208091040260200160405190810160405280929190818152602001828054610c5390611d84565b8015610ca05780601f10610c7557610100808354040283529160200191610ca0565b820191906000526020600020905b815481529060010190602001808311610c8357829003601f168201915b50505050508152602001600b820154815250509050806101600151421115610ccc576000915050610cd2565b60019150505b919050565b6060600073ffffffffffffffffffffffffffffffffffffffff168273ffffffffffffffffffffffffffffffffffffffff1603610d1257600080fd5b60008060008473ffffffffffffffffffffffffffffffffffffffff1673ffffffffffffffffffffffffffffffffffffffff16815260200190815260200160002060405180610180016040529081600082018054610d6e90611d84565b80601f0160208091040260200160405190810160405280929190818152602001828054610d9a90611d84565b8015610de75780601f10610dbc57610100808354040283529160200191610de7565b820191906000526020600020905b815481529060010190602001808311610dca57829003601f168201915b50505050508152602001600182018054610e0090611d84565b80601f0160208091040260200160405190810160405280929190818152602001828054610e2c90611d84565b8015610e795780601f10610e4e57610100808354040283529160200191610e79565b820191906000526020600020905b815481529060010190602001808311610e5c57829003601f168201915b50505050508152602001600282018054610e9290611d84565b80601f0160208091040260200160405190810160405280929190818152602001828054610ebe90611d84565b8015610f0b5780601f10610ee057610100808354040283529160200191610f0b565b820191906000526020600020905b815481529060010190602001808311610eee57829003601f168201915b50505050508152602001600382018054610f2490611d84565b80601f0160208091040260200160405190810160405280929190818152602001828054610f5090611d84565b8015610f9d5780601f10610f7257610100808354040283529160200191610f9d565b820191906000526020600020905b815481529060010190602001808311610f8057829003601f168201915b50505050508152602001600482018054610fb690611d84565b80601f0160208091040260200160405190810160405280929190818152602001828054610fe290611d84565b801561102f5780601f106110045761010080835404028352916020019161102f565b820191906000526020600020905b81548152906001019060200180831161101257829003601f168201915b5050505050815260200160058201805461104890611d84565b80601f016020809104026020016040519081016040528092919081815260200182805461107490611d84565b80156110c15780601f10611096576101008083540402835291602001916110c1565b820191906000526020600020905b8154815290600101906020018083116110a457829003601f168201915b505050505081526020016006820180546110da90611d84565b80601f016020809104026020016040519081016040528092919081815260200182805461110690611d84565b80156111535780601f1061112857610100808354040283529160200191611153565b820191906000526020600020905b81548152906001019060200180831161113657829003601f168201915b5050505050815260200160078201805461116c90611d84565b80601f016020809104026020016040519081016040528092919081815260200182805461119890611d84565b80156111e55780601f106111ba576101008083540402835291602001916111e5565b820191906000526020600020905b8154815290600101906020018083116111c857829003601f168201915b505050505081526020016008820180546111fe90611d84565b80601f016020809104026020016040519081016040528092919081815260200182805461122a90611d84565b80156112775780601f1061124c57610100808354040283529160200191611277565b820191906000526020600020905b81548152906001019060200180831161125a57829003601f168201915b5050505050815260200160098201805461129090611d84565b80601f01602080910402602001604051908101604052809291908181526020018280546112bc90611d84565b80156113095780601f106112de57610100808354040283529160200191611309565b820191906000526020600020905b8154815290600101906020018083116112ec57829003601f168201915b50505050508152602001600a8201805461132290611d84565b80601f016020809104026020016040519081016040528092919081815260200182805461134e90611d84565b801561139b5780601f106113705761010080835404028352916020019161139b565b820191906000526020600020905b81548152906001019060200180831161137e57829003601f168201915b50505050508152602001600b8201548152505090506000816000015151036113fb576040518060400160405280601381526020017f4c61206361727461206e6f6e20657369737465000000000000000000000000008152509150506114bc565b806101600151421115611446576040518060400160405280601381526020017f4c612063617274612065272073636164757461000000000000000000000000008152509150506114bc565b806000015181602001518260400151836060015184608001518560a001518660c001518760e001518861010001518961012001518a610140015161148e8c61016001516114c1565b6040516020016114a99c9b9a99989796959493929190612102565b6040516020818303038152906040529150505b919050565b6060600060016114d08461158f565b01905060008167ffffffffffffffff8111156114ef576114ee61176e565b5b6040519080825280601f01601f1916602001820160405280156115215781602001600182028036833780820191505090505b509050600082602001820190505b600115611584578080600190039150507f3031323334353637383961626364656600000000000000000000000000000000600a86061a8153600a858161157857611577612221565b5b0494506000850361152f575b819350505050919050565b600080600090507a184f03e93ff9f4daa797ed6e38ed64bf6a1f01000000000000000083106115ed577a184f03e93ff9f4daa797ed6e38ed64bf6a1f01000000000000000083816115e3576115e2612221565b5b0492506040810190505b6d04ee2d6d415b85acef8100000000831061162a576d04ee2d6d415b85acef810000000083816116205761161f612221565b5b0492506020810190505b662386f26fc10000831061165957662386f26fc10000838161164f5761164e612221565b5b0492506010810190505b6305f5e1008310611682576305f5e100838161167857611677612221565b5b0492506008810190505b61271083106116a757612710838161169d5761169c612221565b5b0492506004810190505b606483106116ca57606483816116c0576116bf612221565b5b0492506002810190505b600a83106116d9576001810190505b80915050919050565b5080546116ee90611d84565b6000825580601f10611700575061171f565b601f01602090049060005260206000209081019061171e9190611722565b5b50565b5b8082111561173b576000816000905550600101611723565b5090565b6000604051905090565b600080fd5b600080fd5b600080fd5b600080fd5b6000601f19601f8301169050919050565b7f4e487b7100000000000000000000000000000000000000000000000000000000600052604160045260246000fd5b6117a68261175d565b810181811067ffffffffffffffff821117156117c5576117c461176e565b5b80604052505050565b60006117d861173f565b90506117e4828261179d565b919050565b600067ffffffffffffffff8211156118045761180361176e565b5b61180d8261175d565b9050602081019050919050565b82818337600083830152505050565b600061183c611837846117e9565b6117ce565b90508281526020810184848401111561185857611857611758565b5b61186384828561181a565b509392505050565b600082601f8301126118805761187f611753565b5b8135611890848260208601611829565b91505092915050565b60008060008060008060008060008060006101608c8e0312156118bf576118be611749565b5b60008c013567ffffffffffffffff8111156118dd576118dc61174e565b5b6118e98e828f0161186b565b9b505060208c013567ffffffffffffffff81111561190a5761190961174e565b5b6119168e828f0161186b565b9a505060408c013567ffffffffffffffff8111156119375761193661174e565b5b6119438e828f0161186b565b99505060608c013567ffffffffffffffff8111156119645761196361174e565b5b6119708e828f0161186b565b98505060808c013567ffffffffffffffff8111156119915761199061174e565b5b61199d8e828f0161186b565b97505060a08c013567ffffffffffffffff8111156119be576119bd61174e565b5b6119ca8e828f0161186b565b96505060c08c013567ffffffffffffffff8111156119eb576119ea61174e565b5b6119f78e828f0161186b565b95505060e08c013567ffffffffffffffff811115611a1857611a1761174e565b5b611a248e828f0161186b565b9450506101008c013567ffffffffffffffff811115611a4657611a4561174e565b5b611a528e828f0161186b565b9350506101208c013567ffffffffffffffff811115611a7457611a7361174e565b5b611a808e828f0161186b565b9250506101408c013567ffffffffffffffff811115611aa257611aa161174e565b5b611aae8e828f0161186b565b9150509295989b509295989b9093969950565b600073ffffffffffffffffffffffffffffffffffffffff82169050919050565b6000611aec82611ac1565b9050919050565b611afc81611ae1565b8114611b0757600080fd5b50565b600081359050611b1981611af3565b92915050565b600060208284031215611b3557611b34611749565b5b6000611b4384828501611b0a565b91505092915050565b6000819050919050565b611b5f81611b4c565b82525050565b6000602082019050611b7a6000830184611b56565b92915050565b60008115159050919050565b611b9581611b80565b82525050565b6000602082019050611bb06000830184611b8c565b92915050565b600081519050919050565b600082825260208201905092915050565b60005b83811015611bf0578082015181840152602081019050611bd5565b60008484015250505050565b6000611c0782611bb6565b611c118185611bc1565b9350611c21818560208601611bd2565b611c2a8161175d565b840191505092915050565b60006020820190508181036000830152611c4f8184611bfc565b905092915050565b600081905092915050565b6000611c6d82611bb6565b611c778185611c57565b9350611c87818560208601611bd2565b80840191505092915050565b6000611c9f8284611c62565b915081905092915050565b7f4e487b7100000000000000000000000000000000000000000000000000000000600052601160045260246000fd5b6000611ce482611b4c565b91507fffffffffffffffffffffffffffffffffffffffffffffffffffffffffffffffff8203611d1657611d15611caa565b5b600182019050919050565b6000611d2c82611b4c565b9150611d3783611b4c565b9250828201905080821115611d4f57611d4e611caa565b5b92915050565b7f4e487b7100000000000000000000000000000000000000000000000000000000600052602260045260246000fd5b60006002820490506001821680611d9c57607f821691505b602082108103611daf57611dae611d55565b5b50919050565b60008190508160005260206000209050919050565b60006020601f8301049050919050565b600082821b905092915050565b600060088302611e177fffffffffffffffffffffffffffffffffffffffffffffffffffffffffffffffff82611dda565b611e218683611dda565b95508019841693508086168417925050509392505050565b6000819050919050565b6000611e5e611e59611e5484611b4c565b611e39565b611b4c565b9050919050565b6000819050919050565b611e7883611e43565b611e8c611e8482611e65565b848454611de7565b825550505050565b600090565b611ea1611e94565b611eac818484611e6f565b505050565b5b81811015611ed057611ec5600082611e99565b600181019050611eb2565b5050565b601f821115611f1557611ee681611db5565b611eef84611dca565b81016020851015611efe578190505b611f12611f0a85611dca565b830182611eb1565b50505b505050565b600082821c905092915050565b6000611f3860001984600802611f1a565b1980831691505092915050565b6000611f518383611f27565b9150826002028217905092915050565b611f6a82611bb6565b67ffffffffffffffff811115611f8357611f8261176e565b5b611f8d8254611d84565b611f98828285611ed4565b600060209050601f831160018114611fcb5760008415611fb9578287015190505b611fc38582611f45565b86555061202b565b601f198416611fd986611db5565b60005b8281101561200157848901518255600182019150602085019450602081019050611fdc565b8683101561201e578489015161201a601f891682611f27565b8355505b6001600288020188555050505b505050505050565b6000608082019050818103600083015261204d8187611bfc565b905081810360208301526120618186611bfc565b905081810360408301526120758185611bfc565b90506120846060830184611b56565b95945050505050565b600061209882611b4c565b9150600082036120ab576120aa611caa565b5b600182039050919050565b7f2f2f000000000000000000000000000000000000000000000000000000000000600082015250565b60006120ec600283611c57565b91506120f7826120b6565b600282019050919050565b600061210e828f611c62565b9150612119826120df565b9150612125828e611c62565b9150612130826120df565b915061213c828d611c62565b9150612147826120df565b9150612153828c611c62565b915061215e826120df565b915061216a828b611c62565b9150612175826120df565b9150612181828a611c62565b915061218c826120df565b91506121988289611c62565b91506121a3826120df565b91506121af8288611c62565b91506121ba826120df565b91506121c68287611c62565b91506121d1826120df565b91506121dd8286611c62565b91506121e8826120df565b91506121f48285611c62565b91506121ff826120df565b915061220b8284611c62565b91508190509d9c50505050505050505050505050565b7f4e487b7100000000000000000000000000000000000000000000000000000000600052601260045260246000fdfea26469706673582212200cc2a42bd11fbf2b9c6613f55cae1c344b7dad3431a2dac9e8847cb0f4a285c664736f6c63430008110033",
  "immutableReferences": {},
  "source": "// SPDX-License-Identifier: MIT\npragma solidity >=0.4.2;\n\nimport \"@openzeppelin/contracts/utils/Strings.sol\";\n\ncontract IdChain{\n\n    //Model a IdCard\n    struct IdCard{\n        string name;\n        string surname;\n        string birthDate;\n        string birthPlace;\n        string fiscalCode;\n        string homeAddress;\n        string city;\n        string province;\n        string cap;\n        string phone;\n        string email;\n        uint dataScadenza;\n    }\n\n    event IdCardScaduta(\n        string message\n    );\n\n    event createdIdCard(\n        string name,\n        string surname,\n        string fiscalCode,\n        uint dataScadenza\n    );\n\n    event controlloDataScadenza(\n        uint dataScadenza,\n        uint dataAttuale\n    );\n\n    \n\n    //Store the IdCards\n    //Utilizza gli address come chiave ma potrebbe non essere ottimale\n    //bisogna prevedere un sistema per evitare che una stessa IdCard venga associata a due address diversi\n    //non public per evitare che si possano vedere tutte le IdCards di altre persone\n    //un ID potrebbe essere il codice fiscale ma allo stesso tempo bisogna collegare all'address la struct\n    mapping(address => IdCard) idCards;\n\n    //mapping che contiene tutti codici fiscali registrati associati all'address che l'hanno registrato1\n    mapping(string => address) registeredCF;\n\n    //Store IdCards Count\n    uint public idCardsCount;\n\n    constructor() public{\n        idCardsCount = 0;\n    }\n\n    //crea una nuova IdCard\n    //dobbiamo idearci una verifica dell'identit o qualcosa del genere sen ci dir che non  sicuro\n    function createIdCard(string memory _name, string memory _surname,\n     string memory _birthDate, string memory _birthPlace, string memory _fiscalCode,\n      string memory _homeAddress, string memory _city, string memory _province,\n       string memory _cap, string memory _phone, string memory _email) public {\n        //require that the fiscalCode is not already registered\n        require(registeredCF[_fiscalCode] == address(0));\n        //Require a valid name\n        require(bytes(_name).length > 0);\n        //Require a valid surname\n        require(bytes(_surname).length > 0);\n        //Require a valid birthDate\n        require(bytes(_birthDate).length > 0);\n        //Require a valid birthPlace\n        require(bytes(_birthPlace).length > 0);\n        //Require a valid fiscalCode\n        require(bytes(_fiscalCode).length > 0);\n        //Require a valid homeAddress\n        require(bytes(_homeAddress).length > 0);\n        //Require a valid city\n        require(bytes(_city).length > 0);\n        //Require a valid province\n        require(bytes(_province).length > 0);\n        //Require a valid cap\n        require(bytes(_cap).length > 0);\n        //Require a valid phone\n        require(bytes(_phone).length > 0);\n        //Require a valid email\n        require(bytes(_email).length > 0);\n\n        //Increment IdCards Count\n        idCardsCount ++;\n\n        //calcola la data di scadenza\n        uint dataScadenzaInt = block.timestamp + (10 * 365 days);\n\n        //Create the IdCard\n        idCards[msg.sender] = IdCard(_name, _surname, _birthDate, _birthPlace, _fiscalCode, _homeAddress, _city, _province, _cap, _phone, _email, dataScadenzaInt);\n\n        //Aggiunge il codice fiscale alla lista dei codici fiscali registrati\n        registeredCF[_fiscalCode] = msg.sender;\n\n        //Trigger an event\n        emit createdIdCard(_name, _surname, _fiscalCode, dataScadenzaInt);\n    }\n\n    //Delete an IdCard\n    //pure qui credo vadano messe delle misure di sicurezza ulteriori\n    function deleteIdCard(address _address) public {\n        //Require a valid address\n        require(_address != address(0));\n        //Delete the IdCard\n        delete idCards[_address];\n        //Decrement IdCards Count\n        idCardsCount --;\n    }\n\n    //Read an IdCard\n    //Non credo possa essere public per motivi di sicurezza e quindi andrebbe implementata un nuovo metodo che sfrutti l'autenticazione tramite spring\n    function readIdCard(address _address) public view returns (string memory){\n        //Require a valid address\n        require(_address != address(0));\n        \n        //Return the IdCard\n        IdCard memory idCard = idCards[_address];\n\n        if(bytes(idCard.name).length == 0){\n            return \"La carta non esiste\";\n        }\n\n\n        //controllo sulla data di scadenza\n        if(block.timestamp > idCard.dataScadenza){\n            return \"La carta e' scaduta\";\n        }\n        \n        //se ti stai chiedendo perch ho fatto una cosa del genere  perch solidity  stupido e non permetter di ritornare pi di 5 valori,\n        //quindi ho dovuto concatenare tutto in una stringa e poi ritornarla e poi lato web si fa lo spacchettamento della stringa nei dati che ci servcono\n        return (string(abi.encodePacked(idCard.name,\"//\",idCard.surname ,\"//\" ,idCard.birthDate ,\"//\" ,idCard.birthPlace ,\"//\"\n          ,idCard.fiscalCode ,\"//\" ,idCard.homeAddress ,\"//\" ,idCard.city ,\"//\" ,idCard.province ,\"//\"\n           ,idCard.cap ,\"//\" ,idCard.phone ,\"//\" ,idCard.email ,\"//\" ,Strings.toString(idCard.dataScadenza)))) ;\n    }\n\n    //Authorize with IdCard\n    //Metodo a cui viene passato l'address e che va a verificare la scadenza della card e restituisce un boolean\n    function authorize(address _address) public view returns (bool){\n        //Require a valid address\n        require(_address != address(0));\n        \n        IdCard memory idCard = idCards[_address];\n\n        if(block.timestamp > idCard.dataScadenza){\n            return false;\n        }else{\n            return true;\n        }\n\n    }\n\n\n\n\n\n}\n",
  "sourcePath": "/Users/ater/Documents/Progetti/Web3/idChain/contracts/IdChain.sol",
  "compiler": {
    "name": "solc",
    "version": "0.8.17+commit.8df45f5f.Emscripten.clang"
  },
  "schemaVersion": "3.4.11",
  "updatedAt": "2023-01-18T15:49:47.672Z",
  "networkType": "ethereum",
  "devdoc": {
    "kind": "dev",
    "methods": {},
    "version": 1
  },
  "userdoc": {
    "kind": "user",
    "methods": {},
    "version": 1
  }
}