{
  "contractName": "IdChain",
  "abi": [
    {
      "inputs": [],
      "stateMutability": "nonpayable",
      "type": "constructor"
    },
    {
      "anonymous": false,
      "inputs": [
        {
          "indexed": false,
          "internalType": "string",
          "name": "message",
          "type": "string"
        }
      ],
      "name": "IdCardScaduta",
      "type": "event"
    },
    {
      "anonymous": false,
      "inputs": [
        {
          "indexed": true,
          "internalType": "bytes32",
          "name": "role",
          "type": "bytes32"
        },
        {
          "indexed": true,
          "internalType": "bytes32",
          "name": "previousAdminRole",
          "type": "bytes32"
        },
        {
          "indexed": true,
          "internalType": "bytes32",
          "name": "newAdminRole",
          "type": "bytes32"
        }
      ],
      "name": "RoleAdminChanged",
      "type": "event"
    },
    {
      "anonymous": false,
      "inputs": [
        {
          "indexed": true,
          "internalType": "bytes32",
          "name": "role",
          "type": "bytes32"
        },
        {
          "indexed": true,
          "internalType": "address",
          "name": "account",
          "type": "address"
        },
        {
          "indexed": true,
          "internalType": "address",
          "name": "sender",
          "type": "address"
        }
      ],
      "name": "RoleGranted",
      "type": "event"
    },
    {
      "anonymous": false,
      "inputs": [
        {
          "indexed": true,
          "internalType": "bytes32",
          "name": "role",
          "type": "bytes32"
        },
        {
          "indexed": true,
          "internalType": "address",
          "name": "account",
          "type": "address"
        },
        {
          "indexed": true,
          "internalType": "address",
          "name": "sender",
          "type": "address"
        }
      ],
      "name": "RoleRevoked",
      "type": "event"
    },
    {
      "anonymous": false,
      "inputs": [
        {
          "indexed": false,
          "internalType": "string",
          "name": "name",
          "type": "string"
        },
        {
          "indexed": false,
          "internalType": "string",
          "name": "surname",
          "type": "string"
        },
        {
          "indexed": false,
          "internalType": "string",
          "name": "fiscalCode",
          "type": "string"
        },
        {
          "indexed": false,
          "internalType": "uint256",
          "name": "dataScadenza",
          "type": "uint256"
        }
      ],
      "name": "createdIdCard",
      "type": "event"
    },
    {
      "anonymous": false,
      "inputs": [
        {
          "indexed": false,
          "internalType": "string",
          "name": "name",
          "type": "string"
        },
        {
          "indexed": false,
          "internalType": "string",
          "name": "surname",
          "type": "string"
        },
        {
          "indexed": false,
          "internalType": "string",
          "name": "fiscalCode",
          "type": "string"
        },
        {
          "indexed": false,
          "internalType": "uint256",
          "name": "dataScadenza",
          "type": "uint256"
        }
      ],
      "name": "renewedIdCard",
      "type": "event"
    },
    {
      "inputs": [],
      "name": "DEFAULT_ADMIN_ROLE",
      "outputs": [
        {
          "internalType": "bytes32",
          "name": "",
          "type": "bytes32"
        }
      ],
      "stateMutability": "view",
      "type": "function",
      "constant": true
    },
    {
      "inputs": [
        {
          "internalType": "bytes32",
          "name": "role",
          "type": "bytes32"
        }
      ],
      "name": "getRoleAdmin",
      "outputs": [
        {
          "internalType": "bytes32",
          "name": "",
          "type": "bytes32"
        }
      ],
      "stateMutability": "view",
      "type": "function",
      "constant": true
    },
    {
      "inputs": [
        {
          "internalType": "bytes32",
          "name": "role",
          "type": "bytes32"
        },
        {
          "internalType": "address",
          "name": "account",
          "type": "address"
        }
      ],
      "name": "grantRole",
      "outputs": [],
      "stateMutability": "nonpayable",
      "type": "function"
    },
    {
      "inputs": [
        {
          "internalType": "bytes32",
          "name": "role",
          "type": "bytes32"
        },
        {
          "internalType": "address",
          "name": "account",
          "type": "address"
        }
      ],
      "name": "hasRole",
      "outputs": [
        {
          "internalType": "bool",
          "name": "",
          "type": "bool"
        }
      ],
      "stateMutability": "view",
      "type": "function",
      "constant": true
    },
    {
      "inputs": [],
      "name": "idCardsCount",
      "outputs": [
        {
          "internalType": "uint256",
          "name": "",
          "type": "uint256"
        }
      ],
      "stateMutability": "view",
      "type": "function",
      "constant": true
    },
    {
      "inputs": [
        {
          "internalType": "bytes32",
          "name": "role",
          "type": "bytes32"
        },
        {
          "internalType": "address",
          "name": "account",
          "type": "address"
        }
      ],
      "name": "renounceRole",
      "outputs": [],
      "stateMutability": "nonpayable",
      "type": "function"
    },
    {
      "inputs": [
        {
          "internalType": "bytes32",
          "name": "role",
          "type": "bytes32"
        },
        {
          "internalType": "address",
          "name": "account",
          "type": "address"
        }
      ],
      "name": "revokeRole",
      "outputs": [],
      "stateMutability": "nonpayable",
      "type": "function"
    },
    {
      "inputs": [
        {
          "internalType": "bytes4",
          "name": "interfaceId",
          "type": "bytes4"
        }
      ],
      "name": "supportsInterface",
      "outputs": [
        {
          "internalType": "bool",
          "name": "",
          "type": "bool"
        }
      ],
      "stateMutability": "view",
      "type": "function",
      "constant": true
    },
    {
      "inputs": [
        {
          "internalType": "string",
          "name": "_name",
          "type": "string"
        },
        {
          "internalType": "string",
          "name": "_surname",
          "type": "string"
        },
        {
          "internalType": "string",
          "name": "_birthDate",
          "type": "string"
        },
        {
          "internalType": "string",
          "name": "_birthPlace",
          "type": "string"
        },
        {
          "internalType": "string",
          "name": "_fiscalCode",
          "type": "string"
        },
        {
          "internalType": "string",
          "name": "_homeAddress",
          "type": "string"
        },
        {
          "internalType": "string",
          "name": "_city",
          "type": "string"
        },
        {
          "internalType": "string",
          "name": "_province",
          "type": "string"
        },
        {
          "internalType": "string",
          "name": "_cap",
          "type": "string"
        },
        {
          "internalType": "string",
          "name": "_phone",
          "type": "string"
        },
        {
          "internalType": "string",
          "name": "_password",
          "type": "string"
        }
      ],
      "name": "createIdCard",
      "outputs": [],
      "stateMutability": "nonpayable",
      "type": "function"
    },
    {
      "inputs": [
        {
          "internalType": "string",
          "name": "_password",
          "type": "string"
        }
      ],
      "name": "deleteIdCard",
      "outputs": [
        {
          "internalType": "string",
          "name": "",
          "type": "string"
        }
      ],
      "stateMutability": "nonpayable",
      "type": "function"
    },
    {
      "inputs": [
        {
          "internalType": "address",
          "name": "_address",
          "type": "address"
        },
        {
          "internalType": "string",
          "name": "_password",
          "type": "string"
        }
      ],
      "name": "readIdCard",
      "outputs": [
        {
          "internalType": "string",
          "name": "",
          "type": "string"
        }
      ],
      "stateMutability": "view",
      "type": "function",
      "constant": true
    },
    {
      "inputs": [
        {
          "internalType": "string",
          "name": "_password",
          "type": "string"
        }
      ],
      "name": "authorize",
      "outputs": [
        {
          "internalType": "string",
          "name": "",
          "type": "string"
        }
      ],
      "stateMutability": "view",
      "type": "function",
      "constant": true
    },
    {
      "inputs": [
        {
          "internalType": "string",
          "name": "_password",
          "type": "string"
        }
      ],
      "name": "renewIdCard",
      "outputs": [
        {
          "internalType": "string",
          "name": "",
          "type": "string"
        }
      ],
      "stateMutability": "nonpayable",
      "type": "function"
    }
  ],
  "bytecode": "0x60806040523480156200001157600080fd5b5060006003819055506040518061018001604052806040518060400160405280600481526020017f546573740000000000000000000000000000000000000000000000000000000081525081526020016040518060400160405280600581526020017f546573743100000000000000000000000000000000000000000000000000000081525081526020016040518060400160405280600a81526020017f32342f30332f323030300000000000000000000000000000000000000000000081525081526020016040518060400160405280600881526020017f4176656c6c696e6f00000000000000000000000000000000000000000000000081525081526020016040518060400160405280600a81526020017f4d52534e4452303032320000000000000000000000000000000000000000000081525081526020016040518060400160405280600b81526020017f566961205669612056696100000000000000000000000000000000000000000081525081526020016040518060400160405280600881526020017f4176656c6c696e6f00000000000000000000000000000000000000000000000081525081526020016040518060400160405280600281526020017f415600000000000000000000000000000000000000000000000000000000000081525081526020016040518060400160405280600581526020017f383331303000000000000000000000000000000000000000000000000000000081525081526020016040518060400160405280600a81526020017f333331313234323333360000000000000000000000000000000000000000000081525081526020016361e97842815260200160405180606001604052806040815260200162004ebd604091398152506001600073ae58aacc644bad5dc2142e4d57890dc95363eb3d73ffffffffffffffffffffffffffffffffffffffff1673ffffffffffffffffffffffffffffffffffffffff1681526020019081526020016000206000820151816000019081620003059190620008bb565b5060208201518160010190816200031d9190620008bb565b506040820151816002019081620003359190620008bb565b5060608201518160030190816200034d9190620008bb565b506080820151816004019081620003659190620008bb565b5060a08201518160050190816200037d9190620008bb565b5060c0820151816006019081620003959190620008bb565b5060e0820151816007019081620003ad9190620008bb565b50610100820151816008019081620003c69190620008bb565b50610120820151816009019081620003df9190620008bb565b5061014082015181600a015561016082015181600b019081620004039190620008bb565b50905050600360008154809291906200041c90620009d1565b919050555073ae58aacc644bad5dc2142e4d57890dc95363eb3d6002604051620004469062000a79565b908152602001604051809103902060006101000a81548173ffffffffffffffffffffffffffffffffffffffff021916908373ffffffffffffffffffffffffffffffffffffffff160217905550620004d87fa49807205ce4d355092ef5a8a18f56e8913cf4a201fbe287825b095693c2177573ae58aacc644bad5dc2142e4d57890dc95363eb3d620004de60201b60201c565b62000a90565b620004f08282620005cf60201b60201c565b620005cb57600160008084815260200190815260200160002060000160008373ffffffffffffffffffffffffffffffffffffffff1673ffffffffffffffffffffffffffffffffffffffff16815260200190815260200160002060006101000a81548160ff021916908315150217905550620005706200063960201b60201c565b73ffffffffffffffffffffffffffffffffffffffff168173ffffffffffffffffffffffffffffffffffffffff16837f2f8788117e7eff1d82e926ec794901d17c78024a50270940304540a733656f0d60405160405180910390a45b5050565b600080600084815260200190815260200160002060000160008373ffffffffffffffffffffffffffffffffffffffff1673ffffffffffffffffffffffffffffffffffffffff16815260200190815260200160002060009054906101000a900460ff16905092915050565b600033905090565b600081519050919050565b7f4e487b7100000000000000000000000000000000000000000000000000000000600052604160045260246000fd5b7f4e487b7100000000000000000000000000000000000000000000000000000000600052602260045260246000fd5b60006002820490506001821680620006c357607f821691505b602082108103620006d957620006d86200067b565b5b50919050565b60008190508160005260206000209050919050565b60006020601f8301049050919050565b600082821b905092915050565b600060088302620007437fffffffffffffffffffffffffffffffffffffffffffffffffffffffffffffffff8262000704565b6200074f868362000704565b95508019841693508086168417925050509392505050565b6000819050919050565b6000819050919050565b60006200079c62000796620007908462000767565b62000771565b62000767565b9050919050565b6000819050919050565b620007b8836200077b565b620007d0620007c782620007a3565b84845462000711565b825550505050565b600090565b620007e7620007d8565b620007f4818484620007ad565b505050565b5b818110156200081c5762000810600082620007dd565b600181019050620007fa565b5050565b601f8211156200086b576200083581620006df565b6200084084620006f4565b8101602085101562000850578190505b620008686200085f85620006f4565b830182620007f9565b50505b505050565b600082821c905092915050565b6000620008906000198460080262000870565b1980831691505092915050565b6000620008ab83836200087d565b9150826002028217905092915050565b620008c68262000641565b67ffffffffffffffff811115620008e257620008e16200064c565b5b620008ee8254620006aa565b620008fb82828562000820565b600060209050601f8311600181146200093357600084156200091e578287015190505b6200092a85826200089d565b8655506200099a565b601f1984166200094386620006df565b60005b828110156200096d5784890151825560018201915060208501945060208101905062000946565b868310156200098d578489015162000989601f8916826200087d565b8355505b6001600288020188555050505b505050505050565b7f4e487b7100000000000000000000000000000000000000000000000000000000600052601160045260246000fd5b6000620009de8262000767565b91507fffffffffffffffffffffffffffffffffffffffffffffffffffffffffffffffff820362000a135762000a12620009a2565b5b600182019050919050565b600081905092915050565b7f4d52534e44523030323200000000000000000000000000000000000000000000600082015250565b600062000a61600a8362000a1e565b915062000a6e8262000a29565b600a82019050919050565b600062000a868262000a52565b9150819050919050565b61441d8062000aa06000396000f3fe608060405234801561001057600080fd5b50600436106100cf5760003560e01c80633c9e293d1161008c578063a217fddf11610066578063a217fddf14610248578063a6a432f714610266578063c583685314610284578063d547741f146102b4576100cf565b80633c9e293d146101b85780634f5fcb34146101e857806391d1485414610218576100cf565b806301ffc9a7146100d45780631ef29baf14610104578063248a9ca3146101345780632f2ff15d1461016457806335fb3fd31461018057806336568abe1461019c575b600080fd5b6100ee60048036038101906100e9919061351c565b6102d0565b6040516100fb9190613564565b60405180910390f35b61011e60048036038101906101199190613723565b61034a565b60405161012b91906137fe565b60405180910390f35b61014e60048036038101906101499190613856565b610be9565b60405161015b9190613892565b60405180910390f35b61017e600480360381019061017991906138ad565b610c08565b005b61019a600480360381019061019591906138ed565b610c29565b005b6101b660048036038101906101b191906138ad565b610f94565b005b6101d260048036038101906101cd9190613b15565b611017565b6040516101df91906137fe565b60405180910390f35b61020260048036038101906101fd9190613b15565b611923565b60405161020f91906137fe565b60405180910390f35b610232600480360381019061022d91906138ad565b61214b565b60405161023f9190613564565b60405180910390f35b6102506121b5565b60405161025d9190613892565b60405180910390f35b61026e6121bc565b60405161027b9190613b77565b60405180910390f35b61029e60048036038101906102999190613b15565b6121c2565b6040516102ab91906137fe565b60405180910390f35b6102ce60048036038101906102c991906138ad565b612cdc565b005b60007f7965db0b000000000000000000000000000000000000000000000000000000007bffffffffffffffffffffffffffffffffffffffffffffffffffffffff1916827bffffffffffffffffffffffffffffffffffffffffffffffffffffffff19161480610343575061034282612cfd565b5b9050919050565b606060006103787fa49807205ce4d355092ef5a8a18f56e8913cf4a201fbe287825b095693c217753361214b565b1561038557839050610389565b3390505b600073ffffffffffffffffffffffffffffffffffffffff168173ffffffffffffffffffffffffffffffffffffffff16036103c257600080fd5b6000600160008373ffffffffffffffffffffffffffffffffffffffff1673ffffffffffffffffffffffffffffffffffffffff1681526020019081526020016000206040518061018001604052908160008201805461041f90613bc1565b80601f016020809104026020016040519081016040528092919081815260200182805461044b90613bc1565b80156104985780601f1061046d57610100808354040283529160200191610498565b820191906000526020600020905b81548152906001019060200180831161047b57829003601f168201915b505050505081526020016001820180546104b190613bc1565b80601f01602080910402602001604051908101604052809291908181526020018280546104dd90613bc1565b801561052a5780601f106104ff5761010080835404028352916020019161052a565b820191906000526020600020905b81548152906001019060200180831161050d57829003601f168201915b5050505050815260200160028201805461054390613bc1565b80601f016020809104026020016040519081016040528092919081815260200182805461056f90613bc1565b80156105bc5780601f10610591576101008083540402835291602001916105bc565b820191906000526020600020905b81548152906001019060200180831161059f57829003601f168201915b505050505081526020016003820180546105d590613bc1565b80601f016020809104026020016040519081016040528092919081815260200182805461060190613bc1565b801561064e5780601f106106235761010080835404028352916020019161064e565b820191906000526020600020905b81548152906001019060200180831161063157829003601f168201915b5050505050815260200160048201805461066790613bc1565b80601f016020809104026020016040519081016040528092919081815260200182805461069390613bc1565b80156106e05780601f106106b5576101008083540402835291602001916106e0565b820191906000526020600020905b8154815290600101906020018083116106c357829003601f168201915b505050505081526020016005820180546106f990613bc1565b80601f016020809104026020016040519081016040528092919081815260200182805461072590613bc1565b80156107725780601f1061074757610100808354040283529160200191610772565b820191906000526020600020905b81548152906001019060200180831161075557829003601f168201915b5050505050815260200160068201805461078b90613bc1565b80601f01602080910402602001604051908101604052809291908181526020018280546107b790613bc1565b80156108045780601f106107d957610100808354040283529160200191610804565b820191906000526020600020905b8154815290600101906020018083116107e757829003601f168201915b5050505050815260200160078201805461081d90613bc1565b80601f016020809104026020016040519081016040528092919081815260200182805461084990613bc1565b80156108965780601f1061086b57610100808354040283529160200191610896565b820191906000526020600020905b81548152906001019060200180831161087957829003601f168201915b505050505081526020016008820180546108af90613bc1565b80601f01602080910402602001604051908101604052809291908181526020018280546108db90613bc1565b80156109285780601f106108fd57610100808354040283529160200191610928565b820191906000526020600020905b81548152906001019060200180831161090b57829003601f168201915b5050505050815260200160098201805461094190613bc1565b80601f016020809104026020016040519081016040528092919081815260200182805461096d90613bc1565b80156109ba5780601f1061098f576101008083540402835291602001916109ba565b820191906000526020600020905b81548152906001019060200180831161099d57829003601f168201915b50505050508152602001600a8201548152602001600b820180546109dd90613bc1565b80601f0160208091040260200160405190810160405280929190818152602001828054610a0990613bc1565b8015610a565780601f10610a2b57610100808354040283529160200191610a56565b820191906000526020600020905b815481529060010190602001808311610a3957829003601f168201915b5050505050815250509050600081600001515103610aad576040518060400160405280601381526020017f4c61206361727461206e6f6e206573697374650000000000000000000000000081525092505050610be3565b83604051602001610abe9190613c2e565b60405160208183030381529060405280519060200120816101600151604051602001610aea9190613c2e565b6040516020818303038152906040528051906020012014610b44576040518060400160405280600f81526020017f50617373776f726420657272617461000000000000000000000000000000000081525092505050610be3565b806101400151421115610b73576040518060600160405280603381526020016143b56033913992505050610be3565b806000015181602001518260400151836060015184608001518560a001518660c001518760e00151886101000151896101200151610bb58b6101400151612d67565b604051602001610bcf9b9a99989796959493929190613c91565b604051602081830303815290604052925050505b92915050565b6000806000838152602001908152602001600020600101549050919050565b610c1182610be9565b610c1a81612e35565b610c248383612e49565b505050565b600073ffffffffffffffffffffffffffffffffffffffff16600288604051610c519190613c2e565b908152602001604051809103902060009054906101000a900473ffffffffffffffffffffffffffffffffffffffff1673ffffffffffffffffffffffffffffffffffffffff1614610ca057600080fd5b60008b5111610cae57600080fd5b60008a5111610cbc57600080fd5b6000895111610cca57600080fd5b6000885111610cd857600080fd5b6000875111610ce657600080fd5b6000865111610cf457600080fd5b6000855111610d0257600080fd5b6000845111610d1057600080fd5b6000835111610d1e57600080fd5b6000825111610d2c57600080fd5b60036000815480929190610d3f90613dc7565b919050555060006312cc030042610d569190613e0f565b90506040518061018001604052808d81526020018c81526020018b81526020018a815260200189815260200188815260200187815260200186815260200185815260200184815260200182815260200183815250600160003373ffffffffffffffffffffffffffffffffffffffff1673ffffffffffffffffffffffffffffffffffffffff1681526020019081526020016000206000820151816000019081610dfe9190613fef565b506020820151816001019081610e149190613fef565b506040820151816002019081610e2a9190613fef565b506060820151816003019081610e409190613fef565b506080820151816004019081610e569190613fef565b5060a0820151816005019081610e6c9190613fef565b5060c0820151816006019081610e829190613fef565b5060e0820151816007019081610e989190613fef565b50610100820151816008019081610eaf9190613fef565b50610120820151816009019081610ec69190613fef565b5061014082015181600a015561016082015181600b019081610ee89190613fef565b5090505033600289604051610efd9190613c2e565b908152602001604051809103902060006101000a81548173ffffffffffffffffffffffffffffffffffffffff021916908373ffffffffffffffffffffffffffffffffffffffff1602179055507fea0e21aa925590127eb9530746cf0f19e2b823e70c4186ee283ad7bad6bf7d698c8c8a84604051610f7e94939291906140c1565b60405180910390a1505050505050505050505050565b610f9c612f29565b73ffffffffffffffffffffffffffffffffffffffff168173ffffffffffffffffffffffffffffffffffffffff1614611009576040517f08c379a00000000000000000000000000000000000000000000000000000000081526004016110009061418d565b60405180910390fd5b6110138282612f31565b5050565b6060600073ffffffffffffffffffffffffffffffffffffffff163373ffffffffffffffffffffffffffffffffffffffff160361105257600080fd5b6000600160003373ffffffffffffffffffffffffffffffffffffffff1673ffffffffffffffffffffffffffffffffffffffff168152602001908152602001600020604051806101800160405290816000820180546110af90613bc1565b80601f01602080910402602001604051908101604052809291908181526020018280546110db90613bc1565b80156111285780601f106110fd57610100808354040283529160200191611128565b820191906000526020600020905b81548152906001019060200180831161110b57829003601f168201915b5050505050815260200160018201805461114190613bc1565b80601f016020809104026020016040519081016040528092919081815260200182805461116d90613bc1565b80156111ba5780601f1061118f576101008083540402835291602001916111ba565b820191906000526020600020905b81548152906001019060200180831161119d57829003601f168201915b505050505081526020016002820180546111d390613bc1565b80601f01602080910402602001604051908101604052809291908181526020018280546111ff90613bc1565b801561124c5780601f106112215761010080835404028352916020019161124c565b820191906000526020600020905b81548152906001019060200180831161122f57829003601f168201915b5050505050815260200160038201805461126590613bc1565b80601f016020809104026020016040519081016040528092919081815260200182805461129190613bc1565b80156112de5780601f106112b3576101008083540402835291602001916112de565b820191906000526020600020905b8154815290600101906020018083116112c157829003601f168201915b505050505081526020016004820180546112f790613bc1565b80601f016020809104026020016040519081016040528092919081815260200182805461132390613bc1565b80156113705780601f1061134557610100808354040283529160200191611370565b820191906000526020600020905b81548152906001019060200180831161135357829003601f168201915b5050505050815260200160058201805461138990613bc1565b80601f01602080910402602001604051908101604052809291908181526020018280546113b590613bc1565b80156114025780601f106113d757610100808354040283529160200191611402565b820191906000526020600020905b8154815290600101906020018083116113e557829003601f168201915b5050505050815260200160068201805461141b90613bc1565b80601f016020809104026020016040519081016040528092919081815260200182805461144790613bc1565b80156114945780601f1061146957610100808354040283529160200191611494565b820191906000526020600020905b81548152906001019060200180831161147757829003601f168201915b505050505081526020016007820180546114ad90613bc1565b80601f01602080910402602001604051908101604052809291908181526020018280546114d990613bc1565b80156115265780601f106114fb57610100808354040283529160200191611526565b820191906000526020600020905b81548152906001019060200180831161150957829003601f168201915b5050505050815260200160088201805461153f90613bc1565b80601f016020809104026020016040519081016040528092919081815260200182805461156b90613bc1565b80156115b85780601f1061158d576101008083540402835291602001916115b8565b820191906000526020600020905b81548152906001019060200180831161159b57829003601f168201915b505050505081526020016009820180546115d190613bc1565b80601f01602080910402602001604051908101604052809291908181526020018280546115fd90613bc1565b801561164a5780601f1061161f5761010080835404028352916020019161164a565b820191906000526020600020905b81548152906001019060200180831161162d57829003601f168201915b50505050508152602001600a8201548152602001600b8201805461166d90613bc1565b80601f016020809104026020016040519081016040528092919081815260200182805461169990613bc1565b80156116e65780601f106116bb576101008083540402835291602001916116e6565b820191906000526020600020905b8154815290600101906020018083116116c957829003601f168201915b505050505081525050905060008160000151510361173c576040518060400160405280601381526020017f4c61206361727461206e6f6e206573697374650000000000000000000000000081525091505061191e565b8260405160200161174d9190613c2e565b604051602081830303815290604052805190602001208161016001516040516020016117799190613c2e565b60405160208183030381529060405280519060200120146117d2576040518060400160405280600f81526020017f50617373776f726420657272617461000000000000000000000000000000000081525091505061191e565b600160003373ffffffffffffffffffffffffffffffffffffffff1673ffffffffffffffffffffffffffffffffffffffff168152602001908152602001600020600080820160006118229190613453565b6001820160006118329190613453565b6002820160006118429190613453565b6003820160006118529190613453565b6004820160006118629190613453565b6005820160006118729190613453565b6006820160006118829190613453565b6007820160006118929190613453565b6008820160006118a29190613453565b6009820160006118b29190613453565b600a820160009055600b820160006118ca9190613453565b5050600360008154809291906118df906141ad565b91905055506040518060400160405280601c81526020017f436172746120456c696d696e61746120636f6e20737563636573736f000000008152509150505b919050565b6060600073ffffffffffffffffffffffffffffffffffffffff163373ffffffffffffffffffffffffffffffffffffffff160361195e57600080fd5b6000600160003373ffffffffffffffffffffffffffffffffffffffff1673ffffffffffffffffffffffffffffffffffffffff168152602001908152602001600020604051806101800160405290816000820180546119bb90613bc1565b80601f01602080910402602001604051908101604052809291908181526020018280546119e790613bc1565b8015611a345780601f10611a0957610100808354040283529160200191611a34565b820191906000526020600020905b815481529060010190602001808311611a1757829003601f168201915b50505050508152602001600182018054611a4d90613bc1565b80601f0160208091040260200160405190810160405280929190818152602001828054611a7990613bc1565b8015611ac65780601f10611a9b57610100808354040283529160200191611ac6565b820191906000526020600020905b815481529060010190602001808311611aa957829003601f168201915b50505050508152602001600282018054611adf90613bc1565b80601f0160208091040260200160405190810160405280929190818152602001828054611b0b90613bc1565b8015611b585780601f10611b2d57610100808354040283529160200191611b58565b820191906000526020600020905b815481529060010190602001808311611b3b57829003601f168201915b50505050508152602001600382018054611b7190613bc1565b80601f0160208091040260200160405190810160405280929190818152602001828054611b9d90613bc1565b8015611bea5780601f10611bbf57610100808354040283529160200191611bea565b820191906000526020600020905b815481529060010190602001808311611bcd57829003601f168201915b50505050508152602001600482018054611c0390613bc1565b80601f0160208091040260200160405190810160405280929190818152602001828054611c2f90613bc1565b8015611c7c5780601f10611c5157610100808354040283529160200191611c7c565b820191906000526020600020905b815481529060010190602001808311611c5f57829003601f168201915b50505050508152602001600582018054611c9590613bc1565b80601f0160208091040260200160405190810160405280929190818152602001828054611cc190613bc1565b8015611d0e5780601f10611ce357610100808354040283529160200191611d0e565b820191906000526020600020905b815481529060010190602001808311611cf157829003601f168201915b50505050508152602001600682018054611d2790613bc1565b80601f0160208091040260200160405190810160405280929190818152602001828054611d5390613bc1565b8015611da05780601f10611d7557610100808354040283529160200191611da0565b820191906000526020600020905b815481529060010190602001808311611d8357829003601f168201915b50505050508152602001600782018054611db990613bc1565b80601f0160208091040260200160405190810160405280929190818152602001828054611de590613bc1565b8015611e325780601f10611e0757610100808354040283529160200191611e32565b820191906000526020600020905b815481529060010190602001808311611e1557829003601f168201915b50505050508152602001600882018054611e4b90613bc1565b80601f0160208091040260200160405190810160405280929190818152602001828054611e7790613bc1565b8015611ec45780601f10611e9957610100808354040283529160200191611ec4565b820191906000526020600020905b815481529060010190602001808311611ea757829003601f168201915b50505050508152602001600982018054611edd90613bc1565b80601f0160208091040260200160405190810160405280929190818152602001828054611f0990613bc1565b8015611f565780601f10611f2b57610100808354040283529160200191611f56565b820191906000526020600020905b815481529060010190602001808311611f3957829003601f168201915b50505050508152602001600a8201548152602001600b82018054611f7990613bc1565b80601f0160208091040260200160405190810160405280929190818152602001828054611fa590613bc1565b8015611ff25780601f10611fc757610100808354040283529160200191611ff2565b820191906000526020600020905b815481529060010190602001808311611fd557829003601f168201915b5050505050815250509050600081600001515103612048576040518060400160405280601381526020017f4c61206361727461206e6f6e2065736973746500000000000000000000000000815250915050612146565b826040516020016120599190613c2e565b604051602081830303815290604052805190602001208161016001516040516020016120859190613c2e565b60405160208183030381529060405280519060200120146120de576040518060400160405280600f81526020017f50617373776f7264206572726174610000000000000000000000000000000000815250915050612146565b80610140015142111561210c576040518060600160405280603381526020016143b560339139915050612146565b6040518060400160405280600b81526020017f4175746f72697a7a61746f0000000000000000000000000000000000000000008152509150505b919050565b600080600084815260200190815260200160002060000160008373ffffffffffffffffffffffffffffffffffffffff1673ffffffffffffffffffffffffffffffffffffffff16815260200190815260200160002060009054906101000a900460ff16905092915050565b6000801b81565b60035481565b6060600073ffffffffffffffffffffffffffffffffffffffff163373ffffffffffffffffffffffffffffffffffffffff16036121fd57600080fd5b6000600160003373ffffffffffffffffffffffffffffffffffffffff1673ffffffffffffffffffffffffffffffffffffffff1681526020019081526020016000206040518061018001604052908160008201805461225a90613bc1565b80601f016020809104026020016040519081016040528092919081815260200182805461228690613bc1565b80156122d35780601f106122a8576101008083540402835291602001916122d3565b820191906000526020600020905b8154815290600101906020018083116122b657829003601f168201915b505050505081526020016001820180546122ec90613bc1565b80601f016020809104026020016040519081016040528092919081815260200182805461231890613bc1565b80156123655780601f1061233a57610100808354040283529160200191612365565b820191906000526020600020905b81548152906001019060200180831161234857829003601f168201915b5050505050815260200160028201805461237e90613bc1565b80601f01602080910402602001604051908101604052809291908181526020018280546123aa90613bc1565b80156123f75780601f106123cc576101008083540402835291602001916123f7565b820191906000526020600020905b8154815290600101906020018083116123da57829003601f168201915b5050505050815260200160038201805461241090613bc1565b80601f016020809104026020016040519081016040528092919081815260200182805461243c90613bc1565b80156124895780601f1061245e57610100808354040283529160200191612489565b820191906000526020600020905b81548152906001019060200180831161246c57829003601f168201915b505050505081526020016004820180546124a290613bc1565b80601f01602080910402602001604051908101604052809291908181526020018280546124ce90613bc1565b801561251b5780601f106124f05761010080835404028352916020019161251b565b820191906000526020600020905b8154815290600101906020018083116124fe57829003601f168201915b5050505050815260200160058201805461253490613bc1565b80601f016020809104026020016040519081016040528092919081815260200182805461256090613bc1565b80156125ad5780601f10612582576101008083540402835291602001916125ad565b820191906000526020600020905b81548152906001019060200180831161259057829003601f168201915b505050505081526020016006820180546125c690613bc1565b80601f01602080910402602001604051908101604052809291908181526020018280546125f290613bc1565b801561263f5780601f106126145761010080835404028352916020019161263f565b820191906000526020600020905b81548152906001019060200180831161262257829003601f168201915b5050505050815260200160078201805461265890613bc1565b80601f016020809104026020016040519081016040528092919081815260200182805461268490613bc1565b80156126d15780601f106126a6576101008083540402835291602001916126d1565b820191906000526020600020905b8154815290600101906020018083116126b457829003601f168201915b505050505081526020016008820180546126ea90613bc1565b80601f016020809104026020016040519081016040528092919081815260200182805461271690613bc1565b80156127635780601f1061273857610100808354040283529160200191612763565b820191906000526020600020905b81548152906001019060200180831161274657829003601f168201915b5050505050815260200160098201805461277c90613bc1565b80601f01602080910402602001604051908101604052809291908181526020018280546127a890613bc1565b80156127f55780601f106127ca576101008083540402835291602001916127f5565b820191906000526020600020905b8154815290600101906020018083116127d857829003601f168201915b50505050508152602001600a8201548152602001600b8201805461281890613bc1565b80601f016020809104026020016040519081016040528092919081815260200182805461284490613bc1565b80156128915780601f1061286657610100808354040283529160200191612891565b820191906000526020600020905b81548152906001019060200180831161287457829003601f168201915b50505050508152505090506000816000015151036128e7576040518060400160405280601381526020017f4c61206361727461206e6f6e2065736973746500000000000000000000000000815250915050612cd7565b826040516020016128f89190613c2e565b604051602081830303815290604052805190602001208161016001516040516020016129249190613c2e565b604051602081830303815290604052805190602001201461297d576040518060400160405280600f81526020017f50617373776f7264206572726174610000000000000000000000000000000000815250915050612cd7565b60006312cc03004261298f9190613e0f565b9050600160003373ffffffffffffffffffffffffffffffffffffffff1673ffffffffffffffffffffffffffffffffffffffff168152602001908152602001600020600080820160006129e19190613453565b6001820160006129f19190613453565b600282016000612a019190613453565b600382016000612a119190613453565b600482016000612a219190613453565b600582016000612a319190613453565b600682016000612a419190613453565b600782016000612a519190613453565b600882016000612a619190613453565b600982016000612a719190613453565b600a820160009055600b82016000612a899190613453565b505060405180610180016040528083600001518152602001836020015181526020018360400151815260200183606001518152602001836080015181526020018360a0015181526020018360c0015181526020018360e00151815260200183610100015181526020018361012001518152602001828152602001836101600151815250600160003373ffffffffffffffffffffffffffffffffffffffff1673ffffffffffffffffffffffffffffffffffffffff1681526020019081526020016000206000820151816000019081612b609190613fef565b506020820151816001019081612b769190613fef565b506040820151816002019081612b8c9190613fef565b506060820151816003019081612ba29190613fef565b506080820151816004019081612bb89190613fef565b5060a0820151816005019081612bce9190613fef565b5060c0820151816006019081612be49190613fef565b5060e0820151816007019081612bfa9190613fef565b50610100820151816008019081612c119190613fef565b50610120820151816009019081612c289190613fef565b5061014082015181600a015561016082015181600b019081612c4a9190613fef565b509050507fd7301a1875e612aa83866dfed9015b7be44e76535dfeafbbd5597a022aba92e8826000015183602001518460800151856101400151604051612c9494939291906140c1565b60405180910390a16040518060400160405280601c81526020017f43617274612072696e6e6f7661746120636f6e20737563636573736f00000000815250925050505b919050565b612ce582610be9565b612cee81612e35565b612cf88383612f31565b505050565b60007f01ffc9a7000000000000000000000000000000000000000000000000000000007bffffffffffffffffffffffffffffffffffffffffffffffffffffffff1916827bffffffffffffffffffffffffffffffffffffffffffffffffffffffff1916149050919050565b606060006001612d7684613012565b01905060008167ffffffffffffffff811115612d9557612d946135f8565b5b6040519080825280601f01601f191660200182016040528015612dc75781602001600182028036833780820191505090505b509050600082602001820190505b600115612e2a578080600190039150507f3031323334353637383961626364656600000000000000000000000000000000600a86061a8153600a8581612e1e57612e1d6141d6565b5b04945060008503612dd5575b819350505050919050565b612e4681612e41612f29565b613165565b50565b612e53828261214b565b612f2557600160008084815260200190815260200160002060000160008373ffffffffffffffffffffffffffffffffffffffff1673ffffffffffffffffffffffffffffffffffffffff16815260200190815260200160002060006101000a81548160ff021916908315150217905550612eca612f29565b73ffffffffffffffffffffffffffffffffffffffff168173ffffffffffffffffffffffffffffffffffffffff16837f2f8788117e7eff1d82e926ec794901d17c78024a50270940304540a733656f0d60405160405180910390a45b5050565b600033905090565b612f3b828261214b565b1561300e57600080600084815260200190815260200160002060000160008373ffffffffffffffffffffffffffffffffffffffff1673ffffffffffffffffffffffffffffffffffffffff16815260200190815260200160002060006101000a81548160ff021916908315150217905550612fb3612f29565b73ffffffffffffffffffffffffffffffffffffffff168173ffffffffffffffffffffffffffffffffffffffff16837ff6391f5c32d9c69d2a47ea670b442974b53935d1edc7fd64eb21e047a839171b60405160405180910390a45b5050565b600080600090507a184f03e93ff9f4daa797ed6e38ed64bf6a1f0100000000000000008310613070577a184f03e93ff9f4daa797ed6e38ed64bf6a1f0100000000000000008381613066576130656141d6565b5b0492506040810190505b6d04ee2d6d415b85acef810000000083106130ad576d04ee2d6d415b85acef810000000083816130a3576130a26141d6565b5b0492506020810190505b662386f26fc1000083106130dc57662386f26fc1000083816130d2576130d16141d6565b5b0492506010810190505b6305f5e1008310613105576305f5e10083816130fb576130fa6141d6565b5b0492506008810190505b612710831061312a5761271083816131205761311f6141d6565b5b0492506004810190505b6064831061314d5760648381613143576131426141d6565b5b0492506002810190505b600a831061315c576001810190505b80915050919050565b61316f828261214b565b6131e65761317c816131ea565b61318a8360001c6020613217565b60405160200161319b92919061429d565b6040516020818303038152906040526040517f08c379a00000000000000000000000000000000000000000000000000000000081526004016131dd91906137fe565b60405180910390fd5b5050565b60606132108273ffffffffffffffffffffffffffffffffffffffff16601460ff16613217565b9050919050565b60606000600283600261322a91906142d7565b6132349190613e0f565b67ffffffffffffffff81111561324d5761324c6135f8565b5b6040519080825280601f01601f19166020018201604052801561327f5781602001600182028036833780820191505090505b5090507f3000000000000000000000000000000000000000000000000000000000000000816000815181106132b7576132b6614319565b5b60200101907effffffffffffffffffffffffffffffffffffffffffffffffffffffffffffff1916908160001a9053507f78000000000000000000000000000000000000000000000000000000000000008160018151811061331b5761331a614319565b5b60200101907effffffffffffffffffffffffffffffffffffffffffffffffffffffffffffff1916908160001a9053506000600184600261335b91906142d7565b6133659190613e0f565b90505b6001811115613405577f3031323334353637383961626364656600000000000000000000000000000000600f8616601081106133a7576133a6614319565b5b1a60f81b8282815181106133be576133bd614319565b5b60200101907effffffffffffffffffffffffffffffffffffffffffffffffffffffffffffff1916908160001a905350600485901c9450806133fe906141ad565b9050613368565b5060008414613449576040517f08c379a000000000000000000000000000000000000000000000000000000000815260040161344090614394565b60405180910390fd5b8091505092915050565b50805461345f90613bc1565b6000825580601f106134715750613490565b601f01602090049060005260206000209081019061348f9190613493565b5b50565b5b808211156134ac576000816000905550600101613494565b5090565b6000604051905090565b600080fd5b600080fd5b60007fffffffff0000000000000000000000000000000000000000000000000000000082169050919050565b6134f9816134c4565b811461350457600080fd5b50565b600081359050613516816134f0565b92915050565b600060208284031215613532576135316134ba565b5b600061354084828501613507565b91505092915050565b60008115159050919050565b61355e81613549565b82525050565b60006020820190506135796000830184613555565b92915050565b600073ffffffffffffffffffffffffffffffffffffffff82169050919050565b60006135aa8261357f565b9050919050565b6135ba8161359f565b81146135c557600080fd5b50565b6000813590506135d7816135b1565b92915050565b600080fd5b600080fd5b6000601f19601f8301169050919050565b7f4e487b7100000000000000000000000000000000000000000000000000000000600052604160045260246000fd5b613630826135e7565b810181811067ffffffffffffffff8211171561364f5761364e6135f8565b5b80604052505050565b60006136626134b0565b905061366e8282613627565b919050565b600067ffffffffffffffff82111561368e5761368d6135f8565b5b613697826135e7565b9050602081019050919050565b82818337600083830152505050565b60006136c66136c184613673565b613658565b9050828152602081018484840111156136e2576136e16135e2565b5b6136ed8482856136a4565b509392505050565b600082601f83011261370a576137096135dd565b5b813561371a8482602086016136b3565b91505092915050565b6000806040838503121561373a576137396134ba565b5b6000613748858286016135c8565b925050602083013567ffffffffffffffff811115613769576137686134bf565b5b613775858286016136f5565b9150509250929050565b600081519050919050565b600082825260208201905092915050565b60005b838110156137b957808201518184015260208101905061379e565b60008484015250505050565b60006137d08261377f565b6137da818561378a565b93506137ea81856020860161379b565b6137f3816135e7565b840191505092915050565b6000602082019050818103600083015261381881846137c5565b905092915050565b6000819050919050565b61383381613820565b811461383e57600080fd5b50565b6000813590506138508161382a565b92915050565b60006020828403121561386c5761386b6134ba565b5b600061387a84828501613841565b91505092915050565b61388c81613820565b82525050565b60006020820190506138a76000830184613883565b92915050565b600080604083850312156138c4576138c36134ba565b5b60006138d285828601613841565b92505060206138e3858286016135c8565b9150509250929050565b60008060008060008060008060008060006101608c8e031215613913576139126134ba565b5b60008c013567ffffffffffffffff811115613931576139306134bf565b5b61393d8e828f016136f5565b9b505060208c013567ffffffffffffffff81111561395e5761395d6134bf565b5b61396a8e828f016136f5565b9a505060408c013567ffffffffffffffff81111561398b5761398a6134bf565b5b6139978e828f016136f5565b99505060608c013567ffffffffffffffff8111156139b8576139b76134bf565b5b6139c48e828f016136f5565b98505060808c013567ffffffffffffffff8111156139e5576139e46134bf565b5b6139f18e828f016136f5565b97505060a08c013567ffffffffffffffff811115613a1257613a116134bf565b5b613a1e8e828f016136f5565b96505060c08c013567ffffffffffffffff811115613a3f57613a3e6134bf565b5b613a4b8e828f016136f5565b95505060e08c013567ffffffffffffffff811115613a6c57613a6b6134bf565b5b613a788e828f016136f5565b9450506101008c013567ffffffffffffffff811115613a9a57613a996134bf565b5b613aa68e828f016136f5565b9350506101208c013567ffffffffffffffff811115613ac857613ac76134bf565b5b613ad48e828f016136f5565b9250506101408c013567ffffffffffffffff811115613af657613af56134bf565b5b613b028e828f016136f5565b9150509295989b509295989b9093969950565b600060208284031215613b2b57613b2a6134ba565b5b600082013567ffffffffffffffff811115613b4957613b486134bf565b5b613b55848285016136f5565b91505092915050565b6000819050919050565b613b7181613b5e565b82525050565b6000602082019050613b8c6000830184613b68565b92915050565b7f4e487b7100000000000000000000000000000000000000000000000000000000600052602260045260246000fd5b60006002820490506001821680613bd957607f821691505b602082108103613bec57613beb613b92565b5b50919050565b600081905092915050565b6000613c088261377f565b613c128185613bf2565b9350613c2281856020860161379b565b80840191505092915050565b6000613c3a8284613bfd565b915081905092915050565b7f2f2f000000000000000000000000000000000000000000000000000000000000600082015250565b6000613c7b600283613bf2565b9150613c8682613c45565b600282019050919050565b6000613c9d828e613bfd565b9150613ca882613c6e565b9150613cb4828d613bfd565b9150613cbf82613c6e565b9150613ccb828c613bfd565b9150613cd682613c6e565b9150613ce2828b613bfd565b9150613ced82613c6e565b9150613cf9828a613bfd565b9150613d0482613c6e565b9150613d108289613bfd565b9150613d1b82613c6e565b9150613d278288613bfd565b9150613d3282613c6e565b9150613d3e8287613bfd565b9150613d4982613c6e565b9150613d558286613bfd565b9150613d6082613c6e565b9150613d6c8285613bfd565b9150613d7782613c6e565b9150613d838284613bfd565b91508190509c9b505050505050505050505050565b7f4e487b7100000000000000000000000000000000000000000000000000000000600052601160045260246000fd5b6000613dd282613b5e565b91507fffffffffffffffffffffffffffffffffffffffffffffffffffffffffffffffff8203613e0457613e03613d98565b5b600182019050919050565b6000613e1a82613b5e565b9150613e2583613b5e565b9250828201905080821115613e3d57613e3c613d98565b5b92915050565b60008190508160005260206000209050919050565b60006020601f8301049050919050565b600082821b905092915050565b600060088302613ea57fffffffffffffffffffffffffffffffffffffffffffffffffffffffffffffffff82613e68565b613eaf8683613e68565b95508019841693508086168417925050509392505050565b6000819050919050565b6000613eec613ee7613ee284613b5e565b613ec7565b613b5e565b9050919050565b6000819050919050565b613f0683613ed1565b613f1a613f1282613ef3565b848454613e75565b825550505050565b600090565b613f2f613f22565b613f3a818484613efd565b505050565b5b81811015613f5e57613f53600082613f27565b600181019050613f40565b5050565b601f821115613fa357613f7481613e43565b613f7d84613e58565b81016020851015613f8c578190505b613fa0613f9885613e58565b830182613f3f565b50505b505050565b600082821c905092915050565b6000613fc660001984600802613fa8565b1980831691505092915050565b6000613fdf8383613fb5565b9150826002028217905092915050565b613ff88261377f565b67ffffffffffffffff811115614011576140106135f8565b5b61401b8254613bc1565b614026828285613f62565b600060209050601f8311600181146140595760008415614047578287015190505b6140518582613fd3565b8655506140b9565b601f19841661406786613e43565b60005b8281101561408f5784890151825560018201915060208501945060208101905061406a565b868310156140ac57848901516140a8601f891682613fb5565b8355505b6001600288020188555050505b505050505050565b600060808201905081810360008301526140db81876137c5565b905081810360208301526140ef81866137c5565b9050818103604083015261410381856137c5565b90506141126060830184613b68565b95945050505050565b7f416363657373436f6e74726f6c3a2063616e206f6e6c792072656e6f756e636560008201527f20726f6c657320666f722073656c660000000000000000000000000000000000602082015250565b6000614177602f8361378a565b91506141828261411b565b604082019050919050565b600060208201905081810360008301526141a68161416a565b9050919050565b60006141b882613b5e565b9150600082036141cb576141ca613d98565b5b600182039050919050565b7f4e487b7100000000000000000000000000000000000000000000000000000000600052601260045260246000fd5b7f416363657373436f6e74726f6c3a206163636f756e7420000000000000000000600082015250565b600061423b601783613bf2565b915061424682614205565b601782019050919050565b7f206973206d697373696e6720726f6c6520000000000000000000000000000000600082015250565b6000614287601183613bf2565b915061429282614251565b601182019050919050565b60006142a88261422e565b91506142b48285613bfd565b91506142bf8261427a565b91506142cb8284613bfd565b91508190509392505050565b60006142e282613b5e565b91506142ed83613b5e565b92508282026142fb81613b5e565b9150828204841483151761431257614311613d98565b5b5092915050565b7f4e487b7100000000000000000000000000000000000000000000000000000000600052603260045260246000fd5b7f537472696e67733a20686578206c656e67746820696e73756666696369656e74600082015250565b600061437e60208361378a565b915061438982614348565b602082019050919050565b600060208201905081810360008301526143ad81614371565b905091905056fe4c6120636172746120652720736361647574612c2073692070726567612064692072696e6e6f76617265206c61206361727461a264697066735822122032e18089c3862a6056d7e9c7857577a359f00a3a7edfebf50bc44aa951b22d2a64736f6c6343000811003335653838343839386461323830343731353164306535366638646336323932373733363033643064366161626264643632613131656637323164313534326438",
  "immutableReferences": {},
  "source": "// SPDX-License-Identifier: MIT\npragma solidity >=0.4.2;\n\nimport \"@openzeppelin/contracts/utils/Strings.sol\";\nimport \"@openzeppelin/contracts/access/AccessControl.sol\";\n\n\ncontract IdChain is AccessControl {\n\n    //address admin\n    bytes32 private constant ADMIN_ROLE = keccak256(\"ADMIN_ROLE\");\n\n    //Model a IdCard\n    struct IdCard{\n        string name;\n        string surname;\n        string birthDate;\n        string birthPlace;\n        string fiscalCode;\n        string homeAddress;\n        string city;\n        string province;\n        string cap;\n        string phone;\n        //string email;\n        uint dataScadenza;\n        string password;\n    }\n\n    event IdCardScaduta(\n        string message\n    );\n\n    event createdIdCard(\n        string name,\n        string surname,\n        string fiscalCode,\n        uint dataScadenza\n    );\n\n    event renewedIdCard(\n        string name,\n        string surname,\n        string fiscalCode,\n        uint dataScadenza\n    );\n\n    \n\n    //Store the IdCards\n    //Utilizza gli address come chiave ma potrebbe non essere ottimale\n    //bisogna prevedere un sistema per evitare che una stessa IdCard venga associata a due address diversi\n    //non public per evitare che si possano vedere tutte le IdCards di altre persone\n    //un ID potrebbe essere il codice fiscale ma allo stesso tempo bisogna collegare all'address la struct\n    mapping(address => IdCard) private idCards;\n\n    //mapping che contiene tutti codici fiscali registrati associati all'address che l'hanno registrato1\n    mapping(string => address) private registeredCF;\n\n    //Store IdCards Count\n    uint public idCardsCount;\n\n    constructor(){\n        idCardsCount = 0;\n        idCards[0xAe58aAcc644bAd5dc2142e4D57890dc95363eB3d] = IdCard(\"Test\", \"Test1\", \"24/03/2000\", \"Avellino\", \"MRSNDR0022\", \"Via Via Via\",\n         \"Avellino\", \"AV\", \"83100\", \"3311242336\", 1642690626, \"5e884898da28047151d0e56f8dc6292773603d0d6aabbdd62a11ef721d1542d8\");\n        idCardsCount ++;\n        registeredCF[\"MRSNDR0022\"] = 0xAe58aAcc644bAd5dc2142e4D57890dc95363eB3d;\n        _grantRole(ADMIN_ROLE,0xAe58aAcc644bAd5dc2142e4D57890dc95363eB3d);\n    }\n\n    //crea una nuova IdCard\n    //dobbiamo idearci una verifica dell'identit o qualcosa del genere sen ci dir che non  sicuro\n    function createIdCard(string memory _name, string memory _surname,\n     string memory _birthDate, string memory _birthPlace, string memory _fiscalCode,\n      string memory _homeAddress, string memory _city, string memory _province,\n       string memory _cap, string memory _phone, string memory _password) public {\n        //require that the fiscalCode is not already registered\n        require(registeredCF[_fiscalCode] == address(0));\n        //Require a valid name\n        require(bytes(_name).length > 0);\n        //Require a valid surname\n        require(bytes(_surname).length > 0);\n        //Require a valid birthDate\n        require(bytes(_birthDate).length > 0);\n        //Require a valid birthPlace\n        require(bytes(_birthPlace).length > 0);\n        //Require a valid fiscalCode\n        require(bytes(_fiscalCode).length > 0);\n        //Require a valid homeAddress\n        require(bytes(_homeAddress).length > 0);\n        //Require a valid city\n        require(bytes(_city).length > 0);\n        //Require a valid province\n        require(bytes(_province).length > 0);\n        //Require a valid cap\n        require(bytes(_cap).length > 0);\n        //Require a valid phone\n        require(bytes(_phone).length > 0);\n        //Require a valid email\n        //require(bytes(_email).length > 0);\n\n        //Increment IdCards Count\n        idCardsCount ++;\n\n        //calcola la data di scadenza\n        uint dataScadenzaInt = block.timestamp + (10 * 365 days);\n\n        //Create the IdCard\n        idCards[msg.sender] = IdCard(_name, _surname, _birthDate, _birthPlace, _fiscalCode, _homeAddress,\n         _city, _province, _cap, _phone, dataScadenzaInt, _password);\n\n        //Aggiunge il codice fiscale alla lista dei codici fiscali registrati\n        registeredCF[_fiscalCode] = msg.sender;\n\n        //Trigger an event\n        emit createdIdCard(_name, _surname, _fiscalCode, dataScadenzaInt);\n    }\n\n    //Delete an IdCard\n    //pure qui credo vadano messe delle misure di sicurezza ulteriori\n    function deleteIdCard(string memory _password) public returns (string memory) {\n        //Require a valid address\n        require(msg.sender != address(0));\n\n        IdCard memory idCard = idCards[msg.sender];\n\n        if(bytes(idCard.name).length == 0){\n            return \"La carta non esiste\";\n        }\n\n\n        if(keccak256(abi.encodePacked(idCard.password)) != keccak256(abi.encodePacked(_password))){\n            return \"Password errata\";\n        }\n\n        //Delete the IdCard\n        delete idCards[msg.sender];\n        //Decrement IdCards Count\n        idCardsCount --;\n\n        return \"Carta Eliminata con successo\";\n    }\n\n    //Read an IdCard\n    //Non credo possa essere public per motivi di sicurezza e quindi andrebbe implementata un nuovo metodo che sfrutti l'autenticazione tramite spring\n    function readIdCard(address _address, string memory _password) public view returns (string memory){\n\n        //address da leggere\n        address addressToRead;\n\n        //controllo su address admin\n        if(hasRole(ADMIN_ROLE, msg.sender)){\n            addressToRead = _address;\n        }else{\n            addressToRead = msg.sender;\n        }\n\n        //Require a valid address\n        require(addressToRead != address(0));\n        \n        //Return the IdCard\n        IdCard memory idCard = idCards[addressToRead];\n\n        if(bytes(idCard.name).length == 0){\n            return \"La carta non esiste\";\n        }\n\n        //require(keccak256(abi.encodePacked(idCard.password)) == keccak256(abi.encodePacked(_password)));\n\n        if(keccak256(abi.encodePacked(idCard.password)) != keccak256(abi.encodePacked(_password))){\n            return \"Password errata\";\n        }\n\n        //controllo sulla data di scadenza\n        if(block.timestamp > idCard.dataScadenza){\n            return \"La carta e' scaduta, si prega di rinnovare la carta\";\n        }\n        \n        //se ti stai chiedendo perch ho fatto una cosa del genere  perch solidity  stupido e non permetter di ritornare pi di 5 valori,\n        //quindi ho dovuto concatenare tutto in una stringa e poi ritornarla e poi lato web si fa lo spacchettamento della stringa nei dati che ci servcono\n        return (string(abi.encodePacked(idCard.name,\"//\",idCard.surname ,\"//\" ,idCard.birthDate ,\"//\" ,idCard.birthPlace ,\"//\"\n          ,idCard.fiscalCode ,\"//\" ,idCard.homeAddress ,\"//\" ,idCard.city ,\"//\" ,idCard.province ,\"//\"\n           ,idCard.cap ,\"//\" ,idCard.phone ,\"//\" ,Strings.toString(idCard.dataScadenza)))) ;\n    }\n\n    //Authorize with IdCard\n    //Metodo a cui viene passato l'address e che va a verificare la scadenza della card e restituisce un boolean\n    function authorize(string memory _password) public view returns (string memory){\n        //Require a valid address\n        require(msg.sender != address(0));\n        \n        IdCard memory idCard = idCards[msg.sender];\n\n        if(bytes(idCard.name).length == 0){\n            return \"La carta non esiste\";\n        }\n\n\n        if(keccak256(abi.encodePacked(idCard.password)) != keccak256(abi.encodePacked(_password))){\n            return \"Password errata\";\n        }\n\n\n        if(block.timestamp > idCard.dataScadenza){\n            return \"La carta e' scaduta, si prega di rinnovare la carta\";\n        }else{\n            return \"Autorizzato\";\n        }\n\n    }\n\n    //funzione per rinnovare la carta (rigenera la data di scadenza)\n    function renewIdCard(string memory _password) public returns (string memory){\n        //Require a valid address\n        require(msg.sender != address(0));\n        \n        IdCard memory idCard = idCards[msg.sender];\n\n        if(bytes(idCard.name).length == 0){\n            return \"La carta non esiste\";\n        }\n\n        if(keccak256(abi.encodePacked(idCard.password)) != keccak256(abi.encodePacked(_password))){\n            return \"Password errata\";\n        }\n\n        //calcola la data di scadenza\n        uint dataScadenzaInt = block.timestamp + (10 * 365 days);\n\n        delete idCards[msg.sender];\n\n        idCards[msg.sender] = IdCard(idCard.name, idCard.surname, idCard.birthDate, idCard.birthPlace, idCard.fiscalCode, idCard.homeAddress,\n         idCard.city, idCard.province, idCard.cap, idCard.phone, dataScadenzaInt, idCard.password);\n\n        //Trigger an event\n        emit renewedIdCard(idCard.name, idCard.surname, idCard.fiscalCode, idCard.dataScadenza);\n\n        return \"Carta rinnovata con successo\";\n    }\n\n\n\n\n\n}\n",
  "sourcePath": "/Users/ater/Documents/Progetti/Web3/idChain/contracts/IdChain.sol",
  "compiler": {
    "name": "solc",
    "version": "0.8.17+commit.8df45f5f.Emscripten.clang"
  },
  "schemaVersion": "3.4.11",
  "updatedAt": "2023-01-20T16:52:19.158Z",
  "networkType": "ethereum",
  "devdoc": {
    "kind": "dev",
    "methods": {
      "getRoleAdmin(bytes32)": {
        "details": "Returns the admin role that controls `role`. See {grantRole} and {revokeRole}. To change a role's admin, use {_setRoleAdmin}."
      },
      "grantRole(bytes32,address)": {
        "details": "Grants `role` to `account`. If `account` had not been already granted `role`, emits a {RoleGranted} event. Requirements: - the caller must have ``role``'s admin role. May emit a {RoleGranted} event."
      },
      "hasRole(bytes32,address)": {
        "details": "Returns `true` if `account` has been granted `role`."
      },
      "renounceRole(bytes32,address)": {
        "details": "Revokes `role` from the calling account. Roles are often managed via {grantRole} and {revokeRole}: this function's purpose is to provide a mechanism for accounts to lose their privileges if they are compromised (such as when a trusted device is misplaced). If the calling account had been revoked `role`, emits a {RoleRevoked} event. Requirements: - the caller must be `account`. May emit a {RoleRevoked} event."
      },
      "revokeRole(bytes32,address)": {
        "details": "Revokes `role` from `account`. If `account` had been granted `role`, emits a {RoleRevoked} event. Requirements: - the caller must have ``role``'s admin role. May emit a {RoleRevoked} event."
      },
      "supportsInterface(bytes4)": {
        "details": "See {IERC165-supportsInterface}."
      }
    },
    "version": 1
  },
  "userdoc": {
    "kind": "user",
    "methods": {},
    "version": 1
  }
}