{
  "contractName": "IdChain",
  "abi": [
    {
      "inputs": [],
      "stateMutability": "nonpayable",
      "type": "constructor"
    },
    {
      "anonymous": false,
      "inputs": [
        {
          "indexed": false,
          "internalType": "string",
          "name": "message",
          "type": "string"
        }
      ],
      "name": "IdCardScaduta",
      "type": "event"
    },
    {
      "anonymous": false,
      "inputs": [
        {
          "indexed": false,
          "internalType": "string",
          "name": "name",
          "type": "string"
        },
        {
          "indexed": false,
          "internalType": "string",
          "name": "surname",
          "type": "string"
        },
        {
          "indexed": false,
          "internalType": "string",
          "name": "fiscalCode",
          "type": "string"
        },
        {
          "indexed": false,
          "internalType": "uint256",
          "name": "dataScadenza",
          "type": "uint256"
        }
      ],
      "name": "createdIdCard",
      "type": "event"
    },
    {
      "anonymous": false,
      "inputs": [
        {
          "indexed": false,
          "internalType": "string",
          "name": "name",
          "type": "string"
        },
        {
          "indexed": false,
          "internalType": "string",
          "name": "surname",
          "type": "string"
        },
        {
          "indexed": false,
          "internalType": "string",
          "name": "fiscalCode",
          "type": "string"
        },
        {
          "indexed": false,
          "internalType": "uint256",
          "name": "dataScadenza",
          "type": "uint256"
        }
      ],
      "name": "renewedIdCard",
      "type": "event"
    },
    {
      "inputs": [],
      "name": "idCardsCount",
      "outputs": [
        {
          "internalType": "uint256",
          "name": "",
          "type": "uint256"
        }
      ],
      "stateMutability": "view",
      "type": "function",
      "constant": true
    },
    {
      "inputs": [
        {
          "internalType": "string",
          "name": "_name",
          "type": "string"
        },
        {
          "internalType": "string",
          "name": "_surname",
          "type": "string"
        },
        {
          "internalType": "string",
          "name": "_birthDate",
          "type": "string"
        },
        {
          "internalType": "string",
          "name": "_birthPlace",
          "type": "string"
        },
        {
          "internalType": "string",
          "name": "_fiscalCode",
          "type": "string"
        },
        {
          "internalType": "string",
          "name": "_homeAddress",
          "type": "string"
        },
        {
          "internalType": "string",
          "name": "_city",
          "type": "string"
        },
        {
          "internalType": "string",
          "name": "_province",
          "type": "string"
        },
        {
          "internalType": "string",
          "name": "_cap",
          "type": "string"
        },
        {
          "internalType": "string",
          "name": "_phone",
          "type": "string"
        },
        {
          "internalType": "string",
          "name": "_password",
          "type": "string"
        }
      ],
      "name": "createIdCard",
      "outputs": [],
      "stateMutability": "nonpayable",
      "type": "function"
    },
    {
      "inputs": [
        {
          "internalType": "string",
          "name": "_password",
          "type": "string"
        }
      ],
      "name": "deleteIdCard",
      "outputs": [
        {
          "internalType": "string",
          "name": "",
          "type": "string"
        }
      ],
      "stateMutability": "nonpayable",
      "type": "function"
    },
    {
      "inputs": [
        {
          "internalType": "address",
          "name": "_address",
          "type": "address"
        },
        {
          "internalType": "string",
          "name": "_password",
          "type": "string"
        }
      ],
      "name": "readIdCard",
      "outputs": [
        {
          "internalType": "string",
          "name": "",
          "type": "string"
        }
      ],
      "stateMutability": "view",
      "type": "function",
      "constant": true
    },
    {
      "inputs": [
        {
          "internalType": "string",
          "name": "_password",
          "type": "string"
        }
      ],
      "name": "authorize",
      "outputs": [
        {
          "internalType": "string",
          "name": "",
          "type": "string"
        }
      ],
      "stateMutability": "view",
      "type": "function",
      "constant": true
    },
    {
      "inputs": [
        {
          "internalType": "string",
          "name": "_password",
          "type": "string"
        }
      ],
      "name": "renewIdCard",
      "outputs": [
        {
          "internalType": "string",
          "name": "",
          "type": "string"
        }
      ],
      "stateMutability": "nonpayable",
      "type": "function"
    }
  ],
  "bytecode": "0x6080604052735b38da6a701c568545dcfcb03fcb875f56beddc46000806101000a81548173ffffffffffffffffffffffffffffffffffffffff021916908373ffffffffffffffffffffffffffffffffffffffff1602179055503480156200006557600080fd5b5060006003819055506040518061018001604052806040518060400160405280600481526020017f546573740000000000000000000000000000000000000000000000000000000081525081526020016040518060400160405280600581526020017f546573743100000000000000000000000000000000000000000000000000000081525081526020016040518060400160405280600a81526020017f32342f30332f323030300000000000000000000000000000000000000000000081525081526020016040518060400160405280600881526020017f4176656c6c696e6f00000000000000000000000000000000000000000000000081525081526020016040518060400160405280600a81526020017f4d52534e4452303032320000000000000000000000000000000000000000000081525081526020016040518060400160405280600b81526020017f566961205669612056696100000000000000000000000000000000000000000081525081526020016040518060400160405280600881526020017f4176656c6c696e6f00000000000000000000000000000000000000000000000081525081526020016040518060400160405280600281526020017f415600000000000000000000000000000000000000000000000000000000000081525081526020016040518060400160405280600581526020017f383331303000000000000000000000000000000000000000000000000000000081525081526020016040518060400160405280600a81526020017f333331313234323333360000000000000000000000000000000000000000000081525081526020016361e97842815260200160405180606001604052806040815260200162003fd8604091398152506001600073ae58aacc644bad5dc2142e4d57890dc95363eb3d73ffffffffffffffffffffffffffffffffffffffff1673ffffffffffffffffffffffffffffffffffffffff1681526020019081526020016000206000820151816000019081620003599190620006db565b506020820151816001019081620003719190620006db565b506040820151816002019081620003899190620006db565b506060820151816003019081620003a19190620006db565b506080820151816004019081620003b99190620006db565b5060a0820151816005019081620003d19190620006db565b5060c0820151816006019081620003e99190620006db565b5060e0820151816007019081620004019190620006db565b506101008201518160080190816200041a9190620006db565b50610120820151816009019081620004339190620006db565b5061014082015181600a015561016082015181600b019081620004579190620006db565b50905050620007c2565b600081519050919050565b7f4e487b7100000000000000000000000000000000000000000000000000000000600052604160045260246000fd5b7f4e487b7100000000000000000000000000000000000000000000000000000000600052602260045260246000fd5b60006002820490506001821680620004e357607f821691505b602082108103620004f957620004f86200049b565b5b50919050565b60008190508160005260206000209050919050565b60006020601f8301049050919050565b600082821b905092915050565b600060088302620005637fffffffffffffffffffffffffffffffffffffffffffffffffffffffffffffffff8262000524565b6200056f868362000524565b95508019841693508086168417925050509392505050565b6000819050919050565b6000819050919050565b6000620005bc620005b6620005b08462000587565b62000591565b62000587565b9050919050565b6000819050919050565b620005d8836200059b565b620005f0620005e782620005c3565b84845462000531565b825550505050565b600090565b62000607620005f8565b62000614818484620005cd565b505050565b5b818110156200063c5762000630600082620005fd565b6001810190506200061a565b5050565b601f8211156200068b576200065581620004ff565b620006608462000514565b8101602085101562000670578190505b620006886200067f8562000514565b83018262000619565b50505b505050565b600082821c905092915050565b6000620006b06000198460080262000690565b1980831691505092915050565b6000620006cb83836200069d565b9150826002028217905092915050565b620006e68262000461565b67ffffffffffffffff8111156200070257620007016200046c565b5b6200070e8254620004ca565b6200071b82828562000640565b600060209050601f8311600181146200075357600084156200073e578287015190505b6200074a8582620006bd565b865550620007ba565b601f1984166200076386620004ff565b60005b828110156200078d5784890151825560018201915060208501945060208101905062000766565b86831015620007ad5784890151620007a9601f8916826200069d565b8355505b6001600288020188555050505b505050505050565b61380680620007d26000396000f3fe608060405234801561001057600080fd5b50600436106100625760003560e01c80631ef29baf1461006757806335fb3fd3146100975780633c9e293d146100b35780634f5fcb34146100e3578063a6a432f714610113578063c583685314610131575b600080fd5b610081600480360381019061007c9190612e1a565b610161565b60405161008e9190612ef5565b60405180910390f35b6100b160048036038101906100ac9190612f17565b610a25565b005b6100cd60048036038101906100c8919061313f565b610d90565b6040516100da9190612ef5565b60405180910390f35b6100fd60048036038101906100f8919061313f565b61169c565b60405161010a9190612ef5565b60405180910390f35b61011b611ec4565b60405161012891906131a1565b60405180910390f35b61014b6004803603810190610146919061313f565b611eca565b6040516101589190612ef5565b60405180910390f35b606060008060009054906101000a900473ffffffffffffffffffffffffffffffffffffffff1673ffffffffffffffffffffffffffffffffffffffff163373ffffffffffffffffffffffffffffffffffffffff16036101c1578390506101c5565b3390505b600073ffffffffffffffffffffffffffffffffffffffff168173ffffffffffffffffffffffffffffffffffffffff16036101fe57600080fd5b6000600160008373ffffffffffffffffffffffffffffffffffffffff1673ffffffffffffffffffffffffffffffffffffffff1681526020019081526020016000206040518061018001604052908160008201805461025b906131eb565b80601f0160208091040260200160405190810160405280929190818152602001828054610287906131eb565b80156102d45780601f106102a9576101008083540402835291602001916102d4565b820191906000526020600020905b8154815290600101906020018083116102b757829003601f168201915b505050505081526020016001820180546102ed906131eb565b80601f0160208091040260200160405190810160405280929190818152602001828054610319906131eb565b80156103665780601f1061033b57610100808354040283529160200191610366565b820191906000526020600020905b81548152906001019060200180831161034957829003601f168201915b5050505050815260200160028201805461037f906131eb565b80601f01602080910402602001604051908101604052809291908181526020018280546103ab906131eb565b80156103f85780601f106103cd576101008083540402835291602001916103f8565b820191906000526020600020905b8154815290600101906020018083116103db57829003601f168201915b50505050508152602001600382018054610411906131eb565b80601f016020809104026020016040519081016040528092919081815260200182805461043d906131eb565b801561048a5780601f1061045f5761010080835404028352916020019161048a565b820191906000526020600020905b81548152906001019060200180831161046d57829003601f168201915b505050505081526020016004820180546104a3906131eb565b80601f01602080910402602001604051908101604052809291908181526020018280546104cf906131eb565b801561051c5780601f106104f15761010080835404028352916020019161051c565b820191906000526020600020905b8154815290600101906020018083116104ff57829003601f168201915b50505050508152602001600582018054610535906131eb565b80601f0160208091040260200160405190810160405280929190818152602001828054610561906131eb565b80156105ae5780601f10610583576101008083540402835291602001916105ae565b820191906000526020600020905b81548152906001019060200180831161059157829003601f168201915b505050505081526020016006820180546105c7906131eb565b80601f01602080910402602001604051908101604052809291908181526020018280546105f3906131eb565b80156106405780601f1061061557610100808354040283529160200191610640565b820191906000526020600020905b81548152906001019060200180831161062357829003601f168201915b50505050508152602001600782018054610659906131eb565b80601f0160208091040260200160405190810160405280929190818152602001828054610685906131eb565b80156106d25780601f106106a7576101008083540402835291602001916106d2565b820191906000526020600020905b8154815290600101906020018083116106b557829003601f168201915b505050505081526020016008820180546106eb906131eb565b80601f0160208091040260200160405190810160405280929190818152602001828054610717906131eb565b80156107645780601f1061073957610100808354040283529160200191610764565b820191906000526020600020905b81548152906001019060200180831161074757829003601f168201915b5050505050815260200160098201805461077d906131eb565b80601f01602080910402602001604051908101604052809291908181526020018280546107a9906131eb565b80156107f65780601f106107cb576101008083540402835291602001916107f6565b820191906000526020600020905b8154815290600101906020018083116107d957829003601f168201915b50505050508152602001600a8201548152602001600b82018054610819906131eb565b80601f0160208091040260200160405190810160405280929190818152602001828054610845906131eb565b80156108925780601f1061086757610100808354040283529160200191610892565b820191906000526020600020905b81548152906001019060200180831161087557829003601f168201915b50505050508152505090506000816000015151036108e9576040518060400160405280601381526020017f4c61206361727461206e6f6e206573697374650000000000000000000000000081525092505050610a1f565b836040516020016108fa9190613258565b604051602081830303815290604052805190602001208161016001516040516020016109269190613258565b6040516020818303038152906040528051906020012014610980576040518060400160405280600f81526020017f50617373776f726420657272617461000000000000000000000000000000000081525092505050610a1f565b8061014001514211156109af5760405180606001604052806033815260200161379e6033913992505050610a1f565b806000015181602001518260400151836060015184608001518560a001518660c001518760e001518861010001518961012001516109f18b61014001516129e4565b604051602001610a0b9b9a999897969594939291906132bb565b604051602081830303815290604052925050505b92915050565b600073ffffffffffffffffffffffffffffffffffffffff16600288604051610a4d9190613258565b908152602001604051809103902060009054906101000a900473ffffffffffffffffffffffffffffffffffffffff1673ffffffffffffffffffffffffffffffffffffffff1614610a9c57600080fd5b60008b5111610aaa57600080fd5b60008a5111610ab857600080fd5b6000895111610ac657600080fd5b6000885111610ad457600080fd5b6000875111610ae257600080fd5b6000865111610af057600080fd5b6000855111610afe57600080fd5b6000845111610b0c57600080fd5b6000835111610b1a57600080fd5b6000825111610b2857600080fd5b60036000815480929190610b3b906133f1565b919050555060006312cc030042610b529190613439565b90506040518061018001604052808d81526020018c81526020018b81526020018a815260200189815260200188815260200187815260200186815260200185815260200184815260200182815260200183815250600160003373ffffffffffffffffffffffffffffffffffffffff1673ffffffffffffffffffffffffffffffffffffffff1681526020019081526020016000206000820151816000019081610bfa9190613619565b506020820151816001019081610c109190613619565b506040820151816002019081610c269190613619565b506060820151816003019081610c3c9190613619565b506080820151816004019081610c529190613619565b5060a0820151816005019081610c689190613619565b5060c0820151816006019081610c7e9190613619565b5060e0820151816007019081610c949190613619565b50610100820151816008019081610cab9190613619565b50610120820151816009019081610cc29190613619565b5061014082015181600a015561016082015181600b019081610ce49190613619565b5090505033600289604051610cf99190613258565b908152602001604051809103902060006101000a81548173ffffffffffffffffffffffffffffffffffffffff021916908373ffffffffffffffffffffffffffffffffffffffff1602179055507fea0e21aa925590127eb9530746cf0f19e2b823e70c4186ee283ad7bad6bf7d698c8c8a84604051610d7a94939291906136eb565b60405180910390a1505050505050505050505050565b6060600073ffffffffffffffffffffffffffffffffffffffff163373ffffffffffffffffffffffffffffffffffffffff1603610dcb57600080fd5b6000600160003373ffffffffffffffffffffffffffffffffffffffff1673ffffffffffffffffffffffffffffffffffffffff16815260200190815260200160002060405180610180016040529081600082018054610e28906131eb565b80601f0160208091040260200160405190810160405280929190818152602001828054610e54906131eb565b8015610ea15780601f10610e7657610100808354040283529160200191610ea1565b820191906000526020600020905b815481529060010190602001808311610e8457829003601f168201915b50505050508152602001600182018054610eba906131eb565b80601f0160208091040260200160405190810160405280929190818152602001828054610ee6906131eb565b8015610f335780601f10610f0857610100808354040283529160200191610f33565b820191906000526020600020905b815481529060010190602001808311610f1657829003601f168201915b50505050508152602001600282018054610f4c906131eb565b80601f0160208091040260200160405190810160405280929190818152602001828054610f78906131eb565b8015610fc55780601f10610f9a57610100808354040283529160200191610fc5565b820191906000526020600020905b815481529060010190602001808311610fa857829003601f168201915b50505050508152602001600382018054610fde906131eb565b80601f016020809104026020016040519081016040528092919081815260200182805461100a906131eb565b80156110575780601f1061102c57610100808354040283529160200191611057565b820191906000526020600020905b81548152906001019060200180831161103a57829003601f168201915b50505050508152602001600482018054611070906131eb565b80601f016020809104026020016040519081016040528092919081815260200182805461109c906131eb565b80156110e95780601f106110be576101008083540402835291602001916110e9565b820191906000526020600020905b8154815290600101906020018083116110cc57829003601f168201915b50505050508152602001600582018054611102906131eb565b80601f016020809104026020016040519081016040528092919081815260200182805461112e906131eb565b801561117b5780601f106111505761010080835404028352916020019161117b565b820191906000526020600020905b81548152906001019060200180831161115e57829003601f168201915b50505050508152602001600682018054611194906131eb565b80601f01602080910402602001604051908101604052809291908181526020018280546111c0906131eb565b801561120d5780601f106111e25761010080835404028352916020019161120d565b820191906000526020600020905b8154815290600101906020018083116111f057829003601f168201915b50505050508152602001600782018054611226906131eb565b80601f0160208091040260200160405190810160405280929190818152602001828054611252906131eb565b801561129f5780601f106112745761010080835404028352916020019161129f565b820191906000526020600020905b81548152906001019060200180831161128257829003601f168201915b505050505081526020016008820180546112b8906131eb565b80601f01602080910402602001604051908101604052809291908181526020018280546112e4906131eb565b80156113315780601f1061130657610100808354040283529160200191611331565b820191906000526020600020905b81548152906001019060200180831161131457829003601f168201915b5050505050815260200160098201805461134a906131eb565b80601f0160208091040260200160405190810160405280929190818152602001828054611376906131eb565b80156113c35780601f10611398576101008083540402835291602001916113c3565b820191906000526020600020905b8154815290600101906020018083116113a657829003601f168201915b50505050508152602001600a8201548152602001600b820180546113e6906131eb565b80601f0160208091040260200160405190810160405280929190818152602001828054611412906131eb565b801561145f5780601f106114345761010080835404028352916020019161145f565b820191906000526020600020905b81548152906001019060200180831161144257829003601f168201915b50505050508152505090506000816000015151036114b5576040518060400160405280601381526020017f4c61206361727461206e6f6e2065736973746500000000000000000000000000815250915050611697565b826040516020016114c69190613258565b604051602081830303815290604052805190602001208161016001516040516020016114f29190613258565b604051602081830303815290604052805190602001201461154b576040518060400160405280600f81526020017f50617373776f7264206572726174610000000000000000000000000000000000815250915050611697565b600160003373ffffffffffffffffffffffffffffffffffffffff1673ffffffffffffffffffffffffffffffffffffffff1681526020019081526020016000206000808201600061159b9190612c05565b6001820160006115ab9190612c05565b6002820160006115bb9190612c05565b6003820160006115cb9190612c05565b6004820160006115db9190612c05565b6005820160006115eb9190612c05565b6006820160006115fb9190612c05565b60078201600061160b9190612c05565b60088201600061161b9190612c05565b60098201600061162b9190612c05565b600a820160009055600b820160006116439190612c05565b50506003600081548092919061165890613745565b91905055506040518060400160405280601c81526020017f436172746120456c696d696e61746120636f6e20737563636573736f000000008152509150505b919050565b6060600073ffffffffffffffffffffffffffffffffffffffff163373ffffffffffffffffffffffffffffffffffffffff16036116d757600080fd5b6000600160003373ffffffffffffffffffffffffffffffffffffffff1673ffffffffffffffffffffffffffffffffffffffff16815260200190815260200160002060405180610180016040529081600082018054611734906131eb565b80601f0160208091040260200160405190810160405280929190818152602001828054611760906131eb565b80156117ad5780601f10611782576101008083540402835291602001916117ad565b820191906000526020600020905b81548152906001019060200180831161179057829003601f168201915b505050505081526020016001820180546117c6906131eb565b80601f01602080910402602001604051908101604052809291908181526020018280546117f2906131eb565b801561183f5780601f106118145761010080835404028352916020019161183f565b820191906000526020600020905b81548152906001019060200180831161182257829003601f168201915b50505050508152602001600282018054611858906131eb565b80601f0160208091040260200160405190810160405280929190818152602001828054611884906131eb565b80156118d15780601f106118a6576101008083540402835291602001916118d1565b820191906000526020600020905b8154815290600101906020018083116118b457829003601f168201915b505050505081526020016003820180546118ea906131eb565b80601f0160208091040260200160405190810160405280929190818152602001828054611916906131eb565b80156119635780601f1061193857610100808354040283529160200191611963565b820191906000526020600020905b81548152906001019060200180831161194657829003601f168201915b5050505050815260200160048201805461197c906131eb565b80601f01602080910402602001604051908101604052809291908181526020018280546119a8906131eb565b80156119f55780601f106119ca576101008083540402835291602001916119f5565b820191906000526020600020905b8154815290600101906020018083116119d857829003601f168201915b50505050508152602001600582018054611a0e906131eb565b80601f0160208091040260200160405190810160405280929190818152602001828054611a3a906131eb565b8015611a875780601f10611a5c57610100808354040283529160200191611a87565b820191906000526020600020905b815481529060010190602001808311611a6a57829003601f168201915b50505050508152602001600682018054611aa0906131eb565b80601f0160208091040260200160405190810160405280929190818152602001828054611acc906131eb565b8015611b195780601f10611aee57610100808354040283529160200191611b19565b820191906000526020600020905b815481529060010190602001808311611afc57829003601f168201915b50505050508152602001600782018054611b32906131eb565b80601f0160208091040260200160405190810160405280929190818152602001828054611b5e906131eb565b8015611bab5780601f10611b8057610100808354040283529160200191611bab565b820191906000526020600020905b815481529060010190602001808311611b8e57829003601f168201915b50505050508152602001600882018054611bc4906131eb565b80601f0160208091040260200160405190810160405280929190818152602001828054611bf0906131eb565b8015611c3d5780601f10611c1257610100808354040283529160200191611c3d565b820191906000526020600020905b815481529060010190602001808311611c2057829003601f168201915b50505050508152602001600982018054611c56906131eb565b80601f0160208091040260200160405190810160405280929190818152602001828054611c82906131eb565b8015611ccf5780601f10611ca457610100808354040283529160200191611ccf565b820191906000526020600020905b815481529060010190602001808311611cb257829003601f168201915b50505050508152602001600a8201548152602001600b82018054611cf2906131eb565b80601f0160208091040260200160405190810160405280929190818152602001828054611d1e906131eb565b8015611d6b5780601f10611d4057610100808354040283529160200191611d6b565b820191906000526020600020905b815481529060010190602001808311611d4e57829003601f168201915b5050505050815250509050600081600001515103611dc1576040518060400160405280601381526020017f4c61206361727461206e6f6e2065736973746500000000000000000000000000815250915050611ebf565b82604051602001611dd29190613258565b60405160208183030381529060405280519060200120816101600151604051602001611dfe9190613258565b6040516020818303038152906040528051906020012014611e57576040518060400160405280600f81526020017f50617373776f7264206572726174610000000000000000000000000000000000815250915050611ebf565b806101400151421115611e855760405180606001604052806033815260200161379e60339139915050611ebf565b6040518060400160405280600b81526020017f4175746f72697a7a61746f0000000000000000000000000000000000000000008152509150505b919050565b60035481565b6060600073ffffffffffffffffffffffffffffffffffffffff163373ffffffffffffffffffffffffffffffffffffffff1603611f0557600080fd5b6000600160003373ffffffffffffffffffffffffffffffffffffffff1673ffffffffffffffffffffffffffffffffffffffff16815260200190815260200160002060405180610180016040529081600082018054611f62906131eb565b80601f0160208091040260200160405190810160405280929190818152602001828054611f8e906131eb565b8015611fdb5780601f10611fb057610100808354040283529160200191611fdb565b820191906000526020600020905b815481529060010190602001808311611fbe57829003601f168201915b50505050508152602001600182018054611ff4906131eb565b80601f0160208091040260200160405190810160405280929190818152602001828054612020906131eb565b801561206d5780601f106120425761010080835404028352916020019161206d565b820191906000526020600020905b81548152906001019060200180831161205057829003601f168201915b50505050508152602001600282018054612086906131eb565b80601f01602080910402602001604051908101604052809291908181526020018280546120b2906131eb565b80156120ff5780601f106120d4576101008083540402835291602001916120ff565b820191906000526020600020905b8154815290600101906020018083116120e257829003601f168201915b50505050508152602001600382018054612118906131eb565b80601f0160208091040260200160405190810160405280929190818152602001828054612144906131eb565b80156121915780601f1061216657610100808354040283529160200191612191565b820191906000526020600020905b81548152906001019060200180831161217457829003601f168201915b505050505081526020016004820180546121aa906131eb565b80601f01602080910402602001604051908101604052809291908181526020018280546121d6906131eb565b80156122235780601f106121f857610100808354040283529160200191612223565b820191906000526020600020905b81548152906001019060200180831161220657829003601f168201915b5050505050815260200160058201805461223c906131eb565b80601f0160208091040260200160405190810160405280929190818152602001828054612268906131eb565b80156122b55780601f1061228a576101008083540402835291602001916122b5565b820191906000526020600020905b81548152906001019060200180831161229857829003601f168201915b505050505081526020016006820180546122ce906131eb565b80601f01602080910402602001604051908101604052809291908181526020018280546122fa906131eb565b80156123475780601f1061231c57610100808354040283529160200191612347565b820191906000526020600020905b81548152906001019060200180831161232a57829003601f168201915b50505050508152602001600782018054612360906131eb565b80601f016020809104026020016040519081016040528092919081815260200182805461238c906131eb565b80156123d95780601f106123ae576101008083540402835291602001916123d9565b820191906000526020600020905b8154815290600101906020018083116123bc57829003601f168201915b505050505081526020016008820180546123f2906131eb565b80601f016020809104026020016040519081016040528092919081815260200182805461241e906131eb565b801561246b5780601f106124405761010080835404028352916020019161246b565b820191906000526020600020905b81548152906001019060200180831161244e57829003601f168201915b50505050508152602001600982018054612484906131eb565b80601f01602080910402602001604051908101604052809291908181526020018280546124b0906131eb565b80156124fd5780601f106124d2576101008083540402835291602001916124fd565b820191906000526020600020905b8154815290600101906020018083116124e057829003601f168201915b50505050508152602001600a8201548152602001600b82018054612520906131eb565b80601f016020809104026020016040519081016040528092919081815260200182805461254c906131eb565b80156125995780601f1061256e57610100808354040283529160200191612599565b820191906000526020600020905b81548152906001019060200180831161257c57829003601f168201915b50505050508152505090506000816000015151036125ef576040518060400160405280601381526020017f4c61206361727461206e6f6e20657369737465000000000000000000000000008152509150506129df565b826040516020016126009190613258565b6040516020818303038152906040528051906020012081610160015160405160200161262c9190613258565b6040516020818303038152906040528051906020012014612685576040518060400160405280600f81526020017f50617373776f72642065727261746100000000000000000000000000000000008152509150506129df565b60006312cc0300426126979190613439565b9050600160003373ffffffffffffffffffffffffffffffffffffffff1673ffffffffffffffffffffffffffffffffffffffff168152602001908152602001600020600080820160006126e99190612c05565b6001820160006126f99190612c05565b6002820160006127099190612c05565b6003820160006127199190612c05565b6004820160006127299190612c05565b6005820160006127399190612c05565b6006820160006127499190612c05565b6007820160006127599190612c05565b6008820160006127699190612c05565b6009820160006127799190612c05565b600a820160009055600b820160006127919190612c05565b505060405180610180016040528083600001518152602001836020015181526020018360400151815260200183606001518152602001836080015181526020018360a0015181526020018360c0015181526020018360e00151815260200183610100015181526020018361012001518152602001828152602001836101600151815250600160003373ffffffffffffffffffffffffffffffffffffffff1673ffffffffffffffffffffffffffffffffffffffff16815260200190815260200160002060008201518160000190816128689190613619565b50602082015181600101908161287e9190613619565b5060408201518160020190816128949190613619565b5060608201518160030190816128aa9190613619565b5060808201518160040190816128c09190613619565b5060a08201518160050190816128d69190613619565b5060c08201518160060190816128ec9190613619565b5060e08201518160070190816129029190613619565b506101008201518160080190816129199190613619565b506101208201518160090190816129309190613619565b5061014082015181600a015561016082015181600b0190816129529190613619565b509050507fd7301a1875e612aa83866dfed9015b7be44e76535dfeafbbd5597a022aba92e882600001518360200151846080015185610140015160405161299c94939291906136eb565b60405180910390a16040518060400160405280601c81526020017f43617274612072696e6e6f7661746120636f6e20737563636573736f00000000815250925050505b919050565b6060600060016129f384612ab2565b01905060008167ffffffffffffffff811115612a1257612a11612cef565b5b6040519080825280601f01601f191660200182016040528015612a445781602001600182028036833780820191505090505b509050600082602001820190505b600115612aa7578080600190039150507f3031323334353637383961626364656600000000000000000000000000000000600a86061a8153600a8581612a9b57612a9a61376e565b5b04945060008503612a52575b819350505050919050565b600080600090507a184f03e93ff9f4daa797ed6e38ed64bf6a1f0100000000000000008310612b10577a184f03e93ff9f4daa797ed6e38ed64bf6a1f0100000000000000008381612b0657612b0561376e565b5b0492506040810190505b6d04ee2d6d415b85acef81000000008310612b4d576d04ee2d6d415b85acef81000000008381612b4357612b4261376e565b5b0492506020810190505b662386f26fc100008310612b7c57662386f26fc100008381612b7257612b7161376e565b5b0492506010810190505b6305f5e1008310612ba5576305f5e1008381612b9b57612b9a61376e565b5b0492506008810190505b6127108310612bca576127108381612bc057612bbf61376e565b5b0492506004810190505b60648310612bed5760648381612be357612be261376e565b5b0492506002810190505b600a8310612bfc576001810190505b80915050919050565b508054612c11906131eb565b6000825580601f10612c235750612c42565b601f016020900490600052602060002090810190612c419190612c45565b5b50565b5b80821115612c5e576000816000905550600101612c46565b5090565b6000604051905090565b600080fd5b600080fd5b600073ffffffffffffffffffffffffffffffffffffffff82169050919050565b6000612ca182612c76565b9050919050565b612cb181612c96565b8114612cbc57600080fd5b50565b600081359050612cce81612ca8565b92915050565b600080fd5b600080fd5b6000601f19601f8301169050919050565b7f4e487b7100000000000000000000000000000000000000000000000000000000600052604160045260246000fd5b612d2782612cde565b810181811067ffffffffffffffff82111715612d4657612d45612cef565b5b80604052505050565b6000612d59612c62565b9050612d658282612d1e565b919050565b600067ffffffffffffffff821115612d8557612d84612cef565b5b612d8e82612cde565b9050602081019050919050565b82818337600083830152505050565b6000612dbd612db884612d6a565b612d4f565b905082815260208101848484011115612dd957612dd8612cd9565b5b612de4848285612d9b565b509392505050565b600082601f830112612e0157612e00612cd4565b5b8135612e11848260208601612daa565b91505092915050565b60008060408385031215612e3157612e30612c6c565b5b6000612e3f85828601612cbf565b925050602083013567ffffffffffffffff811115612e6057612e5f612c71565b5b612e6c85828601612dec565b9150509250929050565b600081519050919050565b600082825260208201905092915050565b60005b83811015612eb0578082015181840152602081019050612e95565b60008484015250505050565b6000612ec782612e76565b612ed18185612e81565b9350612ee1818560208601612e92565b612eea81612cde565b840191505092915050565b60006020820190508181036000830152612f0f8184612ebc565b905092915050565b60008060008060008060008060008060006101608c8e031215612f3d57612f3c612c6c565b5b60008c013567ffffffffffffffff811115612f5b57612f5a612c71565b5b612f678e828f01612dec565b9b505060208c013567ffffffffffffffff811115612f8857612f87612c71565b5b612f948e828f01612dec565b9a505060408c013567ffffffffffffffff811115612fb557612fb4612c71565b5b612fc18e828f01612dec565b99505060608c013567ffffffffffffffff811115612fe257612fe1612c71565b5b612fee8e828f01612dec565b98505060808c013567ffffffffffffffff81111561300f5761300e612c71565b5b61301b8e828f01612dec565b97505060a08c013567ffffffffffffffff81111561303c5761303b612c71565b5b6130488e828f01612dec565b96505060c08c013567ffffffffffffffff81111561306957613068612c71565b5b6130758e828f01612dec565b95505060e08c013567ffffffffffffffff81111561309657613095612c71565b5b6130a28e828f01612dec565b9450506101008c013567ffffffffffffffff8111156130c4576130c3612c71565b5b6130d08e828f01612dec565b9350506101208c013567ffffffffffffffff8111156130f2576130f1612c71565b5b6130fe8e828f01612dec565b9250506101408c013567ffffffffffffffff8111156131205761311f612c71565b5b61312c8e828f01612dec565b9150509295989b509295989b9093969950565b60006020828403121561315557613154612c6c565b5b600082013567ffffffffffffffff81111561317357613172612c71565b5b61317f84828501612dec565b91505092915050565b6000819050919050565b61319b81613188565b82525050565b60006020820190506131b66000830184613192565b92915050565b7f4e487b7100000000000000000000000000000000000000000000000000000000600052602260045260246000fd5b6000600282049050600182168061320357607f821691505b602082108103613216576132156131bc565b5b50919050565b600081905092915050565b600061323282612e76565b61323c818561321c565b935061324c818560208601612e92565b80840191505092915050565b60006132648284613227565b915081905092915050565b7f2f2f000000000000000000000000000000000000000000000000000000000000600082015250565b60006132a560028361321c565b91506132b08261326f565b600282019050919050565b60006132c7828e613227565b91506132d282613298565b91506132de828d613227565b91506132e982613298565b91506132f5828c613227565b915061330082613298565b915061330c828b613227565b915061331782613298565b9150613323828a613227565b915061332e82613298565b915061333a8289613227565b915061334582613298565b91506133518288613227565b915061335c82613298565b91506133688287613227565b915061337382613298565b915061337f8286613227565b915061338a82613298565b91506133968285613227565b91506133a182613298565b91506133ad8284613227565b91508190509c9b505050505050505050505050565b7f4e487b7100000000000000000000000000000000000000000000000000000000600052601160045260246000fd5b60006133fc82613188565b91507fffffffffffffffffffffffffffffffffffffffffffffffffffffffffffffffff820361342e5761342d6133c2565b5b600182019050919050565b600061344482613188565b915061344f83613188565b9250828201905080821115613467576134666133c2565b5b92915050565b60008190508160005260206000209050919050565b60006020601f8301049050919050565b600082821b905092915050565b6000600883026134cf7fffffffffffffffffffffffffffffffffffffffffffffffffffffffffffffffff82613492565b6134d98683613492565b95508019841693508086168417925050509392505050565b6000819050919050565b600061351661351161350c84613188565b6134f1565b613188565b9050919050565b6000819050919050565b613530836134fb565b61354461353c8261351d565b84845461349f565b825550505050565b600090565b61355961354c565b613564818484613527565b505050565b5b818110156135885761357d600082613551565b60018101905061356a565b5050565b601f8211156135cd5761359e8161346d565b6135a784613482565b810160208510156135b6578190505b6135ca6135c285613482565b830182613569565b50505b505050565b600082821c905092915050565b60006135f0600019846008026135d2565b1980831691505092915050565b600061360983836135df565b9150826002028217905092915050565b61362282612e76565b67ffffffffffffffff81111561363b5761363a612cef565b5b61364582546131eb565b61365082828561358c565b600060209050601f8311600181146136835760008415613671578287015190505b61367b85826135fd565b8655506136e3565b601f1984166136918661346d565b60005b828110156136b957848901518255600182019150602085019450602081019050613694565b868310156136d657848901516136d2601f8916826135df565b8355505b6001600288020188555050505b505050505050565b600060808201905081810360008301526137058187612ebc565b905081810360208301526137198186612ebc565b9050818103604083015261372d8185612ebc565b905061373c6060830184613192565b95945050505050565b600061375082613188565b915060008203613763576137626133c2565b5b600182039050919050565b7f4e487b7100000000000000000000000000000000000000000000000000000000600052601260045260246000fdfe4c6120636172746120652720736361647574612c2073692070726567612064692072696e6e6f76617265206c61206361727461a2646970667358221220b0cab7241f1399bda8dc68b96cb6fed380127e0bace75e80a5379564a652477d64736f6c6343000811003335653838343839386461323830343731353164306535366638646336323932373733363033643064366161626264643632613131656637323164313534326438",
  "immutableReferences": {},
  "source": "// SPDX-License-Identifier: MIT\npragma solidity >=0.4.2;\n\nimport \"@openzeppelin/contracts/utils/Strings.sol\";\n\ncontract IdChain{\n\n    //address admin\n    address adminAddress = 0x5B38Da6a701c568545dCfcB03FcB875f56beddC4;\n\n    //Model a IdCard\n    struct IdCard{\n        string name;\n        string surname;\n        string birthDate;\n        string birthPlace;\n        string fiscalCode;\n        string homeAddress;\n        string city;\n        string province;\n        string cap;\n        string phone;\n        //string email;\n        uint dataScadenza;\n        string password;\n    }\n\n    event IdCardScaduta(\n        string message\n    );\n\n    event createdIdCard(\n        string name,\n        string surname,\n        string fiscalCode,\n        uint dataScadenza\n    );\n\n    event renewedIdCard(\n        string name,\n        string surname,\n        string fiscalCode,\n        uint dataScadenza\n    );\n\n    \n\n    //Store the IdCards\n    //Utilizza gli address come chiave ma potrebbe non essere ottimale\n    //bisogna prevedere un sistema per evitare che una stessa IdCard venga associata a due address diversi\n    //non public per evitare che si possano vedere tutte le IdCards di altre persone\n    //un ID potrebbe essere il codice fiscale ma allo stesso tempo bisogna collegare all'address la struct\n    mapping(address => IdCard) private idCards;\n\n    //mapping che contiene tutti codici fiscali registrati associati all'address che l'hanno registrato1\n    mapping(string => address) private registeredCF;\n\n    //Store IdCards Count\n    uint public idCardsCount;\n\n    constructor(){\n        idCardsCount = 0;\n        idCards[0xAe58aAcc644bAd5dc2142e4D57890dc95363eB3d] = IdCard(\"Test\", \"Test1\", \"24/03/2000\", \"Avellino\", \"MRSNDR0022\", \"Via Via Via\",\n         \"Avellino\", \"AV\", \"83100\", \"3311242336\", 1642690626, \"5e884898da28047151d0e56f8dc6292773603d0d6aabbdd62a11ef721d1542d8\");\n\n    }\n\n    //crea una nuova IdCard\n    //dobbiamo idearci una verifica dell'identit o qualcosa del genere sen ci dir che non  sicuro\n    function createIdCard(string memory _name, string memory _surname,\n     string memory _birthDate, string memory _birthPlace, string memory _fiscalCode,\n      string memory _homeAddress, string memory _city, string memory _province,\n       string memory _cap, string memory _phone, string memory _password) public {\n        //require that the fiscalCode is not already registered\n        require(registeredCF[_fiscalCode] == address(0));\n        //Require a valid name\n        require(bytes(_name).length > 0);\n        //Require a valid surname\n        require(bytes(_surname).length > 0);\n        //Require a valid birthDate\n        require(bytes(_birthDate).length > 0);\n        //Require a valid birthPlace\n        require(bytes(_birthPlace).length > 0);\n        //Require a valid fiscalCode\n        require(bytes(_fiscalCode).length > 0);\n        //Require a valid homeAddress\n        require(bytes(_homeAddress).length > 0);\n        //Require a valid city\n        require(bytes(_city).length > 0);\n        //Require a valid province\n        require(bytes(_province).length > 0);\n        //Require a valid cap\n        require(bytes(_cap).length > 0);\n        //Require a valid phone\n        require(bytes(_phone).length > 0);\n        //Require a valid email\n        //require(bytes(_email).length > 0);\n\n        //Increment IdCards Count\n        idCardsCount ++;\n\n        //calcola la data di scadenza\n        uint dataScadenzaInt = block.timestamp + (10 * 365 days);\n\n        //Create the IdCard\n        idCards[msg.sender] = IdCard(_name, _surname, _birthDate, _birthPlace, _fiscalCode, _homeAddress,\n         _city, _province, _cap, _phone, dataScadenzaInt, _password);\n\n        //Aggiunge il codice fiscale alla lista dei codici fiscali registrati\n        registeredCF[_fiscalCode] = msg.sender;\n\n        //Trigger an event\n        emit createdIdCard(_name, _surname, _fiscalCode, dataScadenzaInt);\n    }\n\n    //Delete an IdCard\n    //pure qui credo vadano messe delle misure di sicurezza ulteriori\n    function deleteIdCard(string memory _password) public returns (string memory) {\n        //Require a valid address\n        require(msg.sender != address(0));\n\n        IdCard memory idCard = idCards[msg.sender];\n\n        if(bytes(idCard.name).length == 0){\n            return \"La carta non esiste\";\n        }\n\n\n        if(keccak256(abi.encodePacked(idCard.password)) != keccak256(abi.encodePacked(_password))){\n            return \"Password errata\";\n        }\n\n        //Delete the IdCard\n        delete idCards[msg.sender];\n        //Decrement IdCards Count\n        idCardsCount --;\n\n        return \"Carta Eliminata con successo\";\n    }\n\n    //Read an IdCard\n    //Non credo possa essere public per motivi di sicurezza e quindi andrebbe implementata un nuovo metodo che sfrutti l'autenticazione tramite spring\n    function readIdCard(address _address, string memory _password) public view returns (string memory){\n\n        //address da leggere\n        address addressToRead;\n\n        //controllo su address admin\n        if(msg.sender == adminAddress){\n            addressToRead = _address;\n        }else{\n            addressToRead = msg.sender;\n        }\n\n        //Require a valid address\n        require(addressToRead != address(0));\n        \n        //Return the IdCard\n        IdCard memory idCard = idCards[addressToRead];\n\n        if(bytes(idCard.name).length == 0){\n            return \"La carta non esiste\";\n        }\n\n        //require(keccak256(abi.encodePacked(idCard.password)) == keccak256(abi.encodePacked(_password)));\n\n        if(keccak256(abi.encodePacked(idCard.password)) != keccak256(abi.encodePacked(_password))){\n            return \"Password errata\";\n        }\n\n        //controllo sulla data di scadenza\n        if(block.timestamp > idCard.dataScadenza){\n            return \"La carta e' scaduta, si prega di rinnovare la carta\";\n        }\n        \n        //se ti stai chiedendo perch ho fatto una cosa del genere  perch solidity  stupido e non permetter di ritornare pi di 5 valori,\n        //quindi ho dovuto concatenare tutto in una stringa e poi ritornarla e poi lato web si fa lo spacchettamento della stringa nei dati che ci servcono\n        return (string(abi.encodePacked(idCard.name,\"//\",idCard.surname ,\"//\" ,idCard.birthDate ,\"//\" ,idCard.birthPlace ,\"//\"\n          ,idCard.fiscalCode ,\"//\" ,idCard.homeAddress ,\"//\" ,idCard.city ,\"//\" ,idCard.province ,\"//\"\n           ,idCard.cap ,\"//\" ,idCard.phone ,\"//\" ,Strings.toString(idCard.dataScadenza)))) ;\n    }\n\n    //Authorize with IdCard\n    //Metodo a cui viene passato l'address e che va a verificare la scadenza della card e restituisce un boolean\n    function authorize(string memory _password) public view returns (string memory){\n        //Require a valid address\n        require(msg.sender != address(0));\n        \n        IdCard memory idCard = idCards[msg.sender];\n\n        if(bytes(idCard.name).length == 0){\n            return \"La carta non esiste\";\n        }\n\n\n        if(keccak256(abi.encodePacked(idCard.password)) != keccak256(abi.encodePacked(_password))){\n            return \"Password errata\";\n        }\n\n\n        if(block.timestamp > idCard.dataScadenza){\n            return \"La carta e' scaduta, si prega di rinnovare la carta\";\n        }else{\n            return \"Autorizzato\";\n        }\n\n    }\n\n    //funzione per rinnovare la carta (rigenera la data di scadenza)\n    function renewIdCard(string memory _password) public returns (string memory){\n        //Require a valid address\n        require(msg.sender != address(0));\n        \n        IdCard memory idCard = idCards[msg.sender];\n\n        if(bytes(idCard.name).length == 0){\n            return \"La carta non esiste\";\n        }\n\n        if(keccak256(abi.encodePacked(idCard.password)) != keccak256(abi.encodePacked(_password))){\n            return \"Password errata\";\n        }\n\n        //calcola la data di scadenza\n        uint dataScadenzaInt = block.timestamp + (10 * 365 days);\n\n        delete idCards[msg.sender];\n\n        idCards[msg.sender] = IdCard(idCard.name, idCard.surname, idCard.birthDate, idCard.birthPlace, idCard.fiscalCode, idCard.homeAddress,\n         idCard.city, idCard.province, idCard.cap, idCard.phone, dataScadenzaInt, idCard.password);\n\n        //Trigger an event\n        emit renewedIdCard(idCard.name, idCard.surname, idCard.fiscalCode, idCard.dataScadenza);\n\n        return \"Carta rinnovata con successo\";\n    }\n\n\n\n\n\n}\n",
  "sourcePath": "/Users/ater/Documents/Progetti/Web3/idChain/contracts/IdChain.sol",
  "compiler": {
    "name": "solc",
    "version": "0.8.17+commit.8df45f5f.Emscripten.clang"
  },
  "schemaVersion": "3.4.11",
  "updatedAt": "2023-01-20T15:22:16.461Z",
  "networkType": "ethereum",
  "devdoc": {
    "kind": "dev",
    "methods": {},
    "version": 1
  },
  "userdoc": {
    "kind": "user",
    "methods": {},
    "version": 1
  }
}