{
  "contractName": "IdChain",
  "abi": [
    {
      "inputs": [],
      "payable": false,
      "stateMutability": "nonpayable",
      "type": "constructor"
    },
    {
      "anonymous": false,
      "inputs": [
        {
          "indexed": false,
          "internalType": "string",
          "name": "message",
          "type": "string"
        }
      ],
      "name": "IdCardScaduta",
      "type": "event"
    },
    {
      "anonymous": false,
      "inputs": [
        {
          "indexed": false,
          "internalType": "string",
          "name": "name",
          "type": "string"
        },
        {
          "indexed": false,
          "internalType": "string",
          "name": "surname",
          "type": "string"
        },
        {
          "indexed": false,
          "internalType": "string",
          "name": "fiscalCode",
          "type": "string"
        },
        {
          "indexed": false,
          "internalType": "string",
          "name": "dataScadenza",
          "type": "string"
        }
      ],
      "name": "createdIdCard",
      "type": "event"
    },
    {
      "constant": true,
      "inputs": [],
      "name": "idCardsCount",
      "outputs": [
        {
          "internalType": "uint256",
          "name": "",
          "type": "uint256"
        }
      ],
      "payable": false,
      "stateMutability": "view",
      "type": "function"
    },
    {
      "constant": false,
      "inputs": [
        {
          "internalType": "string",
          "name": "_name",
          "type": "string"
        },
        {
          "internalType": "string",
          "name": "_surname",
          "type": "string"
        },
        {
          "internalType": "string",
          "name": "_birthDate",
          "type": "string"
        },
        {
          "internalType": "string",
          "name": "_birthPlace",
          "type": "string"
        },
        {
          "internalType": "string",
          "name": "_fiscalCode",
          "type": "string"
        },
        {
          "internalType": "string",
          "name": "_homeAddress",
          "type": "string"
        },
        {
          "internalType": "string",
          "name": "_city",
          "type": "string"
        },
        {
          "internalType": "string",
          "name": "_province",
          "type": "string"
        },
        {
          "internalType": "string",
          "name": "_cap",
          "type": "string"
        },
        {
          "internalType": "string",
          "name": "_phone",
          "type": "string"
        },
        {
          "internalType": "string",
          "name": "_email",
          "type": "string"
        },
        {
          "internalType": "string",
          "name": "_dataScadenza",
          "type": "string"
        }
      ],
      "name": "createIdCard",
      "outputs": [],
      "payable": false,
      "stateMutability": "nonpayable",
      "type": "function"
    },
    {
      "constant": false,
      "inputs": [
        {
          "internalType": "address",
          "name": "_address",
          "type": "address"
        }
      ],
      "name": "deleteIdCard",
      "outputs": [],
      "payable": false,
      "stateMutability": "nonpayable",
      "type": "function"
    },
    {
      "constant": true,
      "inputs": [
        {
          "internalType": "address",
          "name": "_address",
          "type": "address"
        }
      ],
      "name": "readIdCard",
      "outputs": [
        {
          "internalType": "string",
          "name": "",
          "type": "string"
        }
      ],
      "payable": false,
      "stateMutability": "view",
      "type": "function"
    },
    {
      "constant": true,
      "inputs": [
        {
          "internalType": "address",
          "name": "_address",
          "type": "address"
        }
      ],
      "name": "authorize",
      "outputs": [
        {
          "internalType": "bool",
          "name": "",
          "type": "bool"
        }
      ],
      "payable": false,
      "stateMutability": "view",
      "type": "function"
    }
  ],
  "bytecode": "0x608060405234801561001057600080fd5b506000600281905550612253806100286000396000f3fe608060405234801561001057600080fd5b50600436106100575760003560e01c80637e1ca2fe1461005c5780639fd3ba33146100a0578063a6a432f7146107d9578063b6a5d7de146107f7578063cec4f21c14610853575b600080fd5b61009e6004803603602081101561007257600080fd5b81019080803573ffffffffffffffffffffffffffffffffffffffff169060200190929190505050610910565b005b6107d760048036036101808110156100b757600080fd5b81019080803590602001906401000000008111156100d457600080fd5b8201836020820111156100e657600080fd5b8035906020019184600183028401116401000000008311171561010857600080fd5b91908080601f016020809104026020016040519081016040528093929190818152602001838380828437600081840152601f19601f8201169050808301925050505050505091929192908035906020019064010000000081111561016b57600080fd5b82018360208201111561017d57600080fd5b8035906020019184600183028401116401000000008311171561019f57600080fd5b91908080601f016020809104026020016040519081016040528093929190818152602001838380828437600081840152601f19601f8201169050808301925050505050505091929192908035906020019064010000000081111561020257600080fd5b82018360208201111561021457600080fd5b8035906020019184600183028401116401000000008311171561023657600080fd5b91908080601f016020809104026020016040519081016040528093929190818152602001838380828437600081840152601f19601f8201169050808301925050505050505091929192908035906020019064010000000081111561029957600080fd5b8201836020820111156102ab57600080fd5b803590602001918460018302840111640100000000831117156102cd57600080fd5b91908080601f016020809104026020016040519081016040528093929190818152602001838380828437600081840152601f19601f8201169050808301925050505050505091929192908035906020019064010000000081111561033057600080fd5b82018360208201111561034257600080fd5b8035906020019184600183028401116401000000008311171561036457600080fd5b91908080601f016020809104026020016040519081016040528093929190818152602001838380828437600081840152601f19601f820116905080830192505050505050509192919290803590602001906401000000008111156103c757600080fd5b8201836020820111156103d957600080fd5b803590602001918460018302840111640100000000831117156103fb57600080fd5b91908080601f016020809104026020016040519081016040528093929190818152602001838380828437600081840152601f19601f8201169050808301925050505050505091929192908035906020019064010000000081111561045e57600080fd5b82018360208201111561047057600080fd5b8035906020019184600183028401116401000000008311171561049257600080fd5b91908080601f016020809104026020016040519081016040528093929190818152602001838380828437600081840152601f19601f820116905080830192505050505050509192919290803590602001906401000000008111156104f557600080fd5b82018360208201111561050757600080fd5b8035906020019184600183028401116401000000008311171561052957600080fd5b91908080601f016020809104026020016040519081016040528093929190818152602001838380828437600081840152601f19601f8201169050808301925050505050505091929192908035906020019064010000000081111561058c57600080fd5b82018360208201111561059e57600080fd5b803590602001918460018302840111640100000000831117156105c057600080fd5b91908080601f016020809104026020016040519081016040528093929190818152602001838380828437600081840152601f19601f8201169050808301925050505050505091929192908035906020019064010000000081111561062357600080fd5b82018360208201111561063557600080fd5b8035906020019184600183028401116401000000008311171561065757600080fd5b91908080601f016020809104026020016040519081016040528093929190818152602001838380828437600081840152601f19601f820116905080830192505050505050509192919290803590602001906401000000008111156106ba57600080fd5b8201836020820111156106cc57600080fd5b803590602001918460018302840111640100000000831117156106ee57600080fd5b91908080601f016020809104026020016040519081016040528093929190818152602001838380828437600081840152601f19601f8201169050808301925050505050505091929192908035906020019064010000000081111561075157600080fd5b82018360208201111561076357600080fd5b8035906020019184600183028401116401000000008311171561078557600080fd5b91908080601f016020809104026020016040519081016040528093929190818152602001838380828437600081840152601f19601f820116905080830192505050505050509192919290505050610a61565b005b6107e1611069565b6040518082815260200191505060405180910390f35b6108396004803603602081101561080d57600080fd5b81019080803573ffffffffffffffffffffffffffffffffffffffff16906020019092919050505061106f565b604051808215151515815260200191505060405180910390f35b6108956004803603602081101561086957600080fd5b81019080803573ffffffffffffffffffffffffffffffffffffffff169060200190929190505050611193565b6040518080602001828103825283818151815260200191508051906020019080838360005b838110156108d55780820151818401526020810190506108ba565b50505050905090810190601f1680156109025780820380516001836020036101000a031916815260200191505b509250505060405180910390f35b600073ffffffffffffffffffffffffffffffffffffffff168173ffffffffffffffffffffffffffffffffffffffff16141561094a57600080fd5b6000808273ffffffffffffffffffffffffffffffffffffffff1673ffffffffffffffffffffffffffffffffffffffff1681526020019081526020016000206000808201600061099991906120d0565b6001820160006109a991906120d0565b6002820160006109b991906120d0565b6003820160006109c991906120d0565b6004820160006109d991906120d0565b6005820160006109e991906120d0565b6006820160006109f991906120d0565b600782016000610a0991906120d0565b600882016000610a1991906120d0565b600982016000610a2991906120d0565b600a82016000610a3991906120d0565b600b82016000610a4991906120d0565b50506002600081548092919060019003919050555050565b600073ffffffffffffffffffffffffffffffffffffffff166001896040518082805190602001908083835b60208310610aaf5780518252602082019150602081019050602083039250610a8c565b6001836020036101000a038019825116818451168082178552505050505050905001915050908152602001604051809103902060009054906101000a900473ffffffffffffffffffffffffffffffffffffffff1673ffffffffffffffffffffffffffffffffffffffff1614610b2357600080fd5b60008c5111610b3157600080fd5b60008b5111610b3f57600080fd5b60008a5111610b4d57600080fd5b6000895111610b5b57600080fd5b6000885111610b6957600080fd5b6000875111610b7757600080fd5b6000865111610b8557600080fd5b6000855111610b9357600080fd5b6000845111610ba157600080fd5b6000835111610baf57600080fd5b6000825111610bbd57600080fd5b6000815111610bcb57600080fd5b6002600081548092919060010191905055506040518061018001604052808d81526020018c81526020018b81526020018a8152602001898152602001888152602001878152602001868152602001858152602001848152602001838152602001828152506000803373ffffffffffffffffffffffffffffffffffffffff1673ffffffffffffffffffffffffffffffffffffffff1681526020019081526020016000206000820151816000019080519060200190610c89929190612118565b506020820151816001019080519060200190610ca6929190612118565b506040820151816002019080519060200190610cc3929190612118565b506060820151816003019080519060200190610ce0929190612118565b506080820151816004019080519060200190610cfd929190612118565b5060a0820151816005019080519060200190610d1a929190612118565b5060c0820151816006019080519060200190610d37929190612118565b5060e0820151816007019080519060200190610d54929190612118565b50610100820151816008019080519060200190610d72929190612118565b50610120820151816009019080519060200190610d90929190612118565b5061014082015181600a019080519060200190610dae929190612118565b5061016082015181600b019080519060200190610dcc929190612118565b50905050336001896040518082805190602001908083835b60208310610e075780518252602082019150602081019050602083039250610de4565b6001836020036101000a038019825116818451168082178552505050505050905001915050908152602001604051809103902060006101000a81548173ffffffffffffffffffffffffffffffffffffffff021916908373ffffffffffffffffffffffffffffffffffffffff1602179055507f0c102721fc55cfbc7fca91db8edb44f84d13af61ab9f0768779a4c1794e774538c8c8a846040518080602001806020018060200180602001858103855289818151815260200191508051906020019080838360005b83811015610ee9578082015181840152602081019050610ece565b50505050905090810190601f168015610f165780820380516001836020036101000a031916815260200191505b50858103845288818151815260200191508051906020019080838360005b83811015610f4f578082015181840152602081019050610f34565b50505050905090810190601f168015610f7c5780820380516001836020036101000a031916815260200191505b50858103835287818151815260200191508051906020019080838360005b83811015610fb5578082015181840152602081019050610f9a565b50505050905090810190601f168015610fe25780820380516001836020036101000a031916815260200191505b50858103825286818151815260200191508051906020019080838360005b8381101561101b578082015181840152602081019050611000565b50505050905090810190601f1680156110485780820380516001836020036101000a031916815260200191505b509850505050505050505060405180910390a1505050505050505050505050565b60025481565b60008073ffffffffffffffffffffffffffffffffffffffff168273ffffffffffffffffffffffffffffffffffffffff1614156110aa57600080fd5b4260405160200180828152602001915050604051602081830303815290604052805190602001206000808473ffffffffffffffffffffffffffffffffffffffff1673ffffffffffffffffffffffffffffffffffffffff168152602001908152602001600020600b0160405160200180828054600181600116156101000203166002900480156111705780601f1061114e576101008083540402835291820191611170565b820191906000526020600020905b81548152906001019060200180831161115c575b505091505060405160208183030381529060405280519060200120119050919050565b6060600073ffffffffffffffffffffffffffffffffffffffff168273ffffffffffffffffffffffffffffffffffffffff1614156111cf57600080fd5b4260405160200180828152602001915050604051602081830303815290604052805190602001206000808473ffffffffffffffffffffffffffffffffffffffff1673ffffffffffffffffffffffffffffffffffffffff168152602001908152602001600020600b0160405160200180828054600181600116156101000203166002900480156112955780601f10611273576101008083540402835291820191611295565b820191906000526020600020905b815481529060010190602001808311611281575b50509150506040516020818303038152906040528051906020012010156112f3576040518060400160405280600d81526020017f436172746120736361647574610000000000000000000000000000000000000081525090506120cb565b6112fb612198565b6000808473ffffffffffffffffffffffffffffffffffffffff1673ffffffffffffffffffffffffffffffffffffffff16815260200190815260200160002060405180610180016040529081600082018054600181600116156101000203166002900480601f0160208091040260200160405190810160405280929190818152602001828054600181600116156101000203166002900480156113de5780601f106113b3576101008083540402835291602001916113de565b820191906000526020600020905b8154815290600101906020018083116113c157829003601f168201915b50505050508152602001600182018054600181600116156101000203166002900480601f0160208091040260200160405190810160405280929190818152602001828054600181600116156101000203166002900480156114805780601f1061145557610100808354040283529160200191611480565b820191906000526020600020905b81548152906001019060200180831161146357829003601f168201915b50505050508152602001600282018054600181600116156101000203166002900480601f0160208091040260200160405190810160405280929190818152602001828054600181600116156101000203166002900480156115225780601f106114f757610100808354040283529160200191611522565b820191906000526020600020905b81548152906001019060200180831161150557829003601f168201915b50505050508152602001600382018054600181600116156101000203166002900480601f0160208091040260200160405190810160405280929190818152602001828054600181600116156101000203166002900480156115c45780601f10611599576101008083540402835291602001916115c4565b820191906000526020600020905b8154815290600101906020018083116115a757829003601f168201915b50505050508152602001600482018054600181600116156101000203166002900480601f0160208091040260200160405190810160405280929190818152602001828054600181600116156101000203166002900480156116665780601f1061163b57610100808354040283529160200191611666565b820191906000526020600020905b81548152906001019060200180831161164957829003601f168201915b50505050508152602001600582018054600181600116156101000203166002900480601f0160208091040260200160405190810160405280929190818152602001828054600181600116156101000203166002900480156117085780601f106116dd57610100808354040283529160200191611708565b820191906000526020600020905b8154815290600101906020018083116116eb57829003601f168201915b50505050508152602001600682018054600181600116156101000203166002900480601f0160208091040260200160405190810160405280929190818152602001828054600181600116156101000203166002900480156117aa5780601f1061177f576101008083540402835291602001916117aa565b820191906000526020600020905b81548152906001019060200180831161178d57829003601f168201915b50505050508152602001600782018054600181600116156101000203166002900480601f01602080910402602001604051908101604052809291908181526020018280546001816001161561010002031660029004801561184c5780601f106118215761010080835404028352916020019161184c565b820191906000526020600020905b81548152906001019060200180831161182f57829003601f168201915b50505050508152602001600882018054600181600116156101000203166002900480601f0160208091040260200160405190810160405280929190818152602001828054600181600116156101000203166002900480156118ee5780601f106118c3576101008083540402835291602001916118ee565b820191906000526020600020905b8154815290600101906020018083116118d157829003601f168201915b50505050508152602001600982018054600181600116156101000203166002900480601f0160208091040260200160405190810160405280929190818152602001828054600181600116156101000203166002900480156119905780601f1061196557610100808354040283529160200191611990565b820191906000526020600020905b81548152906001019060200180831161197357829003601f168201915b50505050508152602001600a82018054600181600116156101000203166002900480601f016020809104026020016040519081016040528092919081815260200182805460018160011615610100020316600290048015611a325780601f10611a0757610100808354040283529160200191611a32565b820191906000526020600020905b815481529060010190602001808311611a1557829003601f168201915b50505050508152602001600b82018054600181600116156101000203166002900480601f016020809104026020016040519081016040528092919081815260200182805460018160011615610100020316600290048015611ad45780601f10611aa957610100808354040283529160200191611ad4565b820191906000526020600020905b815481529060010190602001808311611ab757829003601f168201915b5050505050815250509050806000015181602001518260400151836060015184608001518560a001518660c001518760e001518861010001518961012001518a61014001518b6101600151604051602001808d805190602001908083835b60208310611b555780518252602082019150602081019050602083039250611b32565b6001836020036101000a038019825116818451168082178552505050505050905001807f2f2f0000000000000000000000000000000000000000000000000000000000008152506002018c805190602001908083835b60208310611bce5780518252602082019150602081019050602083039250611bab565b6001836020036101000a038019825116818451168082178552505050505050905001807f2f2f0000000000000000000000000000000000000000000000000000000000008152506002018b805190602001908083835b60208310611c475780518252602082019150602081019050602083039250611c24565b6001836020036101000a038019825116818451168082178552505050505050905001807f2f2f0000000000000000000000000000000000000000000000000000000000008152506002018a805190602001908083835b60208310611cc05780518252602082019150602081019050602083039250611c9d565b6001836020036101000a038019825116818451168082178552505050505050905001807f2f2f00000000000000000000000000000000000000000000000000000000000081525060020189805190602001908083835b60208310611d395780518252602082019150602081019050602083039250611d16565b6001836020036101000a038019825116818451168082178552505050505050905001807f2f2f00000000000000000000000000000000000000000000000000000000000081525060020188805190602001908083835b60208310611db25780518252602082019150602081019050602083039250611d8f565b6001836020036101000a038019825116818451168082178552505050505050905001807f2f2f00000000000000000000000000000000000000000000000000000000000081525060020187805190602001908083835b60208310611e2b5780518252602082019150602081019050602083039250611e08565b6001836020036101000a038019825116818451168082178552505050505050905001807f2f2f00000000000000000000000000000000000000000000000000000000000081525060020186805190602001908083835b60208310611ea45780518252602082019150602081019050602083039250611e81565b6001836020036101000a038019825116818451168082178552505050505050905001807f2f2f00000000000000000000000000000000000000000000000000000000000081525060020185805190602001908083835b60208310611f1d5780518252602082019150602081019050602083039250611efa565b6001836020036101000a038019825116818451168082178552505050505050905001807f2f2f00000000000000000000000000000000000000000000000000000000000081525060020184805190602001908083835b60208310611f965780518252602082019150602081019050602083039250611f73565b6001836020036101000a038019825116818451168082178552505050505050905001807f2f2f00000000000000000000000000000000000000000000000000000000000081525060020183805190602001908083835b6020831061200f5780518252602082019150602081019050602083039250611fec565b6001836020036101000a038019825116818451168082178552505050505050905001807f2f2f00000000000000000000000000000000000000000000000000000000000081525060020182805190602001908083835b602083106120885780518252602082019150602081019050602083039250612065565b6001836020036101000a0380198251168184511680821785525050505050509050019c505050505050505050505050506040516020818303038152906040529150505b919050565b50805460018160011615610100020316600290046000825580601f106120f65750612115565b601f01602090049060005260206000209081019061211491906121f9565b5b50565b828054600181600116156101000203166002900490600052602060002090601f016020900481019282601f1061215957805160ff1916838001178555612187565b82800160010185558215612187579182015b8281111561218657825182559160200191906001019061216b565b5b50905061219491906121f9565b5090565b6040518061018001604052806060815260200160608152602001606081526020016060815260200160608152602001606081526020016060815260200160608152602001606081526020016060815260200160608152602001606081525090565b61221b91905b808211156122175760008160009055506001016121ff565b5090565b9056fea265627a7a72315820d22f2f3539f78e81adc7c76f6280f14d10dcf2af4166a2b570c75053f05ef72464736f6c63430005100032",
  "source": "// SPDX-License-Identifier: MIT\npragma solidity >=0.4.2;\n\n\ncontract IdChain{\n\n    //Model a IdCard\n    struct IdCard{\n        string name;\n        string surname;\n        string birthDate;\n        string birthPlace;\n        string fiscalCode;\n        string homeAddress;\n        string city;\n        string province;\n        string cap;\n        string phone;\n        string email;\n        string dataScadenza;\n    }\n\n    event IdCardScaduta(\n        string message\n    );\n\n    event createdIdCard(\n        string name,\n        string surname,\n        string fiscalCode,\n        string dataScadenza\n    );\n\n    \n\n    //Store the IdCards\n    //Utilizza gli address come chiave ma potrebbe non essere ottimale\n    //bisogna prevedere un sistema per evitare che una stessa IdCard venga associata a due address diversi\n    //non public per evitare che si possano vedere tutte le IdCards di altre persone\n    //un ID potrebbe essere il codice fiscale ma allo stesso tempo bisogna collegare all'address la struct\n    mapping(address => IdCard) idCards;\n\n    //mapping che contiene tutti codici fiscali registrati associati all'address che l'hanno registrato1\n    mapping(string => address) registeredCF;\n\n    //Store IdCards Count\n    uint public idCardsCount;\n\n    constructor() public{\n        idCardsCount = 0;\n    }\n\n    //crea una nuova IdCard\n    //dobbiamo idearci una verifica dell'identit o qualcosa del genere sen ci dir che non  sicuro\n    function createIdCard(string memory _name, string memory _surname,\n     string memory _birthDate, string memory _birthPlace, string memory _fiscalCode,\n      string memory _homeAddress, string memory _city, string memory _province,\n       string memory _cap, string memory _phone, string memory _email, string memory _dataScadenza) public {\n        //require that the fiscalCode is not already registered\n        require(registeredCF[_fiscalCode] == address(0));\n        //Require a valid name\n        require(bytes(_name).length > 0);\n        //Require a valid surname\n        require(bytes(_surname).length > 0);\n        //Require a valid birthDate\n        require(bytes(_birthDate).length > 0);\n        //Require a valid birthPlace\n        require(bytes(_birthPlace).length > 0);\n        //Require a valid fiscalCode\n        require(bytes(_fiscalCode).length > 0);\n        //Require a valid homeAddress\n        require(bytes(_homeAddress).length > 0);\n        //Require a valid city\n        require(bytes(_city).length > 0);\n        //Require a valid province\n        require(bytes(_province).length > 0);\n        //Require a valid cap\n        require(bytes(_cap).length > 0);\n        //Require a valid phone\n        require(bytes(_phone).length > 0);\n        //Require a valid email\n        require(bytes(_email).length > 0);\n        //Require a valid dataScadenza\n        require(bytes(_dataScadenza).length > 0);\n\n        //Increment IdCards Count\n        idCardsCount ++;\n\n        //Create the IdCard\n        idCards[msg.sender] = IdCard(_name, _surname, _birthDate, _birthPlace, _fiscalCode, _homeAddress, _city, _province, _cap, _phone, _email, _dataScadenza);\n\n        //Aggiunge il codice fiscale alla lista dei codici fiscali registrati\n        registeredCF[_fiscalCode] = msg.sender;\n\n        //Trigger an event\n        emit createdIdCard(_name, _surname, _fiscalCode,_dataScadenza);\n    }\n\n    //Delete an IdCard\n    //pure qui credo vadano messe delle misure di sicurezza ulteriori\n    function deleteIdCard(address _address) public {\n        //Require a valid address\n        require(_address != address(0));\n        //Delete the IdCard\n        delete idCards[_address];\n        //Decrement IdCards Count\n        idCardsCount --;\n    }\n\n    //Read an IdCard\n    //Non credo possa essere public per motivi di sicurezza e quindi andrebbe implementata un nuovo metodo che sfrutti l'autenticazione tramite spring\n    function readIdCard(address _address) public view returns (string memory){\n        //Require a valid address\n        require(_address != address(0));\n        \n        if(keccak256(abi.encodePacked(idCards[_address].dataScadenza)) < keccak256(abi.encodePacked(block.timestamp))){\n            return \"Carta scaduta\";\n        }\n        \n        //Return the IdCard\n        IdCard memory idCard = idCards[_address];\n        //se ti stai chiedendo perch ho fatto una cosa del genere  perch solidity  stupido e non permetter di ritornare pi di 5 valori,\n        //quindi ho dovuto concatenare tutto in una stringa e poi ritornarla e poi lato web si fa lo spacchettamento della stringa nei dati che ci servcono\n        return (string(abi.encodePacked(idCard.name,\"//\",idCard.surname ,\"//\" ,idCard.birthDate ,\"//\" ,idCard.birthPlace ,\"//\"\n          ,idCard.fiscalCode ,\"//\" ,idCard.homeAddress ,\"//\" ,idCard.city ,\"//\" ,idCard.province ,\"//\"\n           ,idCard.cap ,\"//\" ,idCard.phone ,\"//\" ,idCard.email ,\"//\" ,idCard.dataScadenza))) ;\n    }\n\n    //Authorize with IdCard\n    //Metodo a cui viene passato l'address e che va a verificare la scadenza della card e restituisce un boolean\n    function authorize(address _address) public view returns (bool){\n        //Require a valid address\n        require(_address != address(0));\n        //Return the IdCard\n        //non sono pienamente sicuro su questo che l'ho trovato online, poi va testato per bene\n        return (keccak256(abi.encodePacked(idCards[_address].dataScadenza)) > keccak256(abi.encodePacked(block.timestamp)));\n    }\n\n\n\n\n\n}\n",
  "sourcePath": "/Users/ater/Documents/Progetti/Web3/idChain/contracts/IdChain.sol",
  "compiler": {
    "name": "solc",
    "version": "0.5.16+commit.9c3226ce.Emscripten.clang"
  },
  "schemaVersion": "3.4.11",
  "updatedAt": "2023-01-08T17:47:19.570Z",
  "networkType": "ethereum",
  "devdoc": {
    "methods": {}
  },
  "userdoc": {
    "methods": {}
  }
}