{
  "contractName": "IdChain",
  "abi": [
    {
      "inputs": [],
      "stateMutability": "nonpayable",
      "type": "constructor"
    },
    {
      "anonymous": false,
      "inputs": [
        {
          "indexed": false,
          "internalType": "string",
          "name": "message",
          "type": "string"
        }
      ],
      "name": "IdCardScaduta",
      "type": "event"
    },
    {
      "anonymous": false,
      "inputs": [
        {
          "indexed": true,
          "internalType": "bytes32",
          "name": "role",
          "type": "bytes32"
        },
        {
          "indexed": true,
          "internalType": "bytes32",
          "name": "previousAdminRole",
          "type": "bytes32"
        },
        {
          "indexed": true,
          "internalType": "bytes32",
          "name": "newAdminRole",
          "type": "bytes32"
        }
      ],
      "name": "RoleAdminChanged",
      "type": "event"
    },
    {
      "anonymous": false,
      "inputs": [
        {
          "indexed": true,
          "internalType": "bytes32",
          "name": "role",
          "type": "bytes32"
        },
        {
          "indexed": true,
          "internalType": "address",
          "name": "account",
          "type": "address"
        },
        {
          "indexed": true,
          "internalType": "address",
          "name": "sender",
          "type": "address"
        }
      ],
      "name": "RoleGranted",
      "type": "event"
    },
    {
      "anonymous": false,
      "inputs": [
        {
          "indexed": true,
          "internalType": "bytes32",
          "name": "role",
          "type": "bytes32"
        },
        {
          "indexed": true,
          "internalType": "address",
          "name": "account",
          "type": "address"
        },
        {
          "indexed": true,
          "internalType": "address",
          "name": "sender",
          "type": "address"
        }
      ],
      "name": "RoleRevoked",
      "type": "event"
    },
    {
      "anonymous": false,
      "inputs": [
        {
          "indexed": false,
          "internalType": "string",
          "name": "name",
          "type": "string"
        },
        {
          "indexed": false,
          "internalType": "string",
          "name": "surname",
          "type": "string"
        },
        {
          "indexed": false,
          "internalType": "string",
          "name": "fiscalCode",
          "type": "string"
        },
        {
          "indexed": false,
          "internalType": "uint256",
          "name": "dataScadenza",
          "type": "uint256"
        }
      ],
      "name": "createdIdCard",
      "type": "event"
    },
    {
      "anonymous": false,
      "inputs": [
        {
          "indexed": false,
          "internalType": "string",
          "name": "name",
          "type": "string"
        },
        {
          "indexed": false,
          "internalType": "string",
          "name": "surname",
          "type": "string"
        },
        {
          "indexed": false,
          "internalType": "string",
          "name": "fiscalCode",
          "type": "string"
        },
        {
          "indexed": false,
          "internalType": "uint256",
          "name": "dataScadenza",
          "type": "uint256"
        }
      ],
      "name": "renewedIdCard",
      "type": "event"
    },
    {
      "inputs": [],
      "name": "DEFAULT_ADMIN_ROLE",
      "outputs": [
        {
          "internalType": "bytes32",
          "name": "",
          "type": "bytes32"
        }
      ],
      "stateMutability": "view",
      "type": "function",
      "constant": true
    },
    {
      "inputs": [
        {
          "internalType": "bytes32",
          "name": "role",
          "type": "bytes32"
        }
      ],
      "name": "getRoleAdmin",
      "outputs": [
        {
          "internalType": "bytes32",
          "name": "",
          "type": "bytes32"
        }
      ],
      "stateMutability": "view",
      "type": "function",
      "constant": true
    },
    {
      "inputs": [
        {
          "internalType": "bytes32",
          "name": "role",
          "type": "bytes32"
        },
        {
          "internalType": "address",
          "name": "account",
          "type": "address"
        }
      ],
      "name": "grantRole",
      "outputs": [],
      "stateMutability": "nonpayable",
      "type": "function"
    },
    {
      "inputs": [
        {
          "internalType": "bytes32",
          "name": "role",
          "type": "bytes32"
        },
        {
          "internalType": "address",
          "name": "account",
          "type": "address"
        }
      ],
      "name": "hasRole",
      "outputs": [
        {
          "internalType": "bool",
          "name": "",
          "type": "bool"
        }
      ],
      "stateMutability": "view",
      "type": "function",
      "constant": true
    },
    {
      "inputs": [],
      "name": "idCardsCount",
      "outputs": [
        {
          "internalType": "uint256",
          "name": "",
          "type": "uint256"
        }
      ],
      "stateMutability": "view",
      "type": "function",
      "constant": true
    },
    {
      "inputs": [
        {
          "internalType": "bytes32",
          "name": "role",
          "type": "bytes32"
        },
        {
          "internalType": "address",
          "name": "account",
          "type": "address"
        }
      ],
      "name": "renounceRole",
      "outputs": [],
      "stateMutability": "nonpayable",
      "type": "function"
    },
    {
      "inputs": [
        {
          "internalType": "bytes32",
          "name": "role",
          "type": "bytes32"
        },
        {
          "internalType": "address",
          "name": "account",
          "type": "address"
        }
      ],
      "name": "revokeRole",
      "outputs": [],
      "stateMutability": "nonpayable",
      "type": "function"
    },
    {
      "inputs": [
        {
          "internalType": "bytes4",
          "name": "interfaceId",
          "type": "bytes4"
        }
      ],
      "name": "supportsInterface",
      "outputs": [
        {
          "internalType": "bool",
          "name": "",
          "type": "bool"
        }
      ],
      "stateMutability": "view",
      "type": "function",
      "constant": true
    },
    {
      "inputs": [
        {
          "internalType": "string",
          "name": "_name",
          "type": "string"
        },
        {
          "internalType": "string",
          "name": "_surname",
          "type": "string"
        },
        {
          "internalType": "string",
          "name": "_birthDate",
          "type": "string"
        },
        {
          "internalType": "string",
          "name": "_birthPlace",
          "type": "string"
        },
        {
          "internalType": "string",
          "name": "_fiscalCode",
          "type": "string"
        },
        {
          "internalType": "string",
          "name": "_homeAddress",
          "type": "string"
        },
        {
          "internalType": "string",
          "name": "_city",
          "type": "string"
        },
        {
          "internalType": "string",
          "name": "_province",
          "type": "string"
        },
        {
          "internalType": "string",
          "name": "_cap",
          "type": "string"
        },
        {
          "internalType": "string",
          "name": "_phone",
          "type": "string"
        },
        {
          "internalType": "string",
          "name": "_password",
          "type": "string"
        }
      ],
      "name": "createIdCard",
      "outputs": [],
      "stateMutability": "nonpayable",
      "type": "function"
    },
    {
      "inputs": [
        {
          "internalType": "string",
          "name": "_password",
          "type": "string"
        }
      ],
      "name": "deleteIdCard",
      "outputs": [
        {
          "internalType": "string",
          "name": "",
          "type": "string"
        }
      ],
      "stateMutability": "nonpayable",
      "type": "function"
    },
    {
      "inputs": [
        {
          "internalType": "string",
          "name": "_cf",
          "type": "string"
        },
        {
          "internalType": "string",
          "name": "_password",
          "type": "string"
        }
      ],
      "name": "readIdCard",
      "outputs": [
        {
          "internalType": "string",
          "name": "",
          "type": "string"
        }
      ],
      "stateMutability": "view",
      "type": "function",
      "constant": true
    },
    {
      "inputs": [
        {
          "internalType": "string",
          "name": "_password",
          "type": "string"
        }
      ],
      "name": "authorize",
      "outputs": [
        {
          "internalType": "string",
          "name": "",
          "type": "string"
        }
      ],
      "stateMutability": "view",
      "type": "function",
      "constant": true
    },
    {
      "inputs": [
        {
          "internalType": "string",
          "name": "_password",
          "type": "string"
        }
      ],
      "name": "renewIdCard",
      "outputs": [
        {
          "internalType": "string",
          "name": "",
          "type": "string"
        }
      ],
      "stateMutability": "nonpayable",
      "type": "function"
    },
    {
      "inputs": [],
      "name": "isAdmin",
      "outputs": [
        {
          "internalType": "bool",
          "name": "",
          "type": "bool"
        }
      ],
      "stateMutability": "view",
      "type": "function",
      "constant": true
    }
  ],
  "bytecode": "0x60806040523480156200001157600080fd5b5060006003819055506040518061018001604052806040518060400160405280600481526020017f546573740000000000000000000000000000000000000000000000000000000081525081526020016040518060400160405280600581526020017f546573743100000000000000000000000000000000000000000000000000000081525081526020016040518060400160405280600a81526020017f32342f30332f323030300000000000000000000000000000000000000000000081525081526020016040518060400160405280600881526020017f4176656c6c696e6f00000000000000000000000000000000000000000000000081525081526020016040518060400160405280600a81526020017f4d52534e4452303032320000000000000000000000000000000000000000000081525081526020016040518060400160405280600b81526020017f566961205669612056696100000000000000000000000000000000000000000081525081526020016040518060400160405280600881526020017f4176656c6c696e6f00000000000000000000000000000000000000000000000081525081526020016040518060400160405280600281526020017f415600000000000000000000000000000000000000000000000000000000000081525081526020016040518060400160405280600581526020017f383331303000000000000000000000000000000000000000000000000000000081525081526020016040518060400160405280600a81526020017f333331313234323333360000000000000000000000000000000000000000000081525081526020016361e97842815260200160405180606001604052806040815260200162005000604091398152506001600073cd3dae09e94aad0bc8e2bce8d5905384fe838c8e73ffffffffffffffffffffffffffffffffffffffff1673ffffffffffffffffffffffffffffffffffffffff16815260200190815260200160002060008201518160000190816200030591906200088d565b5060208201518160010190816200031d91906200088d565b5060408201518160020190816200033591906200088d565b5060608201518160030190816200034d91906200088d565b5060808201518160040190816200036591906200088d565b5060a08201518160050190816200037d91906200088d565b5060c08201518160060190816200039591906200088d565b5060e0820151816007019081620003ad91906200088d565b50610100820151816008019081620003c691906200088d565b50610120820151816009019081620003df91906200088d565b5061014082015181600a015561016082015181600b0190816200040391906200088d565b5090505073cd3dae09e94aad0bc8e2bce8d5905384fe838c8e60026040516200042c90620009cf565b908152602001604051809103902060006101000a81548173ffffffffffffffffffffffffffffffffffffffff021916908373ffffffffffffffffffffffffffffffffffffffff160217905550620004aa7fa49807205ce4d355092ef5a8a18f56e8913cf4a201fbe287825b095693c2177533620004b060201b60201c565b620009e6565b620004c28282620005a160201b60201c565b6200059d57600160008084815260200190815260200160002060000160008373ffffffffffffffffffffffffffffffffffffffff1673ffffffffffffffffffffffffffffffffffffffff16815260200190815260200160002060006101000a81548160ff021916908315150217905550620005426200060b60201b60201c565b73ffffffffffffffffffffffffffffffffffffffff168173ffffffffffffffffffffffffffffffffffffffff16837f2f8788117e7eff1d82e926ec794901d17c78024a50270940304540a733656f0d60405160405180910390a45b5050565b600080600084815260200190815260200160002060000160008373ffffffffffffffffffffffffffffffffffffffff1673ffffffffffffffffffffffffffffffffffffffff16815260200190815260200160002060009054906101000a900460ff16905092915050565b600033905090565b600081519050919050565b7f4e487b7100000000000000000000000000000000000000000000000000000000600052604160045260246000fd5b7f4e487b7100000000000000000000000000000000000000000000000000000000600052602260045260246000fd5b600060028204905060018216806200069557607f821691505b602082108103620006ab57620006aa6200064d565b5b50919050565b60008190508160005260206000209050919050565b60006020601f8301049050919050565b600082821b905092915050565b600060088302620007157fffffffffffffffffffffffffffffffffffffffffffffffffffffffffffffffff82620006d6565b620007218683620006d6565b95508019841693508086168417925050509392505050565b6000819050919050565b6000819050919050565b60006200076e62000768620007628462000739565b62000743565b62000739565b9050919050565b6000819050919050565b6200078a836200074d565b620007a2620007998262000775565b848454620006e3565b825550505050565b600090565b620007b9620007aa565b620007c68184846200077f565b505050565b5b81811015620007ee57620007e2600082620007af565b600181019050620007cc565b5050565b601f8211156200083d576200080781620006b1565b6200081284620006c6565b8101602085101562000822578190505b6200083a6200083185620006c6565b830182620007cb565b50505b505050565b600082821c905092915050565b6000620008626000198460080262000842565b1980831691505092915050565b60006200087d83836200084f565b9150826002028217905092915050565b620008988262000613565b67ffffffffffffffff811115620008b457620008b36200061e565b5b620008c082546200067c565b620008cd828285620007f2565b600060209050601f831160018114620009055760008415620008f0578287015190505b620008fc85826200086f565b8655506200096c565b601f1984166200091586620006b1565b60005b828110156200093f5784890151825560018201915060208501945060208101905062000918565b868310156200095f57848901516200095b601f8916826200084f565b8355505b6001600288020188555050505b505050505050565b600081905092915050565b7f4d52534e44523030323200000000000000000000000000000000000000000000600082015250565b6000620009b7600a8362000974565b9150620009c4826200097f565b600a82019050919050565b6000620009dc82620009a8565b9150819050919050565b61460a80620009f66000396000f3fe608060405234801561001057600080fd5b50600436106100ea5760003560e01c806391d148541161008c578063a6a432f711610066578063a6a432f714610281578063b6db75a01461029f578063c5836853146102bd578063d547741f146102ed576100ea565b806391d1485414610203578063992a22d214610233578063a217fddf14610263576100ea565b806335fb3fd3116100c857806335fb3fd31461016b57806336568abe146101875780633c9e293d146101a35780634f5fcb34146101d3576100ea565b806301ffc9a7146100ef578063248a9ca31461011f5780632f2ff15d1461014f575b600080fd5b61010960048036038101906101049190613720565b610309565b6040516101169190613768565b60405180910390f35b610139600480360381019061013491906137b9565b610383565b60405161014691906137f5565b60405180910390f35b6101696004803603810190610164919061386e565b6103a2565b005b610185600480360381019061018091906139f4565b6103c3565b005b6101a1600480360381019061019c919061386e565b61072e565b005b6101bd60048036038101906101b89190613c1c565b6107b1565b6040516101ca9190613ce4565b60405180910390f35b6101ed60048036038101906101e89190613c1c565b61110a565b6040516101fa9190613ce4565b60405180910390f35b61021d6004803603810190610218919061386e565b61194f565b60405161022a9190613768565b60405180910390f35b61024d60048036038101906102489190613d06565b6119b9565b60405161025a9190613ce4565b60405180910390f35b61026b612388565b60405161027891906137f5565b60405180910390f35b61028961238f565b6040516102969190613d97565b60405180910390f35b6102a7612395565b6040516102b49190613768565b60405180910390f35b6102d760048036038101906102d29190613c1c565b6123c6565b6040516102e49190613ce4565b60405180910390f35b6103076004803603810190610302919061386e565b612ee0565b005b60007f7965db0b000000000000000000000000000000000000000000000000000000007bffffffffffffffffffffffffffffffffffffffffffffffffffffffff1916827bffffffffffffffffffffffffffffffffffffffffffffffffffffffff1916148061037c575061037b82612f01565b5b9050919050565b6000806000838152602001908152602001600020600101549050919050565b6103ab82610383565b6103b481612f6b565b6103be8383612f7f565b505050565b600073ffffffffffffffffffffffffffffffffffffffff166002886040516103eb9190613dee565b908152602001604051809103902060009054906101000a900473ffffffffffffffffffffffffffffffffffffffff1673ffffffffffffffffffffffffffffffffffffffff161461043a57600080fd5b60008b511161044857600080fd5b60008a511161045657600080fd5b600089511161046457600080fd5b600088511161047257600080fd5b600087511161048057600080fd5b600086511161048e57600080fd5b600085511161049c57600080fd5b60008451116104aa57600080fd5b60008351116104b857600080fd5b60008251116104c657600080fd5b600360008154809291906104d990613e34565b919050555060006312cc0300426104f09190613e7c565b90506040518061018001604052808d81526020018c81526020018b81526020018a815260200189815260200188815260200187815260200186815260200185815260200184815260200182815260200183815250600160003373ffffffffffffffffffffffffffffffffffffffff1673ffffffffffffffffffffffffffffffffffffffff168152602001908152602001600020600082015181600001908161059891906140bc565b5060208201518160010190816105ae91906140bc565b5060408201518160020190816105c491906140bc565b5060608201518160030190816105da91906140bc565b5060808201518160040190816105f091906140bc565b5060a082015181600501908161060691906140bc565b5060c082015181600601908161061c91906140bc565b5060e082015181600701908161063291906140bc565b5061010082015181600801908161064991906140bc565b5061012082015181600901908161066091906140bc565b5061014082015181600a015561016082015181600b01908161068291906140bc565b50905050336002896040516106979190613dee565b908152602001604051809103902060006101000a81548173ffffffffffffffffffffffffffffffffffffffff021916908373ffffffffffffffffffffffffffffffffffffffff1602179055507fea0e21aa925590127eb9530746cf0f19e2b823e70c4186ee283ad7bad6bf7d698c8c8a84604051610718949392919061418e565b60405180910390a1505050505050505050505050565b61073661305f565b73ffffffffffffffffffffffffffffffffffffffff168173ffffffffffffffffffffffffffffffffffffffff16146107a3576040517f08c379a000000000000000000000000000000000000000000000000000000000815260040161079a9061425a565b60405180910390fd5b6107ad8282613067565b5050565b6060600073ffffffffffffffffffffffffffffffffffffffff163373ffffffffffffffffffffffffffffffffffffffff16036107ec57600080fd5b6000600160003373ffffffffffffffffffffffffffffffffffffffff1673ffffffffffffffffffffffffffffffffffffffff1681526020019081526020016000206040518061018001604052908160008201805461084990613edf565b80601f016020809104026020016040519081016040528092919081815260200182805461087590613edf565b80156108c25780601f10610897576101008083540402835291602001916108c2565b820191906000526020600020905b8154815290600101906020018083116108a557829003601f168201915b505050505081526020016001820180546108db90613edf565b80601f016020809104026020016040519081016040528092919081815260200182805461090790613edf565b80156109545780601f1061092957610100808354040283529160200191610954565b820191906000526020600020905b81548152906001019060200180831161093757829003601f168201915b5050505050815260200160028201805461096d90613edf565b80601f016020809104026020016040519081016040528092919081815260200182805461099990613edf565b80156109e65780601f106109bb576101008083540402835291602001916109e6565b820191906000526020600020905b8154815290600101906020018083116109c957829003601f168201915b505050505081526020016003820180546109ff90613edf565b80601f0160208091040260200160405190810160405280929190818152602001828054610a2b90613edf565b8015610a785780601f10610a4d57610100808354040283529160200191610a78565b820191906000526020600020905b815481529060010190602001808311610a5b57829003601f168201915b50505050508152602001600482018054610a9190613edf565b80601f0160208091040260200160405190810160405280929190818152602001828054610abd90613edf565b8015610b0a5780601f10610adf57610100808354040283529160200191610b0a565b820191906000526020600020905b815481529060010190602001808311610aed57829003601f168201915b50505050508152602001600582018054610b2390613edf565b80601f0160208091040260200160405190810160405280929190818152602001828054610b4f90613edf565b8015610b9c5780601f10610b7157610100808354040283529160200191610b9c565b820191906000526020600020905b815481529060010190602001808311610b7f57829003601f168201915b50505050508152602001600682018054610bb590613edf565b80601f0160208091040260200160405190810160405280929190818152602001828054610be190613edf565b8015610c2e5780601f10610c0357610100808354040283529160200191610c2e565b820191906000526020600020905b815481529060010190602001808311610c1157829003601f168201915b50505050508152602001600782018054610c4790613edf565b80601f0160208091040260200160405190810160405280929190818152602001828054610c7390613edf565b8015610cc05780601f10610c9557610100808354040283529160200191610cc0565b820191906000526020600020905b815481529060010190602001808311610ca357829003601f168201915b50505050508152602001600882018054610cd990613edf565b80601f0160208091040260200160405190810160405280929190818152602001828054610d0590613edf565b8015610d525780601f10610d2757610100808354040283529160200191610d52565b820191906000526020600020905b815481529060010190602001808311610d3557829003601f168201915b50505050508152602001600982018054610d6b90613edf565b80601f0160208091040260200160405190810160405280929190818152602001828054610d9790613edf565b8015610de45780601f10610db957610100808354040283529160200191610de4565b820191906000526020600020905b815481529060010190602001808311610dc757829003601f168201915b50505050508152602001600a8201548152602001600b82018054610e0790613edf565b80601f0160208091040260200160405190810160405280929190818152602001828054610e3390613edf565b8015610e805780601f10610e5557610100808354040283529160200191610e80565b820191906000526020600020905b815481529060010190602001808311610e6357829003601f168201915b5050505050815250509050600081608001519050600082600001515103610ee0576040518060400160405280600c81526020017f636172644e6f74466f756e64000000000000000000000000000000000000000081525092505050611105565b83604051602001610ef19190613dee565b60405160208183030381529060405280519060200120826101600151604051602001610f1d9190613dee565b6040516020818303038152906040528051906020012014610f77576040518060400160405280600d81526020017f6572726f7250617373776f72640000000000000000000000000000000000000081525092505050611105565b600160003373ffffffffffffffffffffffffffffffffffffffff1673ffffffffffffffffffffffffffffffffffffffff16815260200190815260200160002060008082016000610fc79190613657565b600182016000610fd79190613657565b600282016000610fe79190613657565b600382016000610ff79190613657565b6004820160006110079190613657565b6005820160006110179190613657565b6006820160006110279190613657565b6007820160006110379190613657565b6008820160006110479190613657565b6009820160006110579190613657565b600a820160009055600b8201600061106f9190613657565b50506002816040516110819190613dee565b908152602001604051809103902060006101000a81549073ffffffffffffffffffffffffffffffffffffffff0219169055600360008154809291906110c59061427a565b91905055506040518060400160405280601181526020017f6361726444656c65746553756363657373000000000000000000000000000000815250925050505b919050565b6060600073ffffffffffffffffffffffffffffffffffffffff163373ffffffffffffffffffffffffffffffffffffffff160361114557600080fd5b6000600160003373ffffffffffffffffffffffffffffffffffffffff1673ffffffffffffffffffffffffffffffffffffffff168152602001908152602001600020604051806101800160405290816000820180546111a290613edf565b80601f01602080910402602001604051908101604052809291908181526020018280546111ce90613edf565b801561121b5780601f106111f05761010080835404028352916020019161121b565b820191906000526020600020905b8154815290600101906020018083116111fe57829003601f168201915b5050505050815260200160018201805461123490613edf565b80601f016020809104026020016040519081016040528092919081815260200182805461126090613edf565b80156112ad5780601f10611282576101008083540402835291602001916112ad565b820191906000526020600020905b81548152906001019060200180831161129057829003601f168201915b505050505081526020016002820180546112c690613edf565b80601f01602080910402602001604051908101604052809291908181526020018280546112f290613edf565b801561133f5780601f106113145761010080835404028352916020019161133f565b820191906000526020600020905b81548152906001019060200180831161132257829003601f168201915b5050505050815260200160038201805461135890613edf565b80601f016020809104026020016040519081016040528092919081815260200182805461138490613edf565b80156113d15780601f106113a6576101008083540402835291602001916113d1565b820191906000526020600020905b8154815290600101906020018083116113b457829003601f168201915b505050505081526020016004820180546113ea90613edf565b80601f016020809104026020016040519081016040528092919081815260200182805461141690613edf565b80156114635780601f1061143857610100808354040283529160200191611463565b820191906000526020600020905b81548152906001019060200180831161144657829003601f168201915b5050505050815260200160058201805461147c90613edf565b80601f01602080910402602001604051908101604052809291908181526020018280546114a890613edf565b80156114f55780601f106114ca576101008083540402835291602001916114f5565b820191906000526020600020905b8154815290600101906020018083116114d857829003601f168201915b5050505050815260200160068201805461150e90613edf565b80601f016020809104026020016040519081016040528092919081815260200182805461153a90613edf565b80156115875780601f1061155c57610100808354040283529160200191611587565b820191906000526020600020905b81548152906001019060200180831161156a57829003601f168201915b505050505081526020016007820180546115a090613edf565b80601f01602080910402602001604051908101604052809291908181526020018280546115cc90613edf565b80156116195780601f106115ee57610100808354040283529160200191611619565b820191906000526020600020905b8154815290600101906020018083116115fc57829003601f168201915b5050505050815260200160088201805461163290613edf565b80601f016020809104026020016040519081016040528092919081815260200182805461165e90613edf565b80156116ab5780601f10611680576101008083540402835291602001916116ab565b820191906000526020600020905b81548152906001019060200180831161168e57829003601f168201915b505050505081526020016009820180546116c490613edf565b80601f01602080910402602001604051908101604052809291908181526020018280546116f090613edf565b801561173d5780601f106117125761010080835404028352916020019161173d565b820191906000526020600020905b81548152906001019060200180831161172057829003601f168201915b50505050508152602001600a8201548152602001600b8201805461176090613edf565b80601f016020809104026020016040519081016040528092919081815260200182805461178c90613edf565b80156117d95780601f106117ae576101008083540402835291602001916117d9565b820191906000526020600020905b8154815290600101906020018083116117bc57829003601f168201915b505050505081525050905060008160000151510361182f576040518060400160405280600c81526020017f636172644e6f74466f756e64000000000000000000000000000000000000000081525091505061194a565b826040516020016118409190613dee565b6040516020818303038152906040528051906020012081610160015160405160200161186c9190613dee565b60405160208183030381529060405280519060200120146118c5576040518060400160405280600d81526020017f6572726f7250617373776f72640000000000000000000000000000000000000081525091505061194a565b806101400151421115611910576040518060400160405280600a81526020017f657870697265436172640000000000000000000000000000000000000000000081525091505061194a565b6040518060400160405280600b81526020017f4175746f72697a7a61746f0000000000000000000000000000000000000000008152509150505b919050565b600080600084815260200190815260200160002060000160008373ffffffffffffffffffffffffffffffffffffffff1673ffffffffffffffffffffffffffffffffffffffff16815260200190815260200160002060009054906101000a900460ff16905092915050565b606060006119e77fa49807205ce4d355092ef5a8a18f56e8913cf4a201fbe287825b095693c217753361194f565b15611aa957600073ffffffffffffffffffffffffffffffffffffffff16600285604051611a149190613dee565b908152602001604051809103902060009054906101000a900473ffffffffffffffffffffffffffffffffffffffff1673ffffffffffffffffffffffffffffffffffffffff1603611a6357600080fd5b600284604051611a739190613dee565b908152602001604051809103902060009054906101000a900473ffffffffffffffffffffffffffffffffffffffff169050611aad565b3390505b600073ffffffffffffffffffffffffffffffffffffffff168173ffffffffffffffffffffffffffffffffffffffff1603611ae657600080fd5b6000600160008373ffffffffffffffffffffffffffffffffffffffff1673ffffffffffffffffffffffffffffffffffffffff16815260200190815260200160002060405180610180016040529081600082018054611b4390613edf565b80601f0160208091040260200160405190810160405280929190818152602001828054611b6f90613edf565b8015611bbc5780601f10611b9157610100808354040283529160200191611bbc565b820191906000526020600020905b815481529060010190602001808311611b9f57829003601f168201915b50505050508152602001600182018054611bd590613edf565b80601f0160208091040260200160405190810160405280929190818152602001828054611c0190613edf565b8015611c4e5780601f10611c2357610100808354040283529160200191611c4e565b820191906000526020600020905b815481529060010190602001808311611c3157829003601f168201915b50505050508152602001600282018054611c6790613edf565b80601f0160208091040260200160405190810160405280929190818152602001828054611c9390613edf565b8015611ce05780601f10611cb557610100808354040283529160200191611ce0565b820191906000526020600020905b815481529060010190602001808311611cc357829003601f168201915b50505050508152602001600382018054611cf990613edf565b80601f0160208091040260200160405190810160405280929190818152602001828054611d2590613edf565b8015611d725780601f10611d4757610100808354040283529160200191611d72565b820191906000526020600020905b815481529060010190602001808311611d5557829003601f168201915b50505050508152602001600482018054611d8b90613edf565b80601f0160208091040260200160405190810160405280929190818152602001828054611db790613edf565b8015611e045780601f10611dd957610100808354040283529160200191611e04565b820191906000526020600020905b815481529060010190602001808311611de757829003601f168201915b50505050508152602001600582018054611e1d90613edf565b80601f0160208091040260200160405190810160405280929190818152602001828054611e4990613edf565b8015611e965780601f10611e6b57610100808354040283529160200191611e96565b820191906000526020600020905b815481529060010190602001808311611e7957829003601f168201915b50505050508152602001600682018054611eaf90613edf565b80601f0160208091040260200160405190810160405280929190818152602001828054611edb90613edf565b8015611f285780601f10611efd57610100808354040283529160200191611f28565b820191906000526020600020905b815481529060010190602001808311611f0b57829003601f168201915b50505050508152602001600782018054611f4190613edf565b80601f0160208091040260200160405190810160405280929190818152602001828054611f6d90613edf565b8015611fba5780601f10611f8f57610100808354040283529160200191611fba565b820191906000526020600020905b815481529060010190602001808311611f9d57829003601f168201915b50505050508152602001600882018054611fd390613edf565b80601f0160208091040260200160405190810160405280929190818152602001828054611fff90613edf565b801561204c5780601f106120215761010080835404028352916020019161204c565b820191906000526020600020905b81548152906001019060200180831161202f57829003601f168201915b5050505050815260200160098201805461206590613edf565b80601f016020809104026020016040519081016040528092919081815260200182805461209190613edf565b80156120de5780601f106120b3576101008083540402835291602001916120de565b820191906000526020600020905b8154815290600101906020018083116120c157829003601f168201915b50505050508152602001600a8201548152602001600b8201805461210190613edf565b80601f016020809104026020016040519081016040528092919081815260200182805461212d90613edf565b801561217a5780601f1061214f5761010080835404028352916020019161217a565b820191906000526020600020905b81548152906001019060200180831161215d57829003601f168201915b50505050508152505090506000816000015151036121d1576040518060400160405280600c81526020017f636172644e6f74466f756e64000000000000000000000000000000000000000081525092505050612382565b6121fb7fa49807205ce4d355092ef5a8a18f56e8913cf4a201fbe287825b095693c217753361194f565b61229757836040516020016122109190613dee565b6040516020818303038152906040528051906020012081610160015160405160200161223c9190613dee565b6040516020818303038152906040528051906020012014612296576040518060400160405280600d81526020017f6572726f7250617373776f72640000000000000000000000000000000000000081525092505050612382565b5b6122c17fa49807205ce4d355092ef5a8a18f56e8913cf4a201fbe287825b095693c217753361194f565b61231257806101400151421115612311576040518060400160405280600a81526020017f657870697265436172640000000000000000000000000000000000000000000081525092505050612382565b5b806000015181602001518260400151836060015184608001518560a001518660c001518760e001518861010001518961012001516123548b6101400151613148565b60405160200161236e9b9a999897969594939291906142ef565b604051602081830303815290604052925050505b92915050565b6000801b81565b60035481565b60006123c17fa49807205ce4d355092ef5a8a18f56e8913cf4a201fbe287825b095693c217753361194f565b905090565b6060600073ffffffffffffffffffffffffffffffffffffffff163373ffffffffffffffffffffffffffffffffffffffff160361240157600080fd5b6000600160003373ffffffffffffffffffffffffffffffffffffffff1673ffffffffffffffffffffffffffffffffffffffff1681526020019081526020016000206040518061018001604052908160008201805461245e90613edf565b80601f016020809104026020016040519081016040528092919081815260200182805461248a90613edf565b80156124d75780601f106124ac576101008083540402835291602001916124d7565b820191906000526020600020905b8154815290600101906020018083116124ba57829003601f168201915b505050505081526020016001820180546124f090613edf565b80601f016020809104026020016040519081016040528092919081815260200182805461251c90613edf565b80156125695780601f1061253e57610100808354040283529160200191612569565b820191906000526020600020905b81548152906001019060200180831161254c57829003601f168201915b5050505050815260200160028201805461258290613edf565b80601f01602080910402602001604051908101604052809291908181526020018280546125ae90613edf565b80156125fb5780601f106125d0576101008083540402835291602001916125fb565b820191906000526020600020905b8154815290600101906020018083116125de57829003601f168201915b5050505050815260200160038201805461261490613edf565b80601f016020809104026020016040519081016040528092919081815260200182805461264090613edf565b801561268d5780601f106126625761010080835404028352916020019161268d565b820191906000526020600020905b81548152906001019060200180831161267057829003601f168201915b505050505081526020016004820180546126a690613edf565b80601f01602080910402602001604051908101604052809291908181526020018280546126d290613edf565b801561271f5780601f106126f45761010080835404028352916020019161271f565b820191906000526020600020905b81548152906001019060200180831161270257829003601f168201915b5050505050815260200160058201805461273890613edf565b80601f016020809104026020016040519081016040528092919081815260200182805461276490613edf565b80156127b15780601f10612786576101008083540402835291602001916127b1565b820191906000526020600020905b81548152906001019060200180831161279457829003601f168201915b505050505081526020016006820180546127ca90613edf565b80601f01602080910402602001604051908101604052809291908181526020018280546127f690613edf565b80156128435780601f1061281857610100808354040283529160200191612843565b820191906000526020600020905b81548152906001019060200180831161282657829003601f168201915b5050505050815260200160078201805461285c90613edf565b80601f016020809104026020016040519081016040528092919081815260200182805461288890613edf565b80156128d55780601f106128aa576101008083540402835291602001916128d5565b820191906000526020600020905b8154815290600101906020018083116128b857829003601f168201915b505050505081526020016008820180546128ee90613edf565b80601f016020809104026020016040519081016040528092919081815260200182805461291a90613edf565b80156129675780601f1061293c57610100808354040283529160200191612967565b820191906000526020600020905b81548152906001019060200180831161294a57829003601f168201915b5050505050815260200160098201805461298090613edf565b80601f01602080910402602001604051908101604052809291908181526020018280546129ac90613edf565b80156129f95780601f106129ce576101008083540402835291602001916129f9565b820191906000526020600020905b8154815290600101906020018083116129dc57829003601f168201915b50505050508152602001600a8201548152602001600b82018054612a1c90613edf565b80601f0160208091040260200160405190810160405280929190818152602001828054612a4890613edf565b8015612a955780601f10612a6a57610100808354040283529160200191612a95565b820191906000526020600020905b815481529060010190602001808311612a7857829003601f168201915b5050505050815250509050600081600001515103612aeb576040518060400160405280600c81526020017f636172644e6f74466f756e640000000000000000000000000000000000000000815250915050612edb565b82604051602001612afc9190613dee565b60405160208183030381529060405280519060200120816101600151604051602001612b289190613dee565b6040516020818303038152906040528051906020012014612b81576040518060400160405280600d81526020017f6572726f7250617373776f726400000000000000000000000000000000000000815250915050612edb565b60006312cc030042612b939190613e7c565b9050600160003373ffffffffffffffffffffffffffffffffffffffff1673ffffffffffffffffffffffffffffffffffffffff16815260200190815260200160002060008082016000612be59190613657565b600182016000612bf59190613657565b600282016000612c059190613657565b600382016000612c159190613657565b600482016000612c259190613657565b600582016000612c359190613657565b600682016000612c459190613657565b600782016000612c559190613657565b600882016000612c659190613657565b600982016000612c759190613657565b600a820160009055600b82016000612c8d9190613657565b505060405180610180016040528083600001518152602001836020015181526020018360400151815260200183606001518152602001836080015181526020018360a0015181526020018360c0015181526020018360e00151815260200183610100015181526020018361012001518152602001828152602001836101600151815250600160003373ffffffffffffffffffffffffffffffffffffffff1673ffffffffffffffffffffffffffffffffffffffff1681526020019081526020016000206000820151816000019081612d6491906140bc565b506020820151816001019081612d7a91906140bc565b506040820151816002019081612d9091906140bc565b506060820151816003019081612da691906140bc565b506080820151816004019081612dbc91906140bc565b5060a0820151816005019081612dd291906140bc565b5060c0820151816006019081612de891906140bc565b5060e0820151816007019081612dfe91906140bc565b50610100820151816008019081612e1591906140bc565b50610120820151816009019081612e2c91906140bc565b5061014082015181600a015561016082015181600b019081612e4e91906140bc565b509050507fd7301a1875e612aa83866dfed9015b7be44e76535dfeafbbd5597a022aba92e8826000015183602001518460800151856101400151604051612e98949392919061418e565b60405180910390a16040518060400160405280601081526020017f6361726452656e65775375636365737300000000000000000000000000000000815250925050505b919050565b612ee982610383565b612ef281612f6b565b612efc8383613067565b505050565b60007f01ffc9a7000000000000000000000000000000000000000000000000000000007bffffffffffffffffffffffffffffffffffffffffffffffffffffffff1916827bffffffffffffffffffffffffffffffffffffffffffffffffffffffff1916149050919050565b612f7c81612f7761305f565b613216565b50565b612f89828261194f565b61305b57600160008084815260200190815260200160002060000160008373ffffffffffffffffffffffffffffffffffffffff1673ffffffffffffffffffffffffffffffffffffffff16815260200190815260200160002060006101000a81548160ff02191690831515021790555061300061305f565b73ffffffffffffffffffffffffffffffffffffffff168173ffffffffffffffffffffffffffffffffffffffff16837f2f8788117e7eff1d82e926ec794901d17c78024a50270940304540a733656f0d60405160405180910390a45b5050565b600033905090565b613071828261194f565b1561314457600080600084815260200190815260200160002060000160008373ffffffffffffffffffffffffffffffffffffffff1673ffffffffffffffffffffffffffffffffffffffff16815260200190815260200160002060006101000a81548160ff0219169083151502179055506130e961305f565b73ffffffffffffffffffffffffffffffffffffffff168173ffffffffffffffffffffffffffffffffffffffff16837ff6391f5c32d9c69d2a47ea670b442974b53935d1edc7fd64eb21e047a839171b60405160405180910390a45b5050565b6060600060016131578461329b565b01905060008167ffffffffffffffff811115613176576131756138c9565b5b6040519080825280601f01601f1916602001820160405280156131a85781602001600182028036833780820191505090505b509050600082602001820190505b60011561320b578080600190039150507f3031323334353637383961626364656600000000000000000000000000000000600a86061a8153600a85816131ff576131fe6143f6565b5b049450600085036131b6575b819350505050919050565b613220828261194f565b6132975761322d816133ee565b61323b8360001c602061341b565b60405160200161324c9291906144bd565b6040516020818303038152906040526040517f08c379a000000000000000000000000000000000000000000000000000000000815260040161328e9190613ce4565b60405180910390fd5b5050565b600080600090507a184f03e93ff9f4daa797ed6e38ed64bf6a1f01000000000000000083106132f9577a184f03e93ff9f4daa797ed6e38ed64bf6a1f01000000000000000083816132ef576132ee6143f6565b5b0492506040810190505b6d04ee2d6d415b85acef81000000008310613336576d04ee2d6d415b85acef8100000000838161332c5761332b6143f6565b5b0492506020810190505b662386f26fc10000831061336557662386f26fc10000838161335b5761335a6143f6565b5b0492506010810190505b6305f5e100831061338e576305f5e1008381613384576133836143f6565b5b0492506008810190505b61271083106133b35761271083816133a9576133a86143f6565b5b0492506004810190505b606483106133d657606483816133cc576133cb6143f6565b5b0492506002810190505b600a83106133e5576001810190505b80915050919050565b60606134148273ffffffffffffffffffffffffffffffffffffffff16601460ff1661341b565b9050919050565b60606000600283600261342e91906144f7565b6134389190613e7c565b67ffffffffffffffff811115613451576134506138c9565b5b6040519080825280601f01601f1916602001820160405280156134835781602001600182028036833780820191505090505b5090507f3000000000000000000000000000000000000000000000000000000000000000816000815181106134bb576134ba614539565b5b60200101907effffffffffffffffffffffffffffffffffffffffffffffffffffffffffffff1916908160001a9053507f78000000000000000000000000000000000000000000000000000000000000008160018151811061351f5761351e614539565b5b60200101907effffffffffffffffffffffffffffffffffffffffffffffffffffffffffffff1916908160001a9053506000600184600261355f91906144f7565b6135699190613e7c565b90505b6001811115613609577f3031323334353637383961626364656600000000000000000000000000000000600f8616601081106135ab576135aa614539565b5b1a60f81b8282815181106135c2576135c1614539565b5b60200101907effffffffffffffffffffffffffffffffffffffffffffffffffffffffffffff1916908160001a905350600485901c9450806136029061427a565b905061356c565b506000841461364d576040517f08c379a0000000000000000000000000000000000000000000000000000000008152600401613644906145b4565b60405180910390fd5b8091505092915050565b50805461366390613edf565b6000825580601f106136755750613694565b601f0160209004906000526020600020908101906136939190613697565b5b50565b5b808211156136b0576000816000905550600101613698565b5090565b6000604051905090565b600080fd5b600080fd5b60007fffffffff0000000000000000000000000000000000000000000000000000000082169050919050565b6136fd816136c8565b811461370857600080fd5b50565b60008135905061371a816136f4565b92915050565b600060208284031215613736576137356136be565b5b60006137448482850161370b565b91505092915050565b60008115159050919050565b6137628161374d565b82525050565b600060208201905061377d6000830184613759565b92915050565b6000819050919050565b61379681613783565b81146137a157600080fd5b50565b6000813590506137b38161378d565b92915050565b6000602082840312156137cf576137ce6136be565b5b60006137dd848285016137a4565b91505092915050565b6137ef81613783565b82525050565b600060208201905061380a60008301846137e6565b92915050565b600073ffffffffffffffffffffffffffffffffffffffff82169050919050565b600061383b82613810565b9050919050565b61384b81613830565b811461385657600080fd5b50565b60008135905061386881613842565b92915050565b60008060408385031215613885576138846136be565b5b6000613893858286016137a4565b92505060206138a485828601613859565b9150509250929050565b600080fd5b600080fd5b6000601f19601f8301169050919050565b7f4e487b7100000000000000000000000000000000000000000000000000000000600052604160045260246000fd5b613901826138b8565b810181811067ffffffffffffffff821117156139205761391f6138c9565b5b80604052505050565b60006139336136b4565b905061393f82826138f8565b919050565b600067ffffffffffffffff82111561395f5761395e6138c9565b5b613968826138b8565b9050602081019050919050565b82818337600083830152505050565b600061399761399284613944565b613929565b9050828152602081018484840111156139b3576139b26138b3565b5b6139be848285613975565b509392505050565b600082601f8301126139db576139da6138ae565b5b81356139eb848260208601613984565b91505092915050565b60008060008060008060008060008060006101608c8e031215613a1a57613a196136be565b5b60008c013567ffffffffffffffff811115613a3857613a376136c3565b5b613a448e828f016139c6565b9b505060208c013567ffffffffffffffff811115613a6557613a646136c3565b5b613a718e828f016139c6565b9a505060408c013567ffffffffffffffff811115613a9257613a916136c3565b5b613a9e8e828f016139c6565b99505060608c013567ffffffffffffffff811115613abf57613abe6136c3565b5b613acb8e828f016139c6565b98505060808c013567ffffffffffffffff811115613aec57613aeb6136c3565b5b613af88e828f016139c6565b97505060a08c013567ffffffffffffffff811115613b1957613b186136c3565b5b613b258e828f016139c6565b96505060c08c013567ffffffffffffffff811115613b4657613b456136c3565b5b613b528e828f016139c6565b95505060e08c013567ffffffffffffffff811115613b7357613b726136c3565b5b613b7f8e828f016139c6565b9450506101008c013567ffffffffffffffff811115613ba157613ba06136c3565b5b613bad8e828f016139c6565b9350506101208c013567ffffffffffffffff811115613bcf57613bce6136c3565b5b613bdb8e828f016139c6565b9250506101408c013567ffffffffffffffff811115613bfd57613bfc6136c3565b5b613c098e828f016139c6565b9150509295989b509295989b9093969950565b600060208284031215613c3257613c316136be565b5b600082013567ffffffffffffffff811115613c5057613c4f6136c3565b5b613c5c848285016139c6565b91505092915050565b600081519050919050565b600082825260208201905092915050565b60005b83811015613c9f578082015181840152602081019050613c84565b60008484015250505050565b6000613cb682613c65565b613cc08185613c70565b9350613cd0818560208601613c81565b613cd9816138b8565b840191505092915050565b60006020820190508181036000830152613cfe8184613cab565b905092915050565b60008060408385031215613d1d57613d1c6136be565b5b600083013567ffffffffffffffff811115613d3b57613d3a6136c3565b5b613d47858286016139c6565b925050602083013567ffffffffffffffff811115613d6857613d676136c3565b5b613d74858286016139c6565b9150509250929050565b6000819050919050565b613d9181613d7e565b82525050565b6000602082019050613dac6000830184613d88565b92915050565b600081905092915050565b6000613dc882613c65565b613dd28185613db2565b9350613de2818560208601613c81565b80840191505092915050565b6000613dfa8284613dbd565b915081905092915050565b7f4e487b7100000000000000000000000000000000000000000000000000000000600052601160045260246000fd5b6000613e3f82613d7e565b91507fffffffffffffffffffffffffffffffffffffffffffffffffffffffffffffffff8203613e7157613e70613e05565b5b600182019050919050565b6000613e8782613d7e565b9150613e9283613d7e565b9250828201905080821115613eaa57613ea9613e05565b5b92915050565b7f4e487b7100000000000000000000000000000000000000000000000000000000600052602260045260246000fd5b60006002820490506001821680613ef757607f821691505b602082108103613f0a57613f09613eb0565b5b50919050565b60008190508160005260206000209050919050565b60006020601f8301049050919050565b600082821b905092915050565b600060088302613f727fffffffffffffffffffffffffffffffffffffffffffffffffffffffffffffffff82613f35565b613f7c8683613f35565b95508019841693508086168417925050509392505050565b6000819050919050565b6000613fb9613fb4613faf84613d7e565b613f94565b613d7e565b9050919050565b6000819050919050565b613fd383613f9e565b613fe7613fdf82613fc0565b848454613f42565b825550505050565b600090565b613ffc613fef565b614007818484613fca565b505050565b5b8181101561402b57614020600082613ff4565b60018101905061400d565b5050565b601f8211156140705761404181613f10565b61404a84613f25565b81016020851015614059578190505b61406d61406585613f25565b83018261400c565b50505b505050565b600082821c905092915050565b600061409360001984600802614075565b1980831691505092915050565b60006140ac8383614082565b9150826002028217905092915050565b6140c582613c65565b67ffffffffffffffff8111156140de576140dd6138c9565b5b6140e88254613edf565b6140f382828561402f565b600060209050601f8311600181146141265760008415614114578287015190505b61411e85826140a0565b865550614186565b601f19841661413486613f10565b60005b8281101561415c57848901518255600182019150602085019450602081019050614137565b868310156141795784890151614175601f891682614082565b8355505b6001600288020188555050505b505050505050565b600060808201905081810360008301526141a88187613cab565b905081810360208301526141bc8186613cab565b905081810360408301526141d08185613cab565b90506141df6060830184613d88565b95945050505050565b7f416363657373436f6e74726f6c3a2063616e206f6e6c792072656e6f756e636560008201527f20726f6c657320666f722073656c660000000000000000000000000000000000602082015250565b6000614244602f83613c70565b915061424f826141e8565b604082019050919050565b6000602082019050818103600083015261427381614237565b9050919050565b600061428582613d7e565b91506000820361429857614297613e05565b5b600182039050919050565b7f2f2f000000000000000000000000000000000000000000000000000000000000600082015250565b60006142d9600283613db2565b91506142e4826142a3565b600282019050919050565b60006142fb828e613dbd565b9150614306826142cc565b9150614312828d613dbd565b915061431d826142cc565b9150614329828c613dbd565b9150614334826142cc565b9150614340828b613dbd565b915061434b826142cc565b9150614357828a613dbd565b9150614362826142cc565b915061436e8289613dbd565b9150614379826142cc565b91506143858288613dbd565b9150614390826142cc565b915061439c8287613dbd565b91506143a7826142cc565b91506143b38286613dbd565b91506143be826142cc565b91506143ca8285613dbd565b91506143d5826142cc565b91506143e18284613dbd565b91508190509c9b505050505050505050505050565b7f4e487b7100000000000000000000000000000000000000000000000000000000600052601260045260246000fd5b7f416363657373436f6e74726f6c3a206163636f756e7420000000000000000000600082015250565b600061445b601783613db2565b915061446682614425565b601782019050919050565b7f206973206d697373696e6720726f6c6520000000000000000000000000000000600082015250565b60006144a7601183613db2565b91506144b282614471565b601182019050919050565b60006144c88261444e565b91506144d48285613dbd565b91506144df8261449a565b91506144eb8284613dbd565b91508190509392505050565b600061450282613d7e565b915061450d83613d7e565b925082820261451b81613d7e565b9150828204841483151761453257614531613e05565b5b5092915050565b7f4e487b7100000000000000000000000000000000000000000000000000000000600052603260045260246000fd5b7f537472696e67733a20686578206c656e67746820696e73756666696369656e74600082015250565b600061459e602083613c70565b91506145a982614568565b602082019050919050565b600060208201905081810360008301526145cd81614591565b905091905056fea2646970667358221220c2083e8989b56979c2f0b0d594fa3c9f02a1f9f74b2a1840ceb364a1acc1b94964736f6c6343000811003335653838343839386461323830343731353164306535366638646336323932373733363033643064366161626264643632613131656637323164313534326438",
  "immutableReferences": {},
  "source": "// SPDX-License-Identifier: MIT\npragma solidity >=0.4.2;\n\nimport \"@openzeppelin/contracts/utils/Strings.sol\";\nimport \"@openzeppelin/contracts/access/AccessControl.sol\";\n\n\ncontract IdChain is AccessControl {\n\n    //address admin\n    bytes32 private constant ADMIN_ROLE = keccak256(\"ADMIN_ROLE\");\n\n    //Model a IdCard\n    struct IdCard{\n        string name;\n        string surname;\n        string birthDate;\n        string birthPlace;\n        string fiscalCode;\n        string homeAddress;\n        string city;\n        string province;\n        string cap;\n        string phone;\n        uint dataScadenza;\n        string password;\n    }\n\n    event IdCardScaduta(\n        string message\n    );\n\n    event createdIdCard(\n        string name,\n        string surname,\n        string fiscalCode,\n        uint dataScadenza\n    );\n\n    event renewedIdCard(\n        string name,\n        string surname,\n        string fiscalCode,\n        uint dataScadenza\n    );\n\n    \n\n    //Store the IdCards\n    //Utilizza gli address come chiave\n    //non public per evitare che si possano vedere tutte le IdCards di altre persone\n    mapping(address => IdCard) private idCards;\n\n    //mapping che contiene tutti codici fiscali registrati associati all'address che l'hanno registrato1\n    mapping(string => address) private registeredCF;\n\n    //Store IdCards Count\n    uint public idCardsCount;\n\n    constructor(){\n        idCardsCount = 0;\n        //Crea una IdCard gi scaduta per testare il controllo sulla data di scadenza\n        idCards[0xCd3dAE09E94aad0bc8e2Bce8d5905384FE838c8E] = IdCard(\"Test\", \"Test1\", \"24/03/2000\", \"Avellino\", \"MRSNDR0022\", \"Via Via Via\",\n         \"Avellino\", \"AV\", \"83100\", \"3311242336\", 1642690626, \"5e884898da28047151d0e56f8dc6292773603d0d6aabbdd62a11ef721d1542d8\");\n        registeredCF[\"MRSNDR0022\"] = 0xCd3dAE09E94aad0bc8e2Bce8d5905384FE838c8E;\n        //aggiunge l'address che ha creato il contratto come admin\n        _grantRole(ADMIN_ROLE, msg.sender);\n    }\n\n    //crea una nuova IdCard\n    function createIdCard(string memory _name, string memory _surname,\n     string memory _birthDate, string memory _birthPlace, string memory _fiscalCode,\n      string memory _homeAddress, string memory _city, string memory _province,\n       string memory _cap, string memory _phone, string memory _password) public {\n        //require that the fiscalCode is not already registered\n        require(registeredCF[_fiscalCode] == address(0));\n        //Require a valid name\n        require(bytes(_name).length > 0);\n        //Require a valid surname\n        require(bytes(_surname).length > 0);\n        //Require a valid birthDate\n        require(bytes(_birthDate).length > 0);\n        //Require a valid birthPlace\n        require(bytes(_birthPlace).length > 0);\n        //Require a valid fiscalCode\n        require(bytes(_fiscalCode).length > 0);\n        //Require a valid homeAddress\n        require(bytes(_homeAddress).length > 0);\n        //Require a valid city\n        require(bytes(_city).length > 0);\n        //Require a valid province\n        require(bytes(_province).length > 0);\n        //Require a valid cap\n        require(bytes(_cap).length > 0);\n        //Require a valid phone\n        require(bytes(_phone).length > 0);\n\n        //Increment IdCards Count\n        idCardsCount ++;\n\n        //calcola la data di scadenza\n        uint dataScadenzaInt = block.timestamp + (10 * 365 days);\n\n        //Create the IdCard\n        idCards[msg.sender] = IdCard(_name, _surname, _birthDate, _birthPlace, _fiscalCode, _homeAddress,\n         _city, _province, _cap, _phone, dataScadenzaInt, _password);\n\n        //Aggiunge il codice fiscale alla lista dei codici fiscali registrati\n        registeredCF[_fiscalCode] = msg.sender;\n\n        //Trigger an event\n        emit createdIdCard(_name, _surname, _fiscalCode, dataScadenzaInt);\n    }\n\n    //Delete an IdCard\n    function deleteIdCard(string memory _password) public returns (string memory) {\n        //Require a valid address\n        require(msg.sender != address(0));\n\n        IdCard memory idCard = idCards[msg.sender];\n        string memory cf = idCard.fiscalCode;\n\n        if(bytes(idCard.name).length == 0){\n            return \"cardNotFound\";\n        }\n\n\n        if(keccak256(abi.encodePacked(idCard.password)) != keccak256(abi.encodePacked(_password))){\n            return \"errorPassword\";\n        }\n\n        //Delete the IdCard\n        delete idCards[msg.sender];\n        delete registeredCF[cf];\n        //Decrement IdCards Count\n        idCardsCount --;\n\n        return \"cardDeleteSuccess\";\n    }\n\n    //Read an IdCard\n    function readIdCard(string memory _cf, string memory _password) public view returns (string memory){\n\n        //address da leggere\n        address addressToRead;\n\n        //controllo su address admin\n        if(hasRole(ADMIN_ROLE, msg.sender)){\n            //controllo se il codice fiscale  registrato\n            require(registeredCF[_cf] != address(0));\n            addressToRead = registeredCF[_cf];\n        }else{\n            addressToRead = msg.sender;\n        }\n\n        //Require a valid address\n        require(addressToRead != address(0));\n        \n        //Return the IdCard\n        IdCard memory idCard = idCards[addressToRead];\n\n        if(bytes(idCard.name).length == 0){\n            return \"cardNotFound\";\n        }\n\n        //controllo sulla password\n        if(!hasRole(ADMIN_ROLE, msg.sender)){\n            if(keccak256(abi.encodePacked(idCard.password)) != keccak256(abi.encodePacked(_password))){\n                return \"errorPassword\";\n            }\n        }\n\n        //controllo sulla data di scadenza\n        if(!hasRole(ADMIN_ROLE, msg.sender)){\n            if(block.timestamp > idCard.dataScadenza){\n                return \"expireCard\";\n            }\n        }\n        \n        return (string(abi.encodePacked(idCard.name,\"//\",idCard.surname ,\"//\" ,idCard.birthDate ,\"//\" ,idCard.birthPlace ,\"//\"\n          ,idCard.fiscalCode ,\"//\" ,idCard.homeAddress ,\"//\" ,idCard.city ,\"//\" ,idCard.province ,\"//\"\n           ,idCard.cap ,\"//\" ,idCard.phone ,\"//\" ,Strings.toString(idCard.dataScadenza)))) ;\n    }\n\n    //Authorize with IdCard\n    //Metodo a cui viene passato l'address e che va a verificare la scadenza della card e restituisce un messaggio\n    function authorize(string memory _password) public view returns (string memory){\n        //Require a valid address\n        require(msg.sender != address(0));\n        \n        IdCard memory idCard = idCards[msg.sender];\n\n        if(bytes(idCard.name).length == 0){\n            return \"cardNotFound\";\n        }\n\n\n        if(keccak256(abi.encodePacked(idCard.password)) != keccak256(abi.encodePacked(_password))){\n            return \"errorPassword\";\n        }\n\n\n        if(block.timestamp > idCard.dataScadenza){\n            return \"expireCard\";\n        }else{\n            return \"Autorizzato\";\n        }\n\n    }\n\n    //funzione per rinnovare la carta (rigenera la data di scadenza)\n    function renewIdCard(string memory _password) public returns (string memory){\n        //Require a valid address\n        require(msg.sender != address(0));\n        \n        IdCard memory idCard = idCards[msg.sender];\n\n        if(bytes(idCard.name).length == 0){\n            return \"cardNotFound\";\n        }\n\n        if(keccak256(abi.encodePacked(idCard.password)) != keccak256(abi.encodePacked(_password))){\n            return \"errorPassword\";\n        }\n\n        //calcola la data di scadenza\n        uint dataScadenzaInt = block.timestamp + (10 * 365 days);\n\n        delete idCards[msg.sender];\n\n        idCards[msg.sender] = IdCard(idCard.name, idCard.surname, idCard.birthDate, idCard.birthPlace, idCard.fiscalCode, idCard.homeAddress,\n         idCard.city, idCard.province, idCard.cap, idCard.phone, dataScadenzaInt, idCard.password);\n\n        //Trigger an event\n        emit renewedIdCard(idCard.name, idCard.surname, idCard.fiscalCode, idCard.dataScadenza);\n\n        return \"cardRenewSuccess\";\n    }\n\n    function isAdmin() public view returns (bool){\n        return hasRole(ADMIN_ROLE, msg.sender);\n    }\n\n\n\n\n\n}\n",
  "sourcePath": "/Users/ater/Documents/Progetti/Web3/idChain/contracts/IdChain.sol",
  "compiler": {
    "name": "solc",
    "version": "0.8.17+commit.8df45f5f.Emscripten.clang"
  },
  "schemaVersion": "3.4.11",
  "updatedAt": "2023-01-26T17:16:41.443Z",
  "networkType": "ethereum",
  "devdoc": {
    "kind": "dev",
    "methods": {
      "getRoleAdmin(bytes32)": {
        "details": "Returns the admin role that controls `role`. See {grantRole} and {revokeRole}. To change a role's admin, use {_setRoleAdmin}."
      },
      "grantRole(bytes32,address)": {
        "details": "Grants `role` to `account`. If `account` had not been already granted `role`, emits a {RoleGranted} event. Requirements: - the caller must have ``role``'s admin role. May emit a {RoleGranted} event."
      },
      "hasRole(bytes32,address)": {
        "details": "Returns `true` if `account` has been granted `role`."
      },
      "renounceRole(bytes32,address)": {
        "details": "Revokes `role` from the calling account. Roles are often managed via {grantRole} and {revokeRole}: this function's purpose is to provide a mechanism for accounts to lose their privileges if they are compromised (such as when a trusted device is misplaced). If the calling account had been revoked `role`, emits a {RoleRevoked} event. Requirements: - the caller must be `account`. May emit a {RoleRevoked} event."
      },
      "revokeRole(bytes32,address)": {
        "details": "Revokes `role` from `account`. If `account` had been granted `role`, emits a {RoleRevoked} event. Requirements: - the caller must have ``role``'s admin role. May emit a {RoleRevoked} event."
      },
      "supportsInterface(bytes4)": {
        "details": "See {IERC165-supportsInterface}."
      }
    },
    "version": 1
  },
  "userdoc": {
    "kind": "user",
    "methods": {},
    "version": 1
  }
}